{
  "contractName": "CryptoAthletes",
  "abi": [
    {
      "inputs": [
        {
          "internalType": "string",
          "name": "baseURI",
          "type": "string"
        }
      ],
      "stateMutability": "nonpayable",
      "type": "constructor"
    },
    {
      "anonymous": false,
      "inputs": [
        {
          "indexed": true,
          "internalType": "address",
          "name": "owner",
          "type": "address"
        },
        {
          "indexed": true,
          "internalType": "address",
          "name": "approved",
          "type": "address"
        },
        {
          "indexed": true,
          "internalType": "uint256",
          "name": "tokenId",
          "type": "uint256"
        }
      ],
      "name": "Approval",
      "type": "event"
    },
    {
      "anonymous": false,
      "inputs": [
        {
          "indexed": true,
          "internalType": "address",
          "name": "owner",
          "type": "address"
        },
        {
          "indexed": true,
          "internalType": "address",
          "name": "operator",
          "type": "address"
        },
        {
          "indexed": false,
          "internalType": "bool",
          "name": "approved",
          "type": "bool"
        }
      ],
      "name": "ApprovalForAll",
      "type": "event"
    },
    {
      "anonymous": false,
      "inputs": [
        {
          "indexed": false,
          "internalType": "address",
          "name": "to",
          "type": "address"
        },
        {
          "indexed": true,
          "internalType": "uint256",
          "name": "id",
          "type": "uint256"
        }
      ],
      "name": "CreateCryptoAthletes",
      "type": "event"
    },
    {
      "anonymous": false,
      "inputs": [
        {
          "indexed": true,
          "internalType": "address",
          "name": "previousOwner",
          "type": "address"
        },
        {
          "indexed": true,
          "internalType": "address",
          "name": "newOwner",
          "type": "address"
        }
      ],
      "name": "OwnershipTransferred",
      "type": "event"
    },
    {
      "anonymous": false,
      "inputs": [
        {
          "indexed": false,
          "internalType": "address",
          "name": "account",
          "type": "address"
        }
      ],
      "name": "Paused",
      "type": "event"
    },
    {
      "anonymous": false,
      "inputs": [
        {
          "indexed": true,
          "internalType": "address",
          "name": "from",
          "type": "address"
        },
        {
          "indexed": true,
          "internalType": "address",
          "name": "to",
          "type": "address"
        },
        {
          "indexed": true,
          "internalType": "uint256",
          "name": "tokenId",
          "type": "uint256"
        }
      ],
      "name": "Transfer",
      "type": "event"
    },
    {
      "anonymous": false,
      "inputs": [
        {
          "indexed": false,
          "internalType": "address",
          "name": "account",
          "type": "address"
        }
      ],
      "name": "Unpaused",
      "type": "event"
    },
    {
      "inputs": [
        {
          "internalType": "address",
          "name": "to",
          "type": "address"
        },
        {
          "internalType": "uint256",
          "name": "tokenId",
          "type": "uint256"
        }
      ],
      "name": "approve",
      "outputs": [],
      "stateMutability": "nonpayable",
      "type": "function"
    },
    {
      "inputs": [
        {
          "internalType": "address",
          "name": "owner",
          "type": "address"
        }
      ],
      "name": "balanceOf",
      "outputs": [
        {
          "internalType": "uint256",
          "name": "",
          "type": "uint256"
        }
      ],
      "stateMutability": "view",
      "type": "function",
      "constant": true
    },
    {
      "inputs": [
        {
          "internalType": "uint256",
          "name": "tokenId",
          "type": "uint256"
        }
      ],
      "name": "burn",
      "outputs": [],
      "stateMutability": "nonpayable",
      "type": "function"
    },
    {
      "inputs": [],
      "name": "developerAddress",
      "outputs": [
        {
          "internalType": "address",
          "name": "",
          "type": "address"
        }
      ],
      "stateMutability": "view",
      "type": "function",
      "constant": true
    },
    {
      "inputs": [
        {
          "internalType": "uint256",
          "name": "tokenId",
          "type": "uint256"
        }
      ],
      "name": "getApproved",
      "outputs": [
        {
          "internalType": "address",
          "name": "",
          "type": "address"
        }
      ],
      "stateMutability": "view",
      "type": "function",
      "constant": true
    },
    {
      "inputs": [
        {
          "internalType": "address",
          "name": "owner",
          "type": "address"
        },
        {
          "internalType": "address",
          "name": "operator",
          "type": "address"
        }
      ],
      "name": "isApprovedForAll",
      "outputs": [
        {
          "internalType": "bool",
          "name": "",
          "type": "bool"
        }
      ],
      "stateMutability": "view",
      "type": "function",
      "constant": true
    },
    {
      "inputs": [],
      "name": "name",
      "outputs": [
        {
          "internalType": "string",
          "name": "",
          "type": "string"
        }
      ],
      "stateMutability": "view",
      "type": "function",
      "constant": true
    },
    {
      "inputs": [],
      "name": "owner",
      "outputs": [
        {
          "internalType": "address",
          "name": "",
          "type": "address"
        }
      ],
      "stateMutability": "view",
      "type": "function",
      "constant": true
    },
    {
      "inputs": [
        {
          "internalType": "uint256",
          "name": "tokenId",
          "type": "uint256"
        }
      ],
      "name": "ownerOf",
      "outputs": [
        {
          "internalType": "address",
          "name": "",
          "type": "address"
        }
      ],
      "stateMutability": "view",
      "type": "function",
      "constant": true
    },
    {
      "inputs": [],
      "name": "paused",
      "outputs": [
        {
          "internalType": "bool",
          "name": "",
          "type": "bool"
        }
      ],
      "stateMutability": "view",
      "type": "function",
      "constant": true
    },
    {
      "inputs": [],
      "name": "renounceOwnership",
      "outputs": [],
      "stateMutability": "nonpayable",
      "type": "function"
    },
    {
      "inputs": [
        {
          "internalType": "address",
          "name": "from",
          "type": "address"
        },
        {
          "internalType": "address",
          "name": "to",
          "type": "address"
        },
        {
          "internalType": "uint256",
          "name": "tokenId",
          "type": "uint256"
        }
      ],
      "name": "safeTransferFrom",
      "outputs": [],
      "stateMutability": "nonpayable",
      "type": "function"
    },
    {
      "inputs": [
        {
          "internalType": "address",
          "name": "from",
          "type": "address"
        },
        {
          "internalType": "address",
          "name": "to",
          "type": "address"
        },
        {
          "internalType": "uint256",
          "name": "tokenId",
          "type": "uint256"
        },
        {
          "internalType": "bytes",
          "name": "_data",
          "type": "bytes"
        }
      ],
      "name": "safeTransferFrom",
      "outputs": [],
      "stateMutability": "nonpayable",
      "type": "function"
    },
    {
      "inputs": [
        {
          "internalType": "address",
          "name": "operator",
          "type": "address"
        },
        {
          "internalType": "bool",
          "name": "approved",
          "type": "bool"
        }
      ],
      "name": "setApprovalForAll",
      "outputs": [],
      "stateMutability": "nonpayable",
      "type": "function"
    },
    {
      "inputs": [],
      "name": "symbol",
      "outputs": [
        {
          "internalType": "string",
          "name": "",
          "type": "string"
        }
      ],
      "stateMutability": "view",
      "type": "function",
      "constant": true
    },
    {
      "inputs": [
        {
          "internalType": "uint256",
          "name": "index",
          "type": "uint256"
        }
      ],
      "name": "tokenByIndex",
      "outputs": [
        {
          "internalType": "uint256",
          "name": "",
          "type": "uint256"
        }
      ],
      "stateMutability": "view",
      "type": "function",
      "constant": true
    },
    {
      "inputs": [
        {
          "internalType": "address",
          "name": "owner",
          "type": "address"
        },
        {
          "internalType": "uint256",
          "name": "index",
          "type": "uint256"
        }
      ],
      "name": "tokenOfOwnerByIndex",
      "outputs": [
        {
          "internalType": "uint256",
          "name": "",
          "type": "uint256"
        }
      ],
      "stateMutability": "view",
      "type": "function",
      "constant": true
    },
    {
      "inputs": [
        {
          "internalType": "uint256",
          "name": "tokenId",
          "type": "uint256"
        }
      ],
      "name": "tokenURI",
      "outputs": [
        {
          "internalType": "string",
          "name": "",
          "type": "string"
        }
      ],
      "stateMutability": "view",
      "type": "function",
      "constant": true
    },
    {
      "inputs": [],
      "name": "totalSupply",
      "outputs": [
        {
          "internalType": "uint256",
          "name": "",
          "type": "uint256"
        }
      ],
      "stateMutability": "view",
      "type": "function",
      "constant": true
    },
    {
      "inputs": [
        {
          "internalType": "address",
          "name": "from",
          "type": "address"
        },
        {
          "internalType": "address",
          "name": "to",
          "type": "address"
        },
        {
          "internalType": "uint256",
          "name": "tokenId",
          "type": "uint256"
        }
      ],
      "name": "transferFrom",
      "outputs": [],
      "stateMutability": "nonpayable",
      "type": "function"
    },
    {
      "inputs": [
        {
          "internalType": "address",
          "name": "newOwner",
          "type": "address"
        }
      ],
      "name": "transferOwnership",
      "outputs": [],
      "stateMutability": "nonpayable",
      "type": "function"
    },
    {
      "inputs": [
        {
          "internalType": "address payable",
          "name": "_to",
          "type": "address"
        },
        {
          "internalType": "uint256[]",
          "name": "_ids",
          "type": "uint256[]"
        }
      ],
      "name": "mint",
      "outputs": [],
      "stateMutability": "payable",
      "type": "function",
      "payable": true
    },
    {
      "inputs": [
        {
          "internalType": "string",
          "name": "baseURI",
          "type": "string"
        }
      ],
      "name": "setBaseURI",
      "outputs": [],
      "stateMutability": "nonpayable",
      "type": "function"
    },
    {
      "inputs": [],
      "name": "startPreSale",
      "outputs": [],
      "stateMutability": "nonpayable",
      "type": "function"
    },
    {
      "inputs": [],
      "name": "stopPreSale",
      "outputs": [],
      "stateMutability": "nonpayable",
      "type": "function"
    },
    {
      "inputs": [
        {
          "internalType": "uint256",
          "name": "_count",
          "type": "uint256"
        }
      ],
      "name": "price",
      "outputs": [
        {
          "internalType": "uint256",
          "name": "",
          "type": "uint256"
        }
      ],
      "stateMutability": "pure",
      "type": "function",
      "constant": true
    },
    {
      "inputs": [],
      "name": "occupiedList",
      "outputs": [
        {
          "internalType": "uint256[]",
          "name": "",
          "type": "uint256[]"
        }
      ],
      "stateMutability": "view",
      "type": "function",
      "constant": true
    },
    {
      "inputs": [],
      "name": "maxMint",
      "outputs": [
        {
          "internalType": "uint256",
          "name": "",
          "type": "uint256"
        }
      ],
      "stateMutability": "view",
      "type": "function",
      "constant": true
    },
    {
      "inputs": [],
      "name": "maxSales",
      "outputs": [
        {
          "internalType": "uint256",
          "name": "",
          "type": "uint256"
        }
      ],
      "stateMutability": "view",
      "type": "function",
      "constant": true
    },
    {
      "inputs": [],
      "name": "raised",
      "outputs": [
        {
          "internalType": "uint256",
          "name": "",
          "type": "uint256"
        }
      ],
      "stateMutability": "view",
      "type": "function",
      "constant": true
    },
    {
      "inputs": [
        {
          "internalType": "address",
          "name": "_owner",
          "type": "address"
        }
      ],
      "name": "getTokenIdsOfWallet",
      "outputs": [
        {
          "internalType": "uint256[]",
          "name": "",
          "type": "uint256[]"
        }
      ],
      "stateMutability": "view",
      "type": "function",
      "constant": true
    },
    {
      "inputs": [
        {
          "internalType": "bool",
          "name": "value",
          "type": "bool"
        }
      ],
      "name": "pause",
      "outputs": [],
      "stateMutability": "nonpayable",
      "type": "function"
    },
    {
      "inputs": [],
      "name": "withdrawAll",
      "outputs": [],
      "stateMutability": "payable",
      "type": "function",
      "payable": true
    },
    {
      "inputs": [
        {
          "internalType": "bytes4",
          "name": "interfaceId",
          "type": "bytes4"
        }
      ],
      "name": "supportsInterface",
      "outputs": [
        {
          "internalType": "bool",
          "name": "",
          "type": "bool"
        }
      ],
      "stateMutability": "view",
      "type": "function",
      "constant": true
    }
  ],
  "bytecode": "0x60806040523480156200001157600080fd5b5060405162005a1038038062005a1083398181016040528101906200003791906200066b565b6040518060400160405280600e81526020017f43727970746f4174686c657465730000000000000000000000000000000000008152506040518060400160405280600481526020017f43415448000000000000000000000000000000000000000000000000000000008152508160009080519060200190620000bb9291906200053d565b508060019080519060200190620000d49291906200053d565b505050620000f7620000eb6200014d60201b60201c565b6200015560201b60201c565b6000600a60146101000a81548160ff02191690831515021790555062000123816200021b60201b60201c565b620001356001620002c660201b60201c565b612724600e819055506014600f819055505062000a09565b600033905090565b6000600a60009054906101000a900473ffffffffffffffffffffffffffffffffffffffff16905081600a60006101000a81548173ffffffffffffffffffffffffffffffffffffffff021916908373ffffffffffffffffffffffffffffffffffffffff1602179055508173ffffffffffffffffffffffffffffffffffffffff168173ffffffffffffffffffffffffffffffffffffffff167f8be0079c531659141344cd1fd0a4f28419497f9722a3daafe3b4186f6b6457e060405160405180910390a35050565b6200022b6200014d60201b60201c565b73ffffffffffffffffffffffffffffffffffffffff16620002516200038d60201b60201c565b73ffffffffffffffffffffffffffffffffffffffff1614620002aa576040517f08c379a0000000000000000000000000000000000000000000000000000000008152600401620002a190620007a3565b60405180910390fd5b8060109080519060200190620002c29291906200053d565b5050565b620002d66200014d60201b60201c565b73ffffffffffffffffffffffffffffffffffffffff16620002fc6200038d60201b60201c565b73ffffffffffffffffffffffffffffffffffffffff161462000355576040517f08c379a00000000000000000000000000000000000000000000000000000000081526004016200034c90620007a3565b60405180910390fd5b600115158115151415620003795762000373620003b760201b60201c565b6200038a565b620003896200046f60201b60201c565b5b50565b6000600a60009054906101000a900473ffffffffffffffffffffffffffffffffffffffff16905090565b620003c76200052660201b60201c565b156200040a576040517f08c379a0000000000000000000000000000000000000000000000000000000008152600401620004019062000781565b60405180910390fd5b6001600a60146101000a81548160ff0219169083151502179055507f62e78cea01bee320cd4e420270b5ea74000d11b0c9f74754ebdbfc544b05a258620004566200014d60201b60201c565b60405162000465919062000742565b60405180910390a1565b6200047f6200052660201b60201c565b620004c1576040517f08c379a0000000000000000000000000000000000000000000000000000000008152600401620004b8906200075f565b60405180910390fd5b6000600a60146101000a81548160ff0219169083151502179055507f5db9ee0a495bf2e6ff9c91a7834c1ba4fdd244a5e8aa4e537bd38aeae4b073aa6200050d6200014d60201b60201c565b6040516200051c919062000742565b60405180910390a1565b6000600a60149054906101000a900460ff16905090565b8280546200054b906200089f565b90600052602060002090601f0160209004810192826200056f5760008555620005bb565b82601f106200058a57805160ff1916838001178555620005bb565b82800160010185558215620005bb579182015b82811115620005ba5782518255916020019190600101906200059d565b5b509050620005ca9190620005ce565b5090565b5b80821115620005e9576000816000905550600101620005cf565b5090565b600062000604620005fe84620007ee565b620007c5565b9050828152602081018484840111156200062357620006226200096e565b5b6200063084828562000869565b509392505050565b600082601f83011262000650576200064f62000969565b5b815162000662848260208601620005ed565b91505092915050565b60006020828403121562000684576200068362000978565b5b600082015167ffffffffffffffff811115620006a557620006a462000973565b5b620006b38482850162000638565b91505092915050565b620006c78162000835565b82525050565b6000620006dc60148362000824565b9150620006e9826200098e565b602082019050919050565b60006200070360108362000824565b91506200071082620009b7565b602082019050919050565b60006200072a60208362000824565b91506200073782620009e0565b602082019050919050565b6000602082019050620007596000830184620006bc565b92915050565b600060208201905081810360008301526200077a81620006cd565b9050919050565b600060208201905081810360008301526200079c81620006f4565b9050919050565b60006020820190508181036000830152620007be816200071b565b9050919050565b6000620007d1620007e4565b9050620007df8282620008d5565b919050565b6000604051905090565b600067ffffffffffffffff8211156200080c576200080b6200093a565b5b62000817826200097d565b9050602081019050919050565b600082825260208201905092915050565b6000620008428262000849565b9050919050565b600073ffffffffffffffffffffffffffffffffffffffff82169050919050565b60005b83811015620008895780820151818401526020810190506200086c565b8381111562000899576000848401525b50505050565b60006002820490506001821680620008b857607f821691505b60208210811415620008cf57620008ce6200090b565b5b50919050565b620008e0826200097d565b810181811067ffffffffffffffff821117156200090257620009016200093a565b5b80604052505050565b7f4e487b7100000000000000000000000000000000000000000000000000000000600052602260045260246000fd5b7f4e487b7100000000000000000000000000000000000000000000000000000000600052604160045260246000fd5b600080fd5b600080fd5b600080fd5b600080fd5b6000601f19601f8301169050919050565b7f5061757361626c653a206e6f7420706175736564000000000000000000000000600082015250565b7f5061757361626c653a2070617573656400000000000000000000000000000000600082015250565b7f4f776e61626c653a2063616c6c6572206973206e6f7420746865206f776e6572600082015250565b614ff78062000a196000396000f3fe6080604052600436106101f95760003560e01c8063715018a61161010d578063bfdf9b6e116100a0578063e985e9c51161006f578063e985e9c514610705578063eef6250814610742578063f0ea4bfc1461077f578063f2fde38b146107aa578063f8fb3366146107d3576101f9565b8063bfdf9b6e14610656578063c87b56dd14610681578063caccd7f7146106be578063de836ebd146106e9576101f9565b806395d89b41116100dc57806395d89b41146105ae578063a22cb465146105d9578063a769cba914610602578063b88d4fde1461062d576101f9565b8063715018a6146105375780637501f7411461054e578063853828b6146105795780638da5cb5b14610583576101f9565b80632f745c591161019057806355dd574c1161015f57806355dd574c1461045257806355f804b3146104695780635c975abb146104925780636352211e146104bd57806370a08231146104fa576101f9565b80632f745c591461038657806342842e0e146103c357806342966c68146103ec5780634f6ccce714610415576101f9565b8063095ea7b3116101cc578063095ea7b3146102cc57806318160ddd146102f557806323b872dd1461032057806326a49e3714610349576101f9565b806301ffc9a7146101fe57806302329a291461023b57806306fdde0314610264578063081812fc1461028f575b600080fd5b34801561020a57600080fd5b50610225600480360381019061022091906135c8565b6107ea565b6040516102329190613d67565b60405180910390f35b34801561024757600080fd5b50610262600480360381019061025d919061359b565b6107fc565b005b34801561027057600080fd5b5061027961089e565b6040516102869190613d82565b60405180910390f35b34801561029b57600080fd5b506102b660048036038101906102b1919061366b565b610930565b6040516102c39190613cc3565b60405180910390f35b3480156102d857600080fd5b506102f360048036038101906102ee919061355b565b6109b5565b005b34801561030157600080fd5b5061030a610acd565b6040516103179190614184565b60405180910390f35b34801561032c57600080fd5b5061034760048036038101906103429190613445565b610ada565b005b34801561035557600080fd5b50610370600480360381019061036b919061366b565b610b3a565b60405161037d9190614184565b60405180910390f35b34801561039257600080fd5b506103ad60048036038101906103a8919061355b565b610b5d565b6040516103ba9190614184565b60405180910390f35b3480156103cf57600080fd5b506103ea60048036038101906103e59190613445565b610c02565b005b3480156103f857600080fd5b50610413600480360381019061040e919061366b565b610c22565b005b34801561042157600080fd5b5061043c6004803603810190610437919061366b565b610c7e565b6040516104499190614184565b60405180910390f35b34801561045e57600080fd5b50610467610cef565b005b34801561047557600080fd5b50610490600480360381019061048b9190613622565b610d7e565b005b34801561049e57600080fd5b506104a7610e14565b6040516104b49190613d67565b60405180910390f35b3480156104c957600080fd5b506104e460048036038101906104df919061366b565b610e2b565b6040516104f19190613cc3565b60405180910390f35b34801561050657600080fd5b50610521600480360381019061051c919061337c565b610edd565b60405161052e9190614184565b60405180910390f35b34801561054357600080fd5b5061054c610f95565b005b34801561055a57600080fd5b5061056361101d565b6040516105709190614184565b60405180910390f35b610581611027565b005b34801561058f57600080fd5b5061059861114f565b6040516105a59190613cc3565b60405180910390f35b3480156105ba57600080fd5b506105c3611179565b6040516105d09190613d82565b60405180910390f35b3480156105e557600080fd5b5061060060048036038101906105fb919061351b565b61120b565b005b34801561060e57600080fd5b5061061761138c565b6040516106249190613d45565b60405180910390f35b34801561063957600080fd5b50610654600480360381019061064f9190613498565b6113e4565b005b34801561066257600080fd5b5061066b611446565b6040516106789190614184565b60405180910390f35b34801561068d57600080fd5b506106a860048036038101906106a3919061366b565b611450565b6040516106b59190613d82565b60405180910390f35b3480156106ca57600080fd5b506106d36114f7565b6040516106e09190613cc3565b60405180910390f35b61070360048036038101906106fe91906133a9565b61150f565b005b34801561071157600080fd5b5061072c60048036038101906107279190613405565b611803565b6040516107399190613d67565b60405180910390f35b34801561074e57600080fd5b506107696004803603810190610764919061337c565b611897565b6040516107769190613d45565b60405180910390f35b34801561078b57600080fd5b50610794611945565b6040516107a19190614184565b60405180910390f35b3480156107b657600080fd5b506107d160048036038101906107cc919061337c565b61194d565b005b3480156107df57600080fd5b506107e8611a45565b005b60006107f582611ad4565b9050919050565b610804611b4e565b73ffffffffffffffffffffffffffffffffffffffff1661082261114f565b73ffffffffffffffffffffffffffffffffffffffff1614610878576040517f08c379a000000000000000000000000000000000000000000000000000000000815260040161086f90614004565b60405180910390fd5b6001151581151514156108925761088d611b56565b61089b565b61089a611bf9565b5b50565b6060600080546108ad906144ec565b80601f01602080910402602001604051908101604052809291908181526020018280546108d9906144ec565b80156109265780601f106108fb57610100808354040283529160200191610926565b820191906000526020600020905b81548152906001019060200180831161090957829003601f168201915b5050505050905090565b600061093b82611c9b565b61097a576040517f08c379a000000000000000000000000000000000000000000000000000000000815260040161097190613fe4565b60405180910390fd5b6004600083815260200190815260200160002060009054906101000a900473ffffffffffffffffffffffffffffffffffffffff169050919050565b60006109c082610e2b565b90508073ffffffffffffffffffffffffffffffffffffffff168373ffffffffffffffffffffffffffffffffffffffff161415610a31576040517f08c379a0000000000000000000000000000000000000000000000000000000008152600401610a28906140a4565b60405180910390fd5b8073ffffffffffffffffffffffffffffffffffffffff16610a50611b4e565b73ffffffffffffffffffffffffffffffffffffffff161480610a7f5750610a7e81610a79611b4e565b611803565b5b610abe576040517f08c379a0000000000000000000000000000000000000000000000000000000008152600401610ab590613f64565b60405180910390fd5b610ac88383611d07565b505050565b6000600880549050905090565b610aeb610ae5611b4e565b82611dc0565b610b2a576040517f08c379a0000000000000000000000000000000000000000000000000000000008152600401610b21906140e4565b60405180910390fd5b610b35838383611e9e565b505050565b6000610b568266b1a2bc2ec500006120fa90919063ffffffff16565b9050919050565b6000610b6883610edd565b8210610ba9576040517f08c379a0000000000000000000000000000000000000000000000000000000008152600401610ba090613de4565b60405180910390fd5b600660008473ffffffffffffffffffffffffffffffffffffffff1673ffffffffffffffffffffffffffffffffffffffff168152602001908152602001600020600083815260200190815260200160002054905092915050565b610c1d838383604051806020016040528060008152506113e4565b505050565b610c33610c2d611b4e565b82611dc0565b610c72576040517f08c379a0000000000000000000000000000000000000000000000000000000008152600401610c6990614144565b60405180910390fd5b610c7b81612110565b50565b6000610c88610acd565b8210610cc9576040517f08c379a0000000000000000000000000000000000000000000000000000000008152600401610cc090614104565b60405180910390fd5b60088281548110610cdd57610cdc614685565b5b90600052602060002001549050919050565b610cf7611b4e565b73ffffffffffffffffffffffffffffffffffffffff16610d1561114f565b73ffffffffffffffffffffffffffffffffffffffff1614610d6b576040517f08c379a0000000000000000000000000000000000000000000000000000000008152600401610d6290614004565b60405180910390fd5b6101f4600e819055506005600f81905550565b610d86611b4e565b73ffffffffffffffffffffffffffffffffffffffff16610da461114f565b73ffffffffffffffffffffffffffffffffffffffff1614610dfa576040517f08c379a0000000000000000000000000000000000000000000000000000000008152600401610df190614004565b60405180910390fd5b8060109080519060200190610e109291906130dd565b5050565b6000600a60149054906101000a900460ff16905090565b6000806002600084815260200190815260200160002060009054906101000a900473ffffffffffffffffffffffffffffffffffffffff169050600073ffffffffffffffffffffffffffffffffffffffff168173ffffffffffffffffffffffffffffffffffffffff161415610ed4576040517f08c379a0000000000000000000000000000000000000000000000000000000008152600401610ecb90613fa4565b60405180910390fd5b80915050919050565b60008073ffffffffffffffffffffffffffffffffffffffff168273ffffffffffffffffffffffffffffffffffffffff161415610f4e576040517f08c379a0000000000000000000000000000000000000000000000000000000008152600401610f4590613f84565b60405180910390fd5b600360008373ffffffffffffffffffffffffffffffffffffffff1673ffffffffffffffffffffffffffffffffffffffff168152602001908152602001600020549050919050565b610f9d611b4e565b73ffffffffffffffffffffffffffffffffffffffff16610fbb61114f565b73ffffffffffffffffffffffffffffffffffffffff1614611011576040517f08c379a000000000000000000000000000000000000000000000000000000000815260040161100890614004565b60405180910390fd5b61101b6000612221565b565b6000600f54905090565b61102f611b4e565b73ffffffffffffffffffffffffffffffffffffffff1661104d61114f565b73ffffffffffffffffffffffffffffffffffffffff16146110a3576040517f08c379a000000000000000000000000000000000000000000000000000000000815260040161109a90614004565b60405180910390fd5b6000479050600081116110eb576040517f08c379a00000000000000000000000000000000000000000000000000000000081526004016110e290614084565b60405180910390fd5b61112f73a7482c9c5926e88d85804a969c383730ce10063961112a606461111c6003866120fa90919063ffffffff16565b6122e790919063ffffffff16565b6122fd565b61114c7281ad52ff7eb8b5165777aa6adcf7d80cbf647d476122fd565b50565b6000600a60009054906101000a900473ffffffffffffffffffffffffffffffffffffffff16905090565b606060018054611188906144ec565b80601f01602080910402602001604051908101604052809291908181526020018280546111b4906144ec565b80156112015780601f106111d657610100808354040283529160200191611201565b820191906000526020600020905b8154815290600101906020018083116111e457829003601f168201915b5050505050905090565b611213611b4e565b73ffffffffffffffffffffffffffffffffffffffff168273ffffffffffffffffffffffffffffffffffffffff161415611281576040517f08c379a000000000000000000000000000000000000000000000000000000000815260040161127890613f04565b60405180910390fd5b806005600061128e611b4e565b73ffffffffffffffffffffffffffffffffffffffff1673ffffffffffffffffffffffffffffffffffffffff16815260200190815260200160002060008473ffffffffffffffffffffffffffffffffffffffff1673ffffffffffffffffffffffffffffffffffffffff16815260200190815260200160002060006101000a81548160ff0219169083151502179055508173ffffffffffffffffffffffffffffffffffffffff1661133b611b4e565b73ffffffffffffffffffffffffffffffffffffffff167f17307eab39ab6107e8899845ad3d59bd9653f200f220920489ca2b5937696c31836040516113809190613d67565b60405180910390a35050565b6060600d8054806020026020016040519081016040528092919081815260200182805480156113da57602002820191906000526020600020905b8154815260200190600101908083116113c6575b5050505050905090565b6113f56113ef611b4e565b83611dc0565b611434576040517f08c379a000000000000000000000000000000000000000000000000000000000815260040161142b906140e4565b60405180910390fd5b611440848484846123ae565b50505050565b6000600e54905090565b606061145b82611c9b565b61149a576040517f08c379a000000000000000000000000000000000000000000000000000000000815260040161149190614044565b60405180910390fd5b60006114a461240a565b905060008151116114c457604051806020016040528060008152506114ef565b806114ce8461249c565b6040516020016114df929190613c7f565b6040516020818303038152906040525b915050919050565b73a7482c9c5926e88d85804a969c383730ce10063981565b600e5461151a6125fd565b111561155b576040517f08c379a000000000000000000000000000000000000000000000000000000000815260040161155290614164565b60405180910390fd5b61156361114f565b73ffffffffffffffffffffffffffffffffffffffff16611581611b4e565b73ffffffffffffffffffffffffffffffffffffffff16146115e5576115a4610e14565b156115e4576040517f08c379a00000000000000000000000000000000000000000000000000000000081526004016115db90613e24565b60405180910390fd5b5b60006115ef6125fd565b9050600e5482518261160191906142d9565b1115611642576040517f08c379a000000000000000000000000000000000000000000000000000000000815260040161163990613e44565b60405180910390fd5b600e54811115611687576040517f08c379a000000000000000000000000000000000000000000000000000000000815260040161167e90613ea4565b60405180910390fd5b600f54825111156116cd576040517f08c379a00000000000000000000000000000000000000000000000000000000081526004016116c4906140c4565b60405180910390fd5b6116d78251610b3a565b341015611719576040517f08c379a000000000000000000000000000000000000000000000000000000000815260040161171090614124565b60405180910390fd5b60005b82518110156117b95760001515600c60008584815181106117405761173f614685565b5b6020026020010151815260200190815260200160002060009054906101000a900460ff161515146117a6576040517f08c379a000000000000000000000000000000000000000000000000000000000815260040161179d90614064565b60405180910390fd5b80806117b19061454f565b91505061171c565b5060005b82518110156117fd576117ea848483815181106117dd576117dc614685565b5b602002602001015161260e565b80806117f59061454f565b9150506117bd565b50505050565b6000600560008473ffffffffffffffffffffffffffffffffffffffff1673ffffffffffffffffffffffffffffffffffffffff16815260200190815260200160002060008373ffffffffffffffffffffffffffffffffffffffff1673ffffffffffffffffffffffffffffffffffffffff16815260200190815260200160002060009054906101000a900460ff16905092915050565b606060006118a483610edd565b905060008167ffffffffffffffff8111156118c2576118c16146b4565b5b6040519080825280602002602001820160405280156118f05781602001602082028036833780820191505090505b50905060005b8281101561193a576119088582610b5d565b82828151811061191b5761191a614685565b5b60200260200101818152505080806119329061454f565b9150506118f6565b508092505050919050565b600047905090565b611955611b4e565b73ffffffffffffffffffffffffffffffffffffffff1661197361114f565b73ffffffffffffffffffffffffffffffffffffffff16146119c9576040517f08c379a00000000000000000000000000000000000000000000000000000000081526004016119c090614004565b60405180910390fd5b600073ffffffffffffffffffffffffffffffffffffffff168173ffffffffffffffffffffffffffffffffffffffff161415611a39576040517f08c379a0000000000000000000000000000000000000000000000000000000008152600401611a3090613e64565b60405180910390fd5b611a4281612221565b50565b611a4d611b4e565b73ffffffffffffffffffffffffffffffffffffffff16611a6b61114f565b73ffffffffffffffffffffffffffffffffffffffff1614611ac1576040517f08c379a0000000000000000000000000000000000000000000000000000000008152600401611ab890614004565b60405180910390fd5b612724600e819055506014600f81905550565b60007f780e9d63000000000000000000000000000000000000000000000000000000007bffffffffffffffffffffffffffffffffffffffffffffffffffffffff1916827bffffffffffffffffffffffffffffffffffffffffffffffffffffffff19161480611b475750611b46826126b3565b5b9050919050565b600033905090565b611b5e610e14565b15611b9e576040517f08c379a0000000000000000000000000000000000000000000000000000000008152600401611b9590613f44565b60405180910390fd5b6001600a60146101000a81548160ff0219169083151502179055507f62e78cea01bee320cd4e420270b5ea74000d11b0c9f74754ebdbfc544b05a258611be2611b4e565b604051611bef9190613cc3565b60405180910390a1565b611c01610e14565b611c40576040517f08c379a0000000000000000000000000000000000000000000000000000000008152600401611c3790613dc4565b60405180910390fd5b6000600a60146101000a81548160ff0219169083151502179055507f5db9ee0a495bf2e6ff9c91a7834c1ba4fdd244a5e8aa4e537bd38aeae4b073aa611c84611b4e565b604051611c919190613cc3565b60405180910390a1565b60008073ffffffffffffffffffffffffffffffffffffffff166002600084815260200190815260200160002060009054906101000a900473ffffffffffffffffffffffffffffffffffffffff1673ffffffffffffffffffffffffffffffffffffffff1614159050919050565b816004600083815260200190815260200160002060006101000a81548173ffffffffffffffffffffffffffffffffffffffff021916908373ffffffffffffffffffffffffffffffffffffffff160217905550808273ffffffffffffffffffffffffffffffffffffffff16611d7a83610e2b565b73ffffffffffffffffffffffffffffffffffffffff167f8c5be1e5ebec7d5bd14f71427d1e84f3dd0314c0f7b2291e5b200ac8c7c3b92560405160405180910390a45050565b6000611dcb82611c9b565b611e0a576040517f08c379a0000000000000000000000000000000000000000000000000000000008152600401611e0190613f24565b60405180910390fd5b6000611e1583610e2b565b90508073ffffffffffffffffffffffffffffffffffffffff168473ffffffffffffffffffffffffffffffffffffffff161480611e8457508373ffffffffffffffffffffffffffffffffffffffff16611e6c84610930565b73ffffffffffffffffffffffffffffffffffffffff16145b80611e955750611e948185611803565b5b91505092915050565b8273ffffffffffffffffffffffffffffffffffffffff16611ebe82610e2b565b73ffffffffffffffffffffffffffffffffffffffff1614611f14576040517f08c379a0000000000000000000000000000000000000000000000000000000008152600401611f0b90614024565b60405180910390fd5b600073ffffffffffffffffffffffffffffffffffffffff168273ffffffffffffffffffffffffffffffffffffffff161415611f84576040517f08c379a0000000000000000000000000000000000000000000000000000000008152600401611f7b90613ee4565b60405180910390fd5b611f8f838383612795565b611f9a600082611d07565b6001600360008573ffffffffffffffffffffffffffffffffffffffff1673ffffffffffffffffffffffffffffffffffffffff1681526020019081526020016000206000828254611fea91906143ba565b925050819055506001600360008473ffffffffffffffffffffffffffffffffffffffff1673ffffffffffffffffffffffffffffffffffffffff168152602001908152602001600020600082825461204191906142d9565b92505081905550816002600083815260200190815260200160002060006101000a81548173ffffffffffffffffffffffffffffffffffffffff021916908373ffffffffffffffffffffffffffffffffffffffff160217905550808273ffffffffffffffffffffffffffffffffffffffff168473ffffffffffffffffffffffffffffffffffffffff167fddf252ad1be2c89b69c2b068fc378daa952ba7f163c4a11628f55a4df523b3ef60405160405180910390a4505050565b600081836121089190614360565b905092915050565b600061211b82610e2b565b905061212981600084612795565b612134600083611d07565b6001600360008373ffffffffffffffffffffffffffffffffffffffff1673ffffffffffffffffffffffffffffffffffffffff168152602001908152602001600020600082825461218491906143ba565b925050819055506002600083815260200190815260200160002060006101000a81549073ffffffffffffffffffffffffffffffffffffffff021916905581600073ffffffffffffffffffffffffffffffffffffffff168273ffffffffffffffffffffffffffffffffffffffff167fddf252ad1be2c89b69c2b068fc378daa952ba7f163c4a11628f55a4df523b3ef60405160405180910390a45050565b6000600a60009054906101000a900473ffffffffffffffffffffffffffffffffffffffff16905081600a60006101000a81548173ffffffffffffffffffffffffffffffffffffffff021916908373ffffffffffffffffffffffffffffffffffffffff1602179055508173ffffffffffffffffffffffffffffffffffffffff168173ffffffffffffffffffffffffffffffffffffffff167f8be0079c531659141344cd1fd0a4f28419497f9722a3daafe3b4186f6b6457e060405160405180910390a35050565b600081836122f5919061432f565b905092915050565b60008273ffffffffffffffffffffffffffffffffffffffff168260405161232390613cae565b60006040518083038185875af1925050503d8060008114612360576040519150601f19603f3d011682016040523d82523d6000602084013e612365565b606091505b50509050806123a9576040517f08c379a00000000000000000000000000000000000000000000000000000000081526004016123a090613ec4565b60405180910390fd5b505050565b6123b9848484611e9e565b6123c5848484846127a5565b612404576040517f08c379a00000000000000000000000000000000000000000000000000000000081526004016123fb90613e04565b60405180910390fd5b50505050565b606060108054612419906144ec565b80601f0160208091040260200160405190810160405280929190818152602001828054612445906144ec565b80156124925780601f1061246757610100808354040283529160200191612492565b820191906000526020600020905b81548152906001019060200180831161247557829003601f168201915b5050505050905090565b606060008214156124e4576040518060400160405280600181526020017f300000000000000000000000000000000000000000000000000000000000000081525090506125f8565b600082905060005b600082146125165780806124ff9061454f565b915050600a8261250f919061432f565b91506124ec565b60008167ffffffffffffffff811115612532576125316146b4565b5b6040519080825280601f01601f1916602001820160405280156125645781602001600182028036833780820191505090505b5090505b600085146125f15760018261257d91906143ba565b9150600a8561258c9190614598565b603061259891906142d9565b60f81b8183815181106125ae576125ad614685565b5b60200101907effffffffffffffffffffffffffffffffffffffffffffffffffffffffffffff1916908160001a905350600a856125ea919061432f565b9450612568565b8093505050505b919050565b6000612609600b61293c565b905090565b612618600b61294a565b6126228282612960565b6001600c600083815260200190815260200160002060006101000a81548160ff021916908315150217905550600d819080600181540180825580915050600190039060005260206000200160009091909190915055807fa5cd68f916ffd1e340e44f6cf04dd86bd827e78c04fecf1cfd5cce08608d762e836040516126a79190613cde565b60405180910390a25050565b60007f80ac58cd000000000000000000000000000000000000000000000000000000007bffffffffffffffffffffffffffffffffffffffffffffffffffffffff1916827bffffffffffffffffffffffffffffffffffffffffffffffffffffffff1916148061277e57507f5b5e139f000000000000000000000000000000000000000000000000000000007bffffffffffffffffffffffffffffffffffffffffffffffffffffffff1916827bffffffffffffffffffffffffffffffffffffffffffffffffffffffff1916145b8061278e575061278d8261297e565b5b9050919050565b6127a08383836129e8565b505050565b60006127c68473ffffffffffffffffffffffffffffffffffffffff16612a82565b1561292f578373ffffffffffffffffffffffffffffffffffffffff1663150b7a026127ef611b4e565b8786866040518563ffffffff1660e01b81526004016128119493929190613cf9565b602060405180830381600087803b15801561282b57600080fd5b505af192505050801561285c57506040513d601f19601f8201168201806040525081019061285991906135f5565b60015b6128df573d806000811461288c576040519150601f19603f3d011682016040523d82523d6000602084013e612891565b606091505b506000815114156128d7576040517f08c379a00000000000000000000000000000000000000000000000000000000081526004016128ce90613e04565b60405180910390fd5b805181602001fd5b63150b7a0260e01b7bffffffffffffffffffffffffffffffffffffffffffffffffffffffff1916817bffffffffffffffffffffffffffffffffffffffffffffffffffffffff191614915050612934565b600190505b949350505050565b600081600001549050919050565b6001816000016000828254019250508190555050565b61297a828260405180602001604052806000815250612a95565b5050565b60007f01ffc9a7000000000000000000000000000000000000000000000000000000007bffffffffffffffffffffffffffffffffffffffffffffffffffffffff1916827bffffffffffffffffffffffffffffffffffffffffffffffffffffffff1916149050919050565b6129f3838383612af0565b6129fb61114f565b73ffffffffffffffffffffffffffffffffffffffff16612a19611b4e565b73ffffffffffffffffffffffffffffffffffffffff1614612a7d57612a3c610e14565b15612a7c576040517f08c379a0000000000000000000000000000000000000000000000000000000008152600401612a7390613da4565b60405180910390fd5b5b505050565b600080823b905060008111915050919050565b612a9f8383612c04565b612aac60008484846127a5565b612aeb576040517f08c379a0000000000000000000000000000000000000000000000000000000008152600401612ae290613e04565b60405180910390fd5b505050565b612afb838383612dd2565b600073ffffffffffffffffffffffffffffffffffffffff168373ffffffffffffffffffffffffffffffffffffffff161415612b3e57612b3981612dd7565b612b7d565b8173ffffffffffffffffffffffffffffffffffffffff168373ffffffffffffffffffffffffffffffffffffffff1614612b7c57612b7b8382612e20565b5b5b600073ffffffffffffffffffffffffffffffffffffffff168273ffffffffffffffffffffffffffffffffffffffff161415612bc057612bbb81612f8d565b612bff565b8273ffffffffffffffffffffffffffffffffffffffff168273ffffffffffffffffffffffffffffffffffffffff1614612bfe57612bfd828261305e565b5b5b505050565b600073ffffffffffffffffffffffffffffffffffffffff168273ffffffffffffffffffffffffffffffffffffffff161415612c74576040517f08c379a0000000000000000000000000000000000000000000000000000000008152600401612c6b90613fc4565b60405180910390fd5b612c7d81611c9b565b15612cbd576040517f08c379a0000000000000000000000000000000000000000000000000000000008152600401612cb490613e84565b60405180910390fd5b612cc960008383612795565b6001600360008473ffffffffffffffffffffffffffffffffffffffff1673ffffffffffffffffffffffffffffffffffffffff1681526020019081526020016000206000828254612d1991906142d9565b92505081905550816002600083815260200190815260200160002060006101000a81548173ffffffffffffffffffffffffffffffffffffffff021916908373ffffffffffffffffffffffffffffffffffffffff160217905550808273ffffffffffffffffffffffffffffffffffffffff16600073ffffffffffffffffffffffffffffffffffffffff167fddf252ad1be2c89b69c2b068fc378daa952ba7f163c4a11628f55a4df523b3ef60405160405180910390a45050565b505050565b6008805490506009600083815260200190815260200160002081905550600881908060018154018082558091505060019003906000526020600020016000909190919091505550565b60006001612e2d84610edd565b612e3791906143ba565b9050600060076000848152602001908152602001600020549050818114612f1c576000600660008673ffffffffffffffffffffffffffffffffffffffff1673ffffffffffffffffffffffffffffffffffffffff168152602001908152602001600020600084815260200190815260200160002054905080600660008773ffffffffffffffffffffffffffffffffffffffff1673ffffffffffffffffffffffffffffffffffffffff168152602001908152602001600020600084815260200190815260200160002081905550816007600083815260200190815260200160002081905550505b6007600084815260200190815260200160002060009055600660008573ffffffffffffffffffffffffffffffffffffffff1673ffffffffffffffffffffffffffffffffffffffff16815260200190815260200160002060008381526020019081526020016000206000905550505050565b60006001600880549050612fa191906143ba565b9050600060096000848152602001908152602001600020549050600060088381548110612fd157612fd0614685565b5b906000526020600020015490508060088381548110612ff357612ff2614685565b5b90600052602060002001819055508160096000838152602001908152602001600020819055506009600085815260200190815260200160002060009055600880548061304257613041614656565b5b6001900381819060005260206000200160009055905550505050565b600061306983610edd565b905081600660008573ffffffffffffffffffffffffffffffffffffffff1673ffffffffffffffffffffffffffffffffffffffff168152602001908152602001600020600083815260200190815260200160002081905550806007600084815260200190815260200160002081905550505050565b8280546130e9906144ec565b90600052602060002090601f01602090048101928261310b5760008555613152565b82601f1061312457805160ff1916838001178555613152565b82800160010185558215613152579182015b82811115613151578251825591602001919060010190613136565b5b50905061315f9190613163565b5090565b5b8082111561317c576000816000905550600101613164565b5090565b600061319361318e846141c4565b61419f565b905080838252602082019050828560208602820111156131b6576131b56146e8565b5b60005b858110156131e657816131cc8882613367565b8452602084019350602083019250506001810190506131b9565b5050509392505050565b60006132036131fe846141f0565b61419f565b90508281526020810184848401111561321f5761321e6146ed565b5b61322a8482856144aa565b509392505050565b600061324561324084614221565b61419f565b905082815260208101848484011115613261576132606146ed565b5b61326c8482856144aa565b509392505050565b60008135905061328381614f4e565b92915050565b60008135905061329881614f65565b92915050565b600082601f8301126132b3576132b26146e3565b5b81356132c3848260208601613180565b91505092915050565b6000813590506132db81614f7c565b92915050565b6000813590506132f081614f93565b92915050565b60008151905061330581614f93565b92915050565b600082601f8301126133205761331f6146e3565b5b81356133308482602086016131f0565b91505092915050565b600082601f83011261334e5761334d6146e3565b5b813561335e848260208601613232565b91505092915050565b60008135905061337681614faa565b92915050565b600060208284031215613392576133916146f7565b5b60006133a084828501613274565b91505092915050565b600080604083850312156133c0576133bf6146f7565b5b60006133ce85828601613289565b925050602083013567ffffffffffffffff8111156133ef576133ee6146f2565b5b6133fb8582860161329e565b9150509250929050565b6000806040838503121561341c5761341b6146f7565b5b600061342a85828601613274565b925050602061343b85828601613274565b9150509250929050565b60008060006060848603121561345e5761345d6146f7565b5b600061346c86828701613274565b935050602061347d86828701613274565b925050604061348e86828701613367565b9150509250925092565b600080600080608085870312156134b2576134b16146f7565b5b60006134c087828801613274565b94505060206134d187828801613274565b93505060406134e287828801613367565b925050606085013567ffffffffffffffff811115613503576135026146f2565b5b61350f8782880161330b565b91505092959194509250565b60008060408385031215613532576135316146f7565b5b600061354085828601613274565b9250506020613551858286016132cc565b9150509250929050565b60008060408385031215613572576135716146f7565b5b600061358085828601613274565b925050602061359185828601613367565b9150509250929050565b6000602082840312156135b1576135b06146f7565b5b60006135bf848285016132cc565b91505092915050565b6000602082840312156135de576135dd6146f7565b5b60006135ec848285016132e1565b91505092915050565b60006020828403121561360b5761360a6146f7565b5b6000613619848285016132f6565b91505092915050565b600060208284031215613638576136376146f7565b5b600082013567ffffffffffffffff811115613656576136556146f2565b5b61366284828501613339565b91505092915050565b600060208284031215613681576136806146f7565b5b600061368f84828501613367565b91505092915050565b60006136a48383613c61565b60208301905092915050565b6136b981614474565b82525050565b6136c8816143ee565b82525050565b60006136d982614262565b6136e38185614290565b93506136ee83614252565b8060005b8381101561371f5781516137068882613698565b975061371183614283565b9250506001810190506136f2565b5085935050505092915050565b61373581614412565b82525050565b60006137468261426d565b61375081856142a1565b93506137608185602086016144b9565b613769816146fc565b840191505092915050565b600061377f82614278565b61378981856142bd565b93506137998185602086016144b9565b6137a2816146fc565b840191505092915050565b60006137b882614278565b6137c281856142ce565b93506137d28185602086016144b9565b80840191505092915050565b60006137eb602b836142bd565b91506137f68261470d565b604082019050919050565b600061380e6014836142bd565b91506138198261475c565b602082019050919050565b6000613831602b836142bd565b915061383c82614785565b604082019050919050565b60006138546032836142bd565b915061385f826147d4565b604082019050919050565b60006138776010836142bd565b915061388282614823565b602082019050919050565b600061389a6032836142bd565b91506138a58261484c565b604082019050919050565b60006138bd6026836142bd565b91506138c88261489b565b604082019050919050565b60006138e0601c836142bd565b91506138eb826148ea565b602082019050919050565b60006139036036836142bd565b915061390e82614913565b604082019050919050565b6000613926601a836142bd565b915061393182614962565b602082019050919050565b60006139496024836142bd565b91506139548261498b565b604082019050919050565b600061396c6019836142bd565b9150613977826149da565b602082019050919050565b600061398f602c836142bd565b915061399a82614a03565b604082019050919050565b60006139b26010836142bd565b91506139bd82614a52565b602082019050919050565b60006139d56038836142bd565b91506139e082614a7b565b604082019050919050565b60006139f8602a836142bd565b9150613a0382614aca565b604082019050919050565b6000613a1b6029836142bd565b9150613a2682614b19565b604082019050919050565b6000613a3e6020836142bd565b9150613a4982614b68565b602082019050919050565b6000613a61602c836142bd565b9150613a6c82614b91565b604082019050919050565b6000613a846005836142ce565b9150613a8f82614be0565b600582019050919050565b6000613aa76020836142bd565b9150613ab282614c09565b602082019050919050565b6000613aca6029836142bd565b9150613ad582614c32565b604082019050919050565b6000613aed602f836142bd565b9150613af882614c81565b604082019050919050565b6000613b10603a836142bd565b9150613b1b82614cd0565b604082019050919050565b6000613b336020836142bd565b9150613b3e82614d1f565b602082019050919050565b6000613b566021836142bd565b9150613b6182614d48565b604082019050919050565b6000613b796000836142b2565b9150613b8482614d97565b600082019050919050565b6000613b9c602f836142bd565b9150613ba782614d9a565b604082019050919050565b6000613bbf6031836142bd565b9150613bca82614de9565b604082019050919050565b6000613be2602c836142bd565b9150613bed82614e38565b604082019050919050565b6000613c05603f836142bd565b9150613c1082614e87565b604082019050919050565b6000613c286030836142bd565b9150613c3382614ed6565b604082019050919050565b6000613c4b600f836142bd565b9150613c5682614f25565b602082019050919050565b613c6a8161446a565b82525050565b613c798161446a565b82525050565b6000613c8b82856137ad565b9150613c9782846137ad565b9150613ca282613a77565b91508190509392505050565b6000613cb982613b6c565b9150819050919050565b6000602082019050613cd860008301846136bf565b92915050565b6000602082019050613cf360008301846136b0565b92915050565b6000608082019050613d0e60008301876136bf565b613d1b60208301866136bf565b613d286040830185613c70565b8181036060830152613d3a818461373b565b905095945050505050565b60006020820190508181036000830152613d5f81846136ce565b905092915050565b6000602082019050613d7c600083018461372c565b92915050565b60006020820190508181036000830152613d9c8184613774565b905092915050565b60006020820190508181036000830152613dbd816137de565b9050919050565b60006020820190508181036000830152613ddd81613801565b9050919050565b60006020820190508181036000830152613dfd81613824565b9050919050565b60006020820190508181036000830152613e1d81613847565b9050919050565b60006020820190508181036000830152613e3d8161386a565b9050919050565b60006020820190508181036000830152613e5d8161388d565b9050919050565b60006020820190508181036000830152613e7d816138b0565b9050919050565b60006020820190508181036000830152613e9d816138d3565b9050919050565b60006020820190508181036000830152613ebd816138f6565b9050919050565b60006020820190508181036000830152613edd81613919565b9050919050565b60006020820190508181036000830152613efd8161393c565b9050919050565b60006020820190508181036000830152613f1d8161395f565b9050919050565b60006020820190508181036000830152613f3d81613982565b9050919050565b60006020820190508181036000830152613f5d816139a5565b9050919050565b60006020820190508181036000830152613f7d816139c8565b9050919050565b60006020820190508181036000830152613f9d816139eb565b9050919050565b60006020820190508181036000830152613fbd81613a0e565b9050919050565b60006020820190508181036000830152613fdd81613a31565b9050919050565b60006020820190508181036000830152613ffd81613a54565b9050919050565b6000602082019050818103600083015261401d81613a9a565b9050919050565b6000602082019050818103600083015261403d81613abd565b9050919050565b6000602082019050818103600083015261405d81613ae0565b9050919050565b6000602082019050818103600083015261407d81613b03565b9050919050565b6000602082019050818103600083015261409d81613b26565b9050919050565b600060208201905081810360008301526140bd81613b49565b9050919050565b600060208201905081810360008301526140dd81613b8f565b9050919050565b600060208201905081810360008301526140fd81613bb2565b9050919050565b6000602082019050818103600083015261411d81613bd5565b9050919050565b6000602082019050818103600083015261413d81613bf8565b9050919050565b6000602082019050818103600083015261415d81613c1b565b9050919050565b6000602082019050818103600083015261417d81613c3e565b9050919050565b60006020820190506141996000830184613c70565b92915050565b60006141a96141ba565b90506141b5828261451e565b919050565b6000604051905090565b600067ffffffffffffffff8211156141df576141de6146b4565b5b602082029050602081019050919050565b600067ffffffffffffffff82111561420b5761420a6146b4565b5b614214826146fc565b9050602081019050919050565b600067ffffffffffffffff82111561423c5761423b6146b4565b5b614245826146fc565b9050602081019050919050565b6000819050602082019050919050565b600081519050919050565b600081519050919050565b600081519050919050565b6000602082019050919050565b600082825260208201905092915050565b600082825260208201905092915050565b600081905092915050565b600082825260208201905092915050565b600081905092915050565b60006142e48261446a565b91506142ef8361446a565b9250827fffffffffffffffffffffffffffffffffffffffffffffffffffffffffffffffff03821115614324576143236145c9565b5b828201905092915050565b600061433a8261446a565b91506143458361446a565b925082614355576143546145f8565b5b828204905092915050565b600061436b8261446a565b91506143768361446a565b9250817fffffffffffffffffffffffffffffffffffffffffffffffffffffffffffffffff04831182151516156143af576143ae6145c9565b5b828202905092915050565b60006143c58261446a565b91506143d08361446a565b9250828210156143e3576143e26145c9565b5b828203905092915050565b60006143f98261444a565b9050919050565b600061440b8261444a565b9050919050565b60008115159050919050565b60007fffffffff0000000000000000000000000000000000000000000000000000000082169050919050565b600073ffffffffffffffffffffffffffffffffffffffff82169050919050565b6000819050919050565b600061447f82614486565b9050919050565b600061449182614498565b9050919050565b60006144a38261444a565b9050919050565b82818337600083830152505050565b60005b838110156144d75780820151818401526020810190506144bc565b838111156144e6576000848401525b50505050565b6000600282049050600182168061450457607f821691505b6020821081141561451857614517614627565b5b50919050565b614527826146fc565b810181811067ffffffffffffffff82111715614546576145456146b4565b5b80604052505050565b600061455a8261446a565b91507fffffffffffffffffffffffffffffffffffffffffffffffffffffffffffffffff82141561458d5761458c6145c9565b5b600182019050919050565b60006145a38261446a565b91506145ae8361446a565b9250826145be576145bd6145f8565b5b828206905092915050565b7f4e487b7100000000000000000000000000000000000000000000000000000000600052601160045260246000fd5b7f4e487b7100000000000000000000000000000000000000000000000000000000600052601260045260246000fd5b7f4e487b7100000000000000000000000000000000000000000000000000000000600052602260045260246000fd5b7f4e487b7100000000000000000000000000000000000000000000000000000000600052603160045260246000fd5b7f4e487b7100000000000000000000000000000000000000000000000000000000600052603260045260246000fd5b7f4e487b7100000000000000000000000000000000000000000000000000000000600052604160045260246000fd5b600080fd5b600080fd5b600080fd5b600080fd5b600080fd5b6000601f19601f8301169050919050565b7f4552433732315061757361626c653a20746f6b656e207472616e73666572207760008201527f68696c6520706175736564000000000000000000000000000000000000000000602082015250565b7f5061757361626c653a206e6f7420706175736564000000000000000000000000600082015250565b7f455243373231456e756d657261626c653a206f776e657220696e646578206f7560008201527f74206f6620626f756e6473000000000000000000000000000000000000000000602082015250565b7f4552433732313a207472616e7366657220746f206e6f6e20455243373231526560008201527f63656976657220696d706c656d656e7465720000000000000000000000000000602082015250565b7f5041555341424c453a2050617573656400000000000000000000000000000000600082015250565b7f4d494e543a2043757272656e7420636f756e742065786365656473206d61786960008201527f6d756d20656c656d656e7420636f756e742e0000000000000000000000000000602082015250565b7f4f776e61626c653a206e6577206f776e657220697320746865207a65726f206160008201527f6464726573730000000000000000000000000000000000000000000000000000602082015250565b7f4552433732313a20746f6b656e20616c7265616479206d696e74656400000000600082015250565b7f4d494e543a20506c6561736520676f20746f20746865204f70656e736561207460008201527f6f206275792043727970746f204174686c657465732e00000000000000000000602082015250565b7f57495448445241573a205472616e73666572206661696c65642e000000000000600082015250565b7f4552433732313a207472616e7366657220746f20746865207a65726f2061646460008201527f7265737300000000000000000000000000000000000000000000000000000000602082015250565b7f4552433732313a20617070726f766520746f2063616c6c657200000000000000600082015250565b7f4552433732313a206f70657261746f7220717565727920666f72206e6f6e657860008201527f697374656e7420746f6b656e0000000000000000000000000000000000000000602082015250565b7f5061757361626c653a2070617573656400000000000000000000000000000000600082015250565b7f4552433732313a20617070726f76652063616c6c6572206973206e6f74206f7760008201527f6e6572206e6f7220617070726f76656420666f7220616c6c0000000000000000602082015250565b7f4552433732313a2062616c616e636520717565727920666f7220746865207a6560008201527f726f206164647265737300000000000000000000000000000000000000000000602082015250565b7f4552433732313a206f776e657220717565727920666f72206e6f6e657869737460008201527f656e7420746f6b656e0000000000000000000000000000000000000000000000602082015250565b7f4552433732313a206d696e7420746f20746865207a65726f2061646472657373600082015250565b7f4552433732313a20617070726f76656420717565727920666f72206e6f6e657860008201527f697374656e7420746f6b656e0000000000000000000000000000000000000000602082015250565b7f2e6a736f6e000000000000000000000000000000000000000000000000000000600082015250565b7f4f776e61626c653a2063616c6c6572206973206e6f7420746865206f776e6572600082015250565b7f4552433732313a207472616e73666572206f6620746f6b656e2074686174206960008201527f73206e6f74206f776e0000000000000000000000000000000000000000000000602082015250565b7f4552433732314d657461646174613a2055524920717565727920666f72206e6f60008201527f6e6578697374656e7420746f6b656e0000000000000000000000000000000000602082015250565b7f4d494e543a2054686f73652069647320616c726561647920686176652062656560008201527f6e207573656420666f72206f7468657220637573746f6d657273000000000000602082015250565b7f57495448445241573a204e6f2062616c616e636520696e20636f6e7472616374600082015250565b7f4552433732313a20617070726f76616c20746f2063757272656e74206f776e6560008201527f7200000000000000000000000000000000000000000000000000000000000000602082015250565b50565b7f4d494e543a2043757272656e7420636f756e742065786365656473206d61786960008201527f6d756d206d696e7420636f756e742e0000000000000000000000000000000000602082015250565b7f4552433732313a207472616e736665722063616c6c6572206973206e6f74206f60008201527f776e6572206e6f7220617070726f766564000000000000000000000000000000602082015250565b7f455243373231456e756d657261626c653a20676c6f62616c20696e646578206f60008201527f7574206f6620626f756e64730000000000000000000000000000000000000000602082015250565b7f4d494e543a2043757272656e742076616c75652069732062656c6f772074686560008201527f2073616c6573207072696365206f662043727970746f204174686c6574657300602082015250565b7f4552433732314275726e61626c653a2063616c6c6572206973206e6f74206f7760008201527f6e6572206e6f7220617070726f76656400000000000000000000000000000000602082015250565b7f53414c45533a2053616c6520656e640000000000000000000000000000000000600082015250565b614f57816143ee565b8114614f6257600080fd5b50565b614f6e81614400565b8114614f7957600080fd5b50565b614f8581614412565b8114614f9057600080fd5b50565b614f9c8161441e565b8114614fa757600080fd5b50565b614fb38161446a565b8114614fbe57600080fd5b5056fea264697066735822122072bf636dd45da4f51770f795f826686d28b3df94b9a0ce5ef01752caf450d26b64736f6c63430008070033",
  "immutableReferences": {},
  "source": "// SPDX-License-Identifier: MIT\r\n\r\npragma solidity ^0.8.7;\r\n\r\nimport \"@openzeppelin/contracts/token/ERC721/ERC721.sol\";\r\nimport \"@openzeppelin/contracts/token/ERC721/extensions/ERC721Enumerable.sol\";\r\nimport \"@openzeppelin/contracts/token/ERC721/extensions/ERC721Burnable.sol\";\r\nimport \"@openzeppelin/contracts/access/Ownable.sol\";\r\nimport \"@openzeppelin/contracts/utils/math/SafeMath.sol\";\r\nimport \"@openzeppelin/contracts/utils/Counters.sol\";\r\nimport \"./ERC721Pausable.sol\";\r\n\r\ncontract CryptoAthletes is ERC721Enumerable, Ownable, ERC721Burnable, ERC721Pausable {\r\n\r\n    using SafeMath for uint256;\r\n    using Counters for Counters.Counter;\r\n\r\n    Counters.Counter private _tokenIdTracker;\r\n\r\n    uint256 private constant PRICE_PER_CA = 5 * 10**16; // 0.05ETH Per Crypto Athletes\r\n\r\n    uint256 private constant MAX_ELEMENTS_CROWDSALE = 1 * 10**4 + 20; // 10020 Crypto Athletes in CrowdSale\r\n    uint256 private constant MAX_ELEMENTS_PRESALE = 5 * 10**2; // 500 Crypto Athletes in PreSale\r\n\r\n    uint256 private constant MAX_MINT_CROWDSALE = 20; // Upper Limit is 10 in CrowdSale\r\n    uint256 private constant MAX_MINT_PRESALE = 5; // Upper Limit is 2 in PreSale\r\n\r\n    address private constant ownerAddress = 0x0081aD52FF7Eb8B5165777aa6adCf7d80cBF647D; // Wallet Address of Owner\r\n    address public constant developerAddress = 0xA7482C9c5926E88d85804A969c383730Ce100639; // Wallet Address of the Cory\r\n\r\n    mapping(uint256 => bool) private _isOccupiedId;\r\n    uint256[] private _occupiedList;\r\n\r\n    uint256 private maxSalesAmount;\r\n    uint256 private maxMintAmount;\r\n\r\n    string private baseTokenURI;\r\n\r\n    event CreateCryptoAthletes(address to, uint256 indexed id);\r\n\r\n    modifier saleIsOpen {\r\n        require(_totalSupply() <= maxSalesAmount, \"SALES: Sale end\");\r\n\r\n        if (_msgSender() != owner()) {\r\n            require(!paused(), \"PAUSABLE: Paused\");\r\n        }\r\n        _;\r\n    }\r\n\r\n    constructor (string memory baseURI) ERC721(\"CryptoAthletes\", \"CATH\") {\r\n        setBaseURI(baseURI);\r\n        pause(true);\r\n\r\n        maxSalesAmount = MAX_ELEMENTS_CROWDSALE;\r\n        maxMintAmount = MAX_MINT_CROWDSALE;\r\n    }\r\n\r\n    function mint(address payable _to, uint256[] memory _ids) public payable saleIsOpen {\r\n        uint256 total = _totalSupply();\r\n\r\n        require(total + _ids.length <= maxSalesAmount, \"MINT: Current count exceeds maximum element count.\");\r\n        require(total <= maxSalesAmount, \"MINT: Please go to the Opensea to buy Crypto Athletes.\");\r\n        require(_ids.length <= maxMintAmount, \"MINT: Current count exceeds maximum mint count.\");\r\n        require(msg.value >= price(_ids.length), \"MINT: Current value is below the sales price of Crypto Athletes\");\r\n\r\n        for (uint256 i = 0; i < _ids.length; i++) {\r\n            require(_isOccupiedId[_ids[i]] == false, \"MINT: Those ids already have been used for other customers\");\r\n        }\r\n\r\n        for (uint256 i = 0; i < _ids.length; i++) {\r\n            _mintAnElement(_to, _ids[i]);\r\n        }\r\n    }\r\n\r\n    function _mintAnElement(address payable _to, uint256 _id) private {\r\n        _tokenIdTracker.increment();\r\n        _safeMint(_to, _id);\r\n        _isOccupiedId[_id] = true;\r\n        _occupiedList.push(_id);\r\n\r\n        emit CreateCryptoAthletes(_to, _id);\r\n    }\r\n\r\n    function setBaseURI(string memory baseURI) public onlyOwner {\r\n        baseTokenURI = baseURI;\r\n    }\r\n\r\n    function startPreSale() public onlyOwner {\r\n        maxSalesAmount = MAX_ELEMENTS_PRESALE;\r\n        maxMintAmount = MAX_MINT_PRESALE;\r\n    }\r\n\r\n    function stopPreSale() public onlyOwner {\r\n        maxSalesAmount = MAX_ELEMENTS_CROWDSALE;\r\n        maxMintAmount = MAX_MINT_CROWDSALE;\r\n    }\r\n\r\n    function _baseURI() internal view virtual override returns (string memory) {\r\n        return baseTokenURI;\r\n    }\r\n\r\n    function price(uint256 _count) public pure returns (uint256) {\r\n        return PRICE_PER_CA.mul(_count);\r\n    }\r\n\r\n    function _totalSupply() internal view returns (uint) {\r\n        return _tokenIdTracker.current();\r\n    }\r\n\r\n    function occupiedList() public view returns (uint256[] memory) {\r\n      return _occupiedList;\r\n    }\r\n\r\n    function maxMint() public view returns (uint256) {\r\n        return maxMintAmount;\r\n    }\r\n\r\n    function maxSales() public view returns (uint256) {\r\n        return maxSalesAmount;\r\n    }\r\n\r\n    function raised() public view returns (uint256) {\r\n        return address(this).balance;\r\n    }\r\n\r\n    function getTokenIdsOfWallet(address _owner) external view returns (uint256[] memory) {\r\n        uint256 tokenCount = balanceOf(_owner);\r\n\r\n        uint256[] memory tokensId = new uint256[](tokenCount);\r\n\r\n        for (uint256 i = 0; i < tokenCount; i++) {\r\n            tokensId[i] = tokenOfOwnerByIndex(_owner, i);\r\n        }\r\n\r\n        return tokensId;\r\n    }\r\n\r\n    function pause(bool value) public onlyOwner {\r\n        if (value == true) {\r\n            _pause();\r\n\r\n            return;\r\n        }\r\n\r\n        _unpause();\r\n    }\r\n\r\n    function withdrawAll() public payable onlyOwner {\r\n        uint256 balance = address(this).balance;\r\n        require(balance > 0, \"WITHDRAW: No balance in contract\");\r\n\r\n        _widthdraw(developerAddress, balance.mul(3).div(100));\r\n        _widthdraw(ownerAddress, address(this).balance);\r\n    }\r\n\r\n    function _widthdraw(address _address, uint256 _amount) private {\r\n        (bool success, ) = _address.call{value: _amount}(\"\");\r\n        require(success, \"WITHDRAW: Transfer failed.\");\r\n    }\r\n\r\n    function _beforeTokenTransfer(\r\n        address from,\r\n        address to,\r\n        uint256 tokenId\r\n    ) internal virtual override(ERC721, ERC721Enumerable, ERC721Pausable) {\r\n        super._beforeTokenTransfer(from, to, tokenId);\r\n    }\r\n\r\n    function supportsInterface(bytes4 interfaceId) public view virtual override(ERC721, ERC721Enumerable) returns (bool) {\r\n        return super.supportsInterface(interfaceId);\r\n    }\r\n}",
  "sourcePath": "F:\\Cory_Career\\Crypto_Athletes\\crypto-athletes-s1-website\\contracts\\CryptoAthletes.sol",
  "compiler": {
    "name": "solc",
    "version": "0.8.7+commit.e28d00a7.Emscripten.clang"
  },
  "schemaVersion": "3.4.3",
  "updatedAt": "2021-09-25T20:36:13.646Z",
  "networkType": "ethereum",
  "devdoc": {
    "kind": "dev",
    "methods": {
      "approve(address,uint256)": {
        "details": "See {IERC721-approve}."
      },
      "balanceOf(address)": {
        "details": "See {IERC721-balanceOf}."
      },
      "burn(uint256)": {
        "details": "Burns `tokenId`. See {ERC721-_burn}. Requirements: - The caller must own `tokenId` or be an approved operator."
      },
      "getApproved(uint256)": {
        "details": "See {IERC721-getApproved}."
      },
      "isApprovedForAll(address,address)": {
        "details": "See {IERC721-isApprovedForAll}."
      },
      "name()": {
        "details": "See {IERC721Metadata-name}."
      },
      "owner()": {
        "details": "Returns the address of the current owner."
      },
      "ownerOf(uint256)": {
        "details": "See {IERC721-ownerOf}."
      },
      "paused()": {
        "details": "Returns true if the contract is paused, and false otherwise."
      },
      "renounceOwnership()": {
        "details": "Leaves the contract without owner. It will not be possible to call `onlyOwner` functions anymore. Can only be called by the current owner. NOTE: Renouncing ownership will leave the contract without an owner, thereby removing any functionality that is only available to the owner."
      },
      "safeTransferFrom(address,address,uint256)": {
        "details": "See {IERC721-safeTransferFrom}."
      },
      "safeTransferFrom(address,address,uint256,bytes)": {
        "details": "See {IERC721-safeTransferFrom}."
      },
      "setApprovalForAll(address,bool)": {
        "details": "See {IERC721-setApprovalForAll}."
      },
      "symbol()": {
        "details": "See {IERC721Metadata-symbol}."
      },
      "tokenByIndex(uint256)": {
        "details": "See {IERC721Enumerable-tokenByIndex}."
      },
      "tokenOfOwnerByIndex(address,uint256)": {
        "details": "See {IERC721Enumerable-tokenOfOwnerByIndex}."
      },
      "tokenURI(uint256)": {
        "details": "See {IERC721Metadata-tokenURI}."
      },
      "totalSupply()": {
        "details": "See {IERC721Enumerable-totalSupply}."
      },
      "transferFrom(address,address,uint256)": {
        "details": "See {IERC721-transferFrom}."
      },
      "transferOwnership(address)": {
        "details": "Transfers ownership of the contract to a new account (`newOwner`). Can only be called by the current owner."
      }
    },
    "version": 1
  },
  "userdoc": {
    "kind": "user",
    "methods": {},
    "version": 1
  }
}