{
  "contractName": "CryptoAthletes",
  "abi": [
    {
      "inputs": [
        {
          "internalType": "string",
          "name": "baseURI",
          "type": "string"
        }
      ],
      "stateMutability": "nonpayable",
      "type": "constructor"
    },
    {
      "anonymous": false,
      "inputs": [
        {
          "indexed": true,
          "internalType": "address",
          "name": "owner",
          "type": "address"
        },
        {
          "indexed": true,
          "internalType": "address",
          "name": "approved",
          "type": "address"
        },
        {
          "indexed": true,
          "internalType": "uint256",
          "name": "tokenId",
          "type": "uint256"
        }
      ],
      "name": "Approval",
      "type": "event"
    },
    {
      "anonymous": false,
      "inputs": [
        {
          "indexed": true,
          "internalType": "address",
          "name": "owner",
          "type": "address"
        },
        {
          "indexed": true,
          "internalType": "address",
          "name": "operator",
          "type": "address"
        },
        {
          "indexed": false,
          "internalType": "bool",
          "name": "approved",
          "type": "bool"
        }
      ],
      "name": "ApprovalForAll",
      "type": "event"
    },
    {
      "anonymous": false,
      "inputs": [
        {
          "indexed": true,
          "internalType": "uint256",
          "name": "id",
          "type": "uint256"
        }
      ],
      "name": "CreateCryptoAthletes",
      "type": "event"
    },
    {
      "anonymous": false,
      "inputs": [
        {
          "indexed": true,
          "internalType": "address",
          "name": "previousOwner",
          "type": "address"
        },
        {
          "indexed": true,
          "internalType": "address",
          "name": "newOwner",
          "type": "address"
        }
      ],
      "name": "OwnershipTransferred",
      "type": "event"
    },
    {
      "anonymous": false,
      "inputs": [
        {
          "indexed": false,
          "internalType": "address",
          "name": "account",
          "type": "address"
        }
      ],
      "name": "Paused",
      "type": "event"
    },
    {
      "anonymous": false,
      "inputs": [
        {
          "indexed": true,
          "internalType": "address",
          "name": "from",
          "type": "address"
        },
        {
          "indexed": true,
          "internalType": "address",
          "name": "to",
          "type": "address"
        },
        {
          "indexed": true,
          "internalType": "uint256",
          "name": "tokenId",
          "type": "uint256"
        }
      ],
      "name": "Transfer",
      "type": "event"
    },
    {
      "anonymous": false,
      "inputs": [
        {
          "indexed": false,
          "internalType": "address",
          "name": "account",
          "type": "address"
        }
      ],
      "name": "Unpaused",
      "type": "event"
    },
    {
      "inputs": [
        {
          "internalType": "address",
          "name": "to",
          "type": "address"
        },
        {
          "internalType": "uint256",
          "name": "tokenId",
          "type": "uint256"
        }
      ],
      "name": "approve",
      "outputs": [],
      "stateMutability": "nonpayable",
      "type": "function"
    },
    {
      "inputs": [
        {
          "internalType": "address",
          "name": "owner",
          "type": "address"
        }
      ],
      "name": "balanceOf",
      "outputs": [
        {
          "internalType": "uint256",
          "name": "",
          "type": "uint256"
        }
      ],
      "stateMutability": "view",
      "type": "function",
      "constant": true
    },
    {
      "inputs": [
        {
          "internalType": "uint256",
          "name": "tokenId",
          "type": "uint256"
        }
      ],
      "name": "burn",
      "outputs": [],
      "stateMutability": "nonpayable",
      "type": "function"
    },
    {
      "inputs": [],
      "name": "developerAddress",
      "outputs": [
        {
          "internalType": "address",
          "name": "",
          "type": "address"
        }
      ],
      "stateMutability": "view",
      "type": "function",
      "constant": true
    },
    {
      "inputs": [
        {
          "internalType": "uint256",
          "name": "tokenId",
          "type": "uint256"
        }
      ],
      "name": "getApproved",
      "outputs": [
        {
          "internalType": "address",
          "name": "",
          "type": "address"
        }
      ],
      "stateMutability": "view",
      "type": "function",
      "constant": true
    },
    {
      "inputs": [
        {
          "internalType": "address",
          "name": "owner",
          "type": "address"
        },
        {
          "internalType": "address",
          "name": "operator",
          "type": "address"
        }
      ],
      "name": "isApprovedForAll",
      "outputs": [
        {
          "internalType": "bool",
          "name": "",
          "type": "bool"
        }
      ],
      "stateMutability": "view",
      "type": "function",
      "constant": true
    },
    {
      "inputs": [],
      "name": "name",
      "outputs": [
        {
          "internalType": "string",
          "name": "",
          "type": "string"
        }
      ],
      "stateMutability": "view",
      "type": "function",
      "constant": true
    },
    {
      "inputs": [],
      "name": "owner",
      "outputs": [
        {
          "internalType": "address",
          "name": "",
          "type": "address"
        }
      ],
      "stateMutability": "view",
      "type": "function",
      "constant": true
    },
    {
      "inputs": [
        {
          "internalType": "uint256",
          "name": "tokenId",
          "type": "uint256"
        }
      ],
      "name": "ownerOf",
      "outputs": [
        {
          "internalType": "address",
          "name": "",
          "type": "address"
        }
      ],
      "stateMutability": "view",
      "type": "function",
      "constant": true
    },
    {
      "inputs": [],
      "name": "paused",
      "outputs": [
        {
          "internalType": "bool",
          "name": "",
          "type": "bool"
        }
      ],
      "stateMutability": "view",
      "type": "function",
      "constant": true
    },
    {
      "inputs": [],
      "name": "renounceOwnership",
      "outputs": [],
      "stateMutability": "nonpayable",
      "type": "function"
    },
    {
      "inputs": [
        {
          "internalType": "address",
          "name": "from",
          "type": "address"
        },
        {
          "internalType": "address",
          "name": "to",
          "type": "address"
        },
        {
          "internalType": "uint256",
          "name": "tokenId",
          "type": "uint256"
        }
      ],
      "name": "safeTransferFrom",
      "outputs": [],
      "stateMutability": "nonpayable",
      "type": "function"
    },
    {
      "inputs": [
        {
          "internalType": "address",
          "name": "from",
          "type": "address"
        },
        {
          "internalType": "address",
          "name": "to",
          "type": "address"
        },
        {
          "internalType": "uint256",
          "name": "tokenId",
          "type": "uint256"
        },
        {
          "internalType": "bytes",
          "name": "_data",
          "type": "bytes"
        }
      ],
      "name": "safeTransferFrom",
      "outputs": [],
      "stateMutability": "nonpayable",
      "type": "function"
    },
    {
      "inputs": [
        {
          "internalType": "address",
          "name": "operator",
          "type": "address"
        },
        {
          "internalType": "bool",
          "name": "approved",
          "type": "bool"
        }
      ],
      "name": "setApprovalForAll",
      "outputs": [],
      "stateMutability": "nonpayable",
      "type": "function"
    },
    {
      "inputs": [],
      "name": "symbol",
      "outputs": [
        {
          "internalType": "string",
          "name": "",
          "type": "string"
        }
      ],
      "stateMutability": "view",
      "type": "function",
      "constant": true
    },
    {
      "inputs": [
        {
          "internalType": "uint256",
          "name": "index",
          "type": "uint256"
        }
      ],
      "name": "tokenByIndex",
      "outputs": [
        {
          "internalType": "uint256",
          "name": "",
          "type": "uint256"
        }
      ],
      "stateMutability": "view",
      "type": "function",
      "constant": true
    },
    {
      "inputs": [
        {
          "internalType": "address",
          "name": "owner",
          "type": "address"
        },
        {
          "internalType": "uint256",
          "name": "index",
          "type": "uint256"
        }
      ],
      "name": "tokenOfOwnerByIndex",
      "outputs": [
        {
          "internalType": "uint256",
          "name": "",
          "type": "uint256"
        }
      ],
      "stateMutability": "view",
      "type": "function",
      "constant": true
    },
    {
      "inputs": [
        {
          "internalType": "uint256",
          "name": "tokenId",
          "type": "uint256"
        }
      ],
      "name": "tokenURI",
      "outputs": [
        {
          "internalType": "string",
          "name": "",
          "type": "string"
        }
      ],
      "stateMutability": "view",
      "type": "function",
      "constant": true
    },
    {
      "inputs": [],
      "name": "totalSupply",
      "outputs": [
        {
          "internalType": "uint256",
          "name": "",
          "type": "uint256"
        }
      ],
      "stateMutability": "view",
      "type": "function",
      "constant": true
    },
    {
      "inputs": [
        {
          "internalType": "address",
          "name": "from",
          "type": "address"
        },
        {
          "internalType": "address",
          "name": "to",
          "type": "address"
        },
        {
          "internalType": "uint256",
          "name": "tokenId",
          "type": "uint256"
        }
      ],
      "name": "transferFrom",
      "outputs": [],
      "stateMutability": "nonpayable",
      "type": "function"
    },
    {
      "inputs": [
        {
          "internalType": "address",
          "name": "newOwner",
          "type": "address"
        }
      ],
      "name": "transferOwnership",
      "outputs": [],
      "stateMutability": "nonpayable",
      "type": "function"
    },
    {
      "inputs": [
        {
          "internalType": "address payable",
          "name": "_to",
          "type": "address"
        },
        {
          "internalType": "uint256[]",
          "name": "_ids",
          "type": "uint256[]"
        }
      ],
      "name": "mint",
      "outputs": [],
      "stateMutability": "payable",
      "type": "function",
      "payable": true
    },
    {
      "inputs": [
        {
          "internalType": "string",
          "name": "baseURI",
          "type": "string"
        }
      ],
      "name": "setBaseURI",
      "outputs": [],
      "stateMutability": "nonpayable",
      "type": "function"
    },
    {
      "inputs": [],
      "name": "startPreSale",
      "outputs": [],
      "stateMutability": "nonpayable",
      "type": "function"
    },
    {
      "inputs": [],
      "name": "stopPreSale",
      "outputs": [],
      "stateMutability": "nonpayable",
      "type": "function"
    },
    {
      "inputs": [
        {
          "internalType": "uint256",
          "name": "_count",
          "type": "uint256"
        }
      ],
      "name": "price",
      "outputs": [
        {
          "internalType": "uint256",
          "name": "",
          "type": "uint256"
        }
      ],
      "stateMutability": "pure",
      "type": "function",
      "constant": true
    },
    {
      "inputs": [],
      "name": "maxMint",
      "outputs": [
        {
          "internalType": "uint256",
          "name": "",
          "type": "uint256"
        }
      ],
      "stateMutability": "view",
      "type": "function",
      "constant": true
    },
    {
      "inputs": [],
      "name": "maxSales",
      "outputs": [
        {
          "internalType": "uint256",
          "name": "",
          "type": "uint256"
        }
      ],
      "stateMutability": "view",
      "type": "function",
      "constant": true
    },
    {
      "inputs": [],
      "name": "raised",
      "outputs": [
        {
          "internalType": "uint256",
          "name": "",
          "type": "uint256"
        }
      ],
      "stateMutability": "view",
      "type": "function",
      "constant": true
    },
    {
      "inputs": [
        {
          "internalType": "address",
          "name": "_owner",
          "type": "address"
        }
      ],
      "name": "getTokenIdsOfWallet",
      "outputs": [
        {
          "internalType": "uint256[]",
          "name": "",
          "type": "uint256[]"
        }
      ],
      "stateMutability": "view",
      "type": "function",
      "constant": true
    },
    {
      "inputs": [
        {
          "internalType": "bool",
          "name": "value",
          "type": "bool"
        }
      ],
      "name": "pause",
      "outputs": [],
      "stateMutability": "nonpayable",
      "type": "function"
    },
    {
      "inputs": [],
      "name": "withdrawAll",
      "outputs": [],
      "stateMutability": "payable",
      "type": "function",
      "payable": true
    },
    {
      "inputs": [
        {
          "internalType": "bytes4",
          "name": "interfaceId",
          "type": "bytes4"
        }
      ],
      "name": "supportsInterface",
      "outputs": [
        {
          "internalType": "bool",
          "name": "",
          "type": "bool"
        }
      ],
      "stateMutability": "view",
      "type": "function",
      "constant": true
    }
  ],
  "bytecode": "0x60806040523480156200001157600080fd5b50604051620058ee380380620058ee83398181016040528101906200003791906200066b565b6040518060400160405280600e81526020017f43727970746f4174686c657465730000000000000000000000000000000000008152506040518060400160405280600481526020017f43415448000000000000000000000000000000000000000000000000000000008152508160009080519060200190620000bb9291906200053d565b508060019080519060200190620000d49291906200053d565b505050620000f7620000eb6200014d60201b60201c565b6200015560201b60201c565b6000600a60146101000a81548160ff02191690831515021790555062000123816200021b60201b60201c565b620001356001620002c660201b60201c565b612724600d81905550600a600e819055505062000a09565b600033905090565b6000600a60009054906101000a900473ffffffffffffffffffffffffffffffffffffffff16905081600a60006101000a81548173ffffffffffffffffffffffffffffffffffffffff021916908373ffffffffffffffffffffffffffffffffffffffff1602179055508173ffffffffffffffffffffffffffffffffffffffff168173ffffffffffffffffffffffffffffffffffffffff167f8be0079c531659141344cd1fd0a4f28419497f9722a3daafe3b4186f6b6457e060405160405180910390a35050565b6200022b6200014d60201b60201c565b73ffffffffffffffffffffffffffffffffffffffff16620002516200038d60201b60201c565b73ffffffffffffffffffffffffffffffffffffffff1614620002aa576040517f08c379a0000000000000000000000000000000000000000000000000000000008152600401620002a190620007a3565b60405180910390fd5b80600f9080519060200190620002c29291906200053d565b5050565b620002d66200014d60201b60201c565b73ffffffffffffffffffffffffffffffffffffffff16620002fc6200038d60201b60201c565b73ffffffffffffffffffffffffffffffffffffffff161462000355576040517f08c379a00000000000000000000000000000000000000000000000000000000081526004016200034c90620007a3565b60405180910390fd5b600115158115151415620003795762000373620003b760201b60201c565b6200038a565b620003896200046f60201b60201c565b5b50565b6000600a60009054906101000a900473ffffffffffffffffffffffffffffffffffffffff16905090565b620003c76200052660201b60201c565b156200040a576040517f08c379a0000000000000000000000000000000000000000000000000000000008152600401620004019062000781565b60405180910390fd5b6001600a60146101000a81548160ff0219169083151502179055507f62e78cea01bee320cd4e420270b5ea74000d11b0c9f74754ebdbfc544b05a258620004566200014d60201b60201c565b60405162000465919062000742565b60405180910390a1565b6200047f6200052660201b60201c565b620004c1576040517f08c379a0000000000000000000000000000000000000000000000000000000008152600401620004b8906200075f565b60405180910390fd5b6000600a60146101000a81548160ff0219169083151502179055507f5db9ee0a495bf2e6ff9c91a7834c1ba4fdd244a5e8aa4e537bd38aeae4b073aa6200050d6200014d60201b60201c565b6040516200051c919062000742565b60405180910390a1565b6000600a60149054906101000a900460ff16905090565b8280546200054b906200089f565b90600052602060002090601f0160209004810192826200056f5760008555620005bb565b82601f106200058a57805160ff1916838001178555620005bb565b82800160010185558215620005bb579182015b82811115620005ba5782518255916020019190600101906200059d565b5b509050620005ca9190620005ce565b5090565b5b80821115620005e9576000816000905550600101620005cf565b5090565b600062000604620005fe84620007ee565b620007c5565b9050828152602081018484840111156200062357620006226200096e565b5b6200063084828562000869565b509392505050565b600082601f83011262000650576200064f62000969565b5b815162000662848260208601620005ed565b91505092915050565b60006020828403121562000684576200068362000978565b5b600082015167ffffffffffffffff811115620006a557620006a462000973565b5b620006b38482850162000638565b91505092915050565b620006c78162000835565b82525050565b6000620006dc60148362000824565b9150620006e9826200098e565b602082019050919050565b60006200070360108362000824565b91506200071082620009b7565b602082019050919050565b60006200072a60208362000824565b91506200073782620009e0565b602082019050919050565b6000602082019050620007596000830184620006bc565b92915050565b600060208201905081810360008301526200077a81620006cd565b9050919050565b600060208201905081810360008301526200079c81620006f4565b9050919050565b60006020820190508181036000830152620007be816200071b565b9050919050565b6000620007d1620007e4565b9050620007df8282620008d5565b919050565b6000604051905090565b600067ffffffffffffffff8211156200080c576200080b6200093a565b5b62000817826200097d565b9050602081019050919050565b600082825260208201905092915050565b6000620008428262000849565b9050919050565b600073ffffffffffffffffffffffffffffffffffffffff82169050919050565b60005b83811015620008895780820151818401526020810190506200086c565b8381111562000899576000848401525b50505050565b60006002820490506001821680620008b857607f821691505b60208210811415620008cf57620008ce6200090b565b5b50919050565b620008e0826200097d565b810181811067ffffffffffffffff821117156200090257620009016200093a565b5b80604052505050565b7f4e487b7100000000000000000000000000000000000000000000000000000000600052602260045260246000fd5b7f4e487b7100000000000000000000000000000000000000000000000000000000600052604160045260246000fd5b600080fd5b600080fd5b600080fd5b600080fd5b6000601f19601f8301169050919050565b7f5061757361626c653a206e6f7420706175736564000000000000000000000000600082015250565b7f5061757361626c653a2070617573656400000000000000000000000000000000600082015250565b7f4f776e61626c653a2063616c6c6572206973206e6f7420746865206f776e6572600082015250565b614ed58062000a196000396000f3fe6080604052600436106101ee5760003560e01c806370a082311161010d578063bfdf9b6e116100a0578063e985e9c51161006f578063e985e9c5146106cf578063eef625081461070c578063f0ea4bfc14610749578063f2fde38b14610774578063f8fb33661461079d576101ee565b8063bfdf9b6e14610620578063c87b56dd1461064b578063caccd7f714610688578063de836ebd146106b3576101ee565b80638da5cb5b116100dc5780638da5cb5b1461057857806395d89b41146105a3578063a22cb465146105ce578063b88d4fde146105f7576101ee565b806370a08231146104ef578063715018a61461052c5780637501f74114610543578063853828b61461056e576101ee565b80632f745c591161018557806355dd574c1161015457806355dd574c1461044757806355f804b31461045e5780635c975abb146104875780636352211e146104b2576101ee565b80632f745c591461037b57806342842e0e146103b857806342966c68146103e15780634f6ccce71461040a576101ee565b8063095ea7b3116101c1578063095ea7b3146102c157806318160ddd146102ea57806323b872dd1461031557806326a49e371461033e576101ee565b806301ffc9a7146101f357806302329a291461023057806306fdde0314610259578063081812fc14610284575b600080fd5b3480156101ff57600080fd5b5061021a60048036038101906102159190613506565b6107b4565b6040516102279190613c7b565b60405180910390f35b34801561023c57600080fd5b50610257600480360381019061025291906134d9565b6107c6565b005b34801561026557600080fd5b5061026e610868565b60405161027b9190613c96565b60405180910390f35b34801561029057600080fd5b506102ab60048036038101906102a691906135a9565b6108fa565b6040516102b89190613bf2565b60405180910390f35b3480156102cd57600080fd5b506102e860048036038101906102e39190613499565b61097f565b005b3480156102f657600080fd5b506102ff610a97565b60405161030c9190614098565b60405180910390f35b34801561032157600080fd5b5061033c60048036038101906103379190613383565b610aa4565b005b34801561034a57600080fd5b50610365600480360381019061036091906135a9565b610b04565b6040516103729190614098565b60405180910390f35b34801561038757600080fd5b506103a2600480360381019061039d9190613499565b610b27565b6040516103af9190614098565b60405180910390f35b3480156103c457600080fd5b506103df60048036038101906103da9190613383565b610bcc565b005b3480156103ed57600080fd5b50610408600480360381019061040391906135a9565b610bec565b005b34801561041657600080fd5b50610431600480360381019061042c91906135a9565b610c48565b60405161043e9190614098565b60405180910390f35b34801561045357600080fd5b5061045c610cb9565b005b34801561046a57600080fd5b5061048560048036038101906104809190613560565b610d48565b005b34801561049357600080fd5b5061049c610dde565b6040516104a99190613c7b565b60405180910390f35b3480156104be57600080fd5b506104d960048036038101906104d491906135a9565b610df5565b6040516104e69190613bf2565b60405180910390f35b3480156104fb57600080fd5b50610516600480360381019061051191906132ba565b610ea7565b6040516105239190614098565b60405180910390f35b34801561053857600080fd5b50610541610f5f565b005b34801561054f57600080fd5b50610558610fe7565b6040516105659190614098565b60405180910390f35b610576610ff1565b005b34801561058457600080fd5b5061058d611119565b60405161059a9190613bf2565b60405180910390f35b3480156105af57600080fd5b506105b8611143565b6040516105c59190613c96565b60405180910390f35b3480156105da57600080fd5b506105f560048036038101906105f09190613459565b6111d5565b005b34801561060357600080fd5b5061061e600480360381019061061991906133d6565b611356565b005b34801561062c57600080fd5b506106356113b8565b6040516106429190614098565b60405180910390f35b34801561065757600080fd5b50610672600480360381019061066d91906135a9565b6113c2565b60405161067f9190613c96565b60405180910390f35b34801561069457600080fd5b5061069d611469565b6040516106aa9190613bf2565b60405180910390f35b6106cd60048036038101906106c891906132e7565b611481565b005b3480156106db57600080fd5b506106f660048036038101906106f19190613343565b611775565b6040516107039190613c7b565b60405180910390f35b34801561071857600080fd5b50610733600480360381019061072e91906132ba565b611809565b6040516107409190613c59565b60405180910390f35b34801561075557600080fd5b5061075e6118b7565b60405161076b9190614098565b60405180910390f35b34801561078057600080fd5b5061079b600480360381019061079691906132ba565b6118bf565b005b3480156107a957600080fd5b506107b26119b7565b005b60006107bf82611a46565b9050919050565b6107ce611ac0565b73ffffffffffffffffffffffffffffffffffffffff166107ec611119565b73ffffffffffffffffffffffffffffffffffffffff1614610842576040517f08c379a000000000000000000000000000000000000000000000000000000000815260040161083990613f18565b60405180910390fd5b60011515811515141561085c57610857611ac8565b610865565b610864611b6b565b5b50565b606060008054610877906143ca565b80601f01602080910402602001604051908101604052809291908181526020018280546108a3906143ca565b80156108f05780601f106108c5576101008083540402835291602001916108f0565b820191906000526020600020905b8154815290600101906020018083116108d357829003601f168201915b5050505050905090565b600061090582611c0d565b610944576040517f08c379a000000000000000000000000000000000000000000000000000000000815260040161093b90613ef8565b60405180910390fd5b6004600083815260200190815260200160002060009054906101000a900473ffffffffffffffffffffffffffffffffffffffff169050919050565b600061098a82610df5565b90508073ffffffffffffffffffffffffffffffffffffffff168373ffffffffffffffffffffffffffffffffffffffff1614156109fb576040517f08c379a00000000000000000000000000000000000000000000000000000000081526004016109f290613fb8565b60405180910390fd5b8073ffffffffffffffffffffffffffffffffffffffff16610a1a611ac0565b73ffffffffffffffffffffffffffffffffffffffff161480610a495750610a4881610a43611ac0565b611775565b5b610a88576040517f08c379a0000000000000000000000000000000000000000000000000000000008152600401610a7f90613e78565b60405180910390fd5b610a928383611c79565b505050565b6000600880549050905090565b610ab5610aaf611ac0565b82611d32565b610af4576040517f08c379a0000000000000000000000000000000000000000000000000000000008152600401610aeb90613ff8565b60405180910390fd5b610aff838383611e10565b505050565b6000610b208266b1a2bc2ec5000061206c90919063ffffffff16565b9050919050565b6000610b3283610ea7565b8210610b73576040517f08c379a0000000000000000000000000000000000000000000000000000000008152600401610b6a90613cf8565b60405180910390fd5b600660008473ffffffffffffffffffffffffffffffffffffffff1673ffffffffffffffffffffffffffffffffffffffff168152602001908152602001600020600083815260200190815260200160002054905092915050565b610be783838360405180602001604052806000815250611356565b505050565b610bfd610bf7611ac0565b82611d32565b610c3c576040517f08c379a0000000000000000000000000000000000000000000000000000000008152600401610c3390614058565b60405180910390fd5b610c4581612082565b50565b6000610c52610a97565b8210610c93576040517f08c379a0000000000000000000000000000000000000000000000000000000008152600401610c8a90614018565b60405180910390fd5b60088281548110610ca757610ca6614563565b5b90600052602060002001549050919050565b610cc1611ac0565b73ffffffffffffffffffffffffffffffffffffffff16610cdf611119565b73ffffffffffffffffffffffffffffffffffffffff1614610d35576040517f08c379a0000000000000000000000000000000000000000000000000000000008152600401610d2c90613f18565b60405180910390fd5b6101f4600d819055506002600e81905550565b610d50611ac0565b73ffffffffffffffffffffffffffffffffffffffff16610d6e611119565b73ffffffffffffffffffffffffffffffffffffffff1614610dc4576040517f08c379a0000000000000000000000000000000000000000000000000000000008152600401610dbb90613f18565b60405180910390fd5b80600f9080519060200190610dda92919061301b565b5050565b6000600a60149054906101000a900460ff16905090565b6000806002600084815260200190815260200160002060009054906101000a900473ffffffffffffffffffffffffffffffffffffffff169050600073ffffffffffffffffffffffffffffffffffffffff168173ffffffffffffffffffffffffffffffffffffffff161415610e9e576040517f08c379a0000000000000000000000000000000000000000000000000000000008152600401610e9590613eb8565b60405180910390fd5b80915050919050565b60008073ffffffffffffffffffffffffffffffffffffffff168273ffffffffffffffffffffffffffffffffffffffff161415610f18576040517f08c379a0000000000000000000000000000000000000000000000000000000008152600401610f0f90613e98565b60405180910390fd5b600360008373ffffffffffffffffffffffffffffffffffffffff1673ffffffffffffffffffffffffffffffffffffffff168152602001908152602001600020549050919050565b610f67611ac0565b73ffffffffffffffffffffffffffffffffffffffff16610f85611119565b73ffffffffffffffffffffffffffffffffffffffff1614610fdb576040517f08c379a0000000000000000000000000000000000000000000000000000000008152600401610fd290613f18565b60405180910390fd5b610fe56000612193565b565b6000600e54905090565b610ff9611ac0565b73ffffffffffffffffffffffffffffffffffffffff16611017611119565b73ffffffffffffffffffffffffffffffffffffffff161461106d576040517f08c379a000000000000000000000000000000000000000000000000000000000815260040161106490613f18565b60405180910390fd5b6000479050600081116110b5576040517f08c379a00000000000000000000000000000000000000000000000000000000081526004016110ac90613f98565b60405180910390fd5b6110f973a7482c9c5926e88d85804a969c383730ce1006396110f460646110e660038661206c90919063ffffffff16565b61225990919063ffffffff16565b61226f565b6111167281ad52ff7eb8b5165777aa6adcf7d80cbf647d4761226f565b50565b6000600a60009054906101000a900473ffffffffffffffffffffffffffffffffffffffff16905090565b606060018054611152906143ca565b80601f016020809104026020016040519081016040528092919081815260200182805461117e906143ca565b80156111cb5780601f106111a0576101008083540402835291602001916111cb565b820191906000526020600020905b8154815290600101906020018083116111ae57829003601f168201915b5050505050905090565b6111dd611ac0565b73ffffffffffffffffffffffffffffffffffffffff168273ffffffffffffffffffffffffffffffffffffffff16141561124b576040517f08c379a000000000000000000000000000000000000000000000000000000000815260040161124290613e18565b60405180910390fd5b8060056000611258611ac0565b73ffffffffffffffffffffffffffffffffffffffff1673ffffffffffffffffffffffffffffffffffffffff16815260200190815260200160002060008473ffffffffffffffffffffffffffffffffffffffff1673ffffffffffffffffffffffffffffffffffffffff16815260200190815260200160002060006101000a81548160ff0219169083151502179055508173ffffffffffffffffffffffffffffffffffffffff16611305611ac0565b73ffffffffffffffffffffffffffffffffffffffff167f17307eab39ab6107e8899845ad3d59bd9653f200f220920489ca2b5937696c318360405161134a9190613c7b565b60405180910390a35050565b611367611361611ac0565b83611d32565b6113a6576040517f08c379a000000000000000000000000000000000000000000000000000000000815260040161139d90613ff8565b60405180910390fd5b6113b284848484612320565b50505050565b6000600d54905090565b60606113cd82611c0d565b61140c576040517f08c379a000000000000000000000000000000000000000000000000000000000815260040161140390613f58565b60405180910390fd5b600061141661237c565b905060008151116114365760405180602001604052806000815250611461565b806114408461240e565b604051602001611451929190613bae565b6040516020818303038152906040525b915050919050565b73a7482c9c5926e88d85804a969c383730ce10063981565b600d5461148c61256f565b11156114cd576040517f08c379a00000000000000000000000000000000000000000000000000000000081526004016114c490614078565b60405180910390fd5b6114d5611119565b73ffffffffffffffffffffffffffffffffffffffff166114f3611ac0565b73ffffffffffffffffffffffffffffffffffffffff161461155757611516610dde565b15611556576040517f08c379a000000000000000000000000000000000000000000000000000000000815260040161154d90613d38565b60405180910390fd5b5b600061156161256f565b9050600d5482518261157391906141ed565b11156115b4576040517f08c379a00000000000000000000000000000000000000000000000000000000081526004016115ab90613d58565b60405180910390fd5b600d548111156115f9576040517f08c379a00000000000000000000000000000000000000000000000000000000081526004016115f090613db8565b60405180910390fd5b600e548251111561163f576040517f08c379a000000000000000000000000000000000000000000000000000000000815260040161163690613fd8565b60405180910390fd5b6116498251610b04565b34101561168b576040517f08c379a000000000000000000000000000000000000000000000000000000000815260040161168290614038565b60405180910390fd5b60005b825181101561172b5760001515600c60008584815181106116b2576116b1614563565b5b6020026020010151815260200190815260200160002060009054906101000a900460ff16151514611718576040517f08c379a000000000000000000000000000000000000000000000000000000000815260040161170f90613f78565b60405180910390fd5b80806117239061442d565b91505061168e565b5060005b825181101561176f5761175c8484838151811061174f5761174e614563565b5b6020026020010151612580565b80806117679061442d565b91505061172f565b50505050565b6000600560008473ffffffffffffffffffffffffffffffffffffffff1673ffffffffffffffffffffffffffffffffffffffff16815260200190815260200160002060008373ffffffffffffffffffffffffffffffffffffffff1673ffffffffffffffffffffffffffffffffffffffff16815260200190815260200160002060009054906101000a900460ff16905092915050565b6060600061181683610ea7565b905060008167ffffffffffffffff81111561183457611833614592565b5b6040519080825280602002602001820160405280156118625781602001602082028036833780820191505090505b50905060005b828110156118ac5761187a8582610b27565b82828151811061188d5761188c614563565b5b60200260200101818152505080806118a49061442d565b915050611868565b508092505050919050565b600047905090565b6118c7611ac0565b73ffffffffffffffffffffffffffffffffffffffff166118e5611119565b73ffffffffffffffffffffffffffffffffffffffff161461193b576040517f08c379a000000000000000000000000000000000000000000000000000000000815260040161193290613f18565b60405180910390fd5b600073ffffffffffffffffffffffffffffffffffffffff168173ffffffffffffffffffffffffffffffffffffffff1614156119ab576040517f08c379a00000000000000000000000000000000000000000000000000000000081526004016119a290613d78565b60405180910390fd5b6119b481612193565b50565b6119bf611ac0565b73ffffffffffffffffffffffffffffffffffffffff166119dd611119565b73ffffffffffffffffffffffffffffffffffffffff1614611a33576040517f08c379a0000000000000000000000000000000000000000000000000000000008152600401611a2a90613f18565b60405180910390fd5b612724600d81905550600a600e81905550565b60007f780e9d63000000000000000000000000000000000000000000000000000000007bffffffffffffffffffffffffffffffffffffffffffffffffffffffff1916827bffffffffffffffffffffffffffffffffffffffffffffffffffffffff19161480611ab95750611ab8826125f1565b5b9050919050565b600033905090565b611ad0610dde565b15611b10576040517f08c379a0000000000000000000000000000000000000000000000000000000008152600401611b0790613e58565b60405180910390fd5b6001600a60146101000a81548160ff0219169083151502179055507f62e78cea01bee320cd4e420270b5ea74000d11b0c9f74754ebdbfc544b05a258611b54611ac0565b604051611b619190613bf2565b60405180910390a1565b611b73610dde565b611bb2576040517f08c379a0000000000000000000000000000000000000000000000000000000008152600401611ba990613cd8565b60405180910390fd5b6000600a60146101000a81548160ff0219169083151502179055507f5db9ee0a495bf2e6ff9c91a7834c1ba4fdd244a5e8aa4e537bd38aeae4b073aa611bf6611ac0565b604051611c039190613bf2565b60405180910390a1565b60008073ffffffffffffffffffffffffffffffffffffffff166002600084815260200190815260200160002060009054906101000a900473ffffffffffffffffffffffffffffffffffffffff1673ffffffffffffffffffffffffffffffffffffffff1614159050919050565b816004600083815260200190815260200160002060006101000a81548173ffffffffffffffffffffffffffffffffffffffff021916908373ffffffffffffffffffffffffffffffffffffffff160217905550808273ffffffffffffffffffffffffffffffffffffffff16611cec83610df5565b73ffffffffffffffffffffffffffffffffffffffff167f8c5be1e5ebec7d5bd14f71427d1e84f3dd0314c0f7b2291e5b200ac8c7c3b92560405160405180910390a45050565b6000611d3d82611c0d565b611d7c576040517f08c379a0000000000000000000000000000000000000000000000000000000008152600401611d7390613e38565b60405180910390fd5b6000611d8783610df5565b90508073ffffffffffffffffffffffffffffffffffffffff168473ffffffffffffffffffffffffffffffffffffffff161480611df657508373ffffffffffffffffffffffffffffffffffffffff16611dde846108fa565b73ffffffffffffffffffffffffffffffffffffffff16145b80611e075750611e068185611775565b5b91505092915050565b8273ffffffffffffffffffffffffffffffffffffffff16611e3082610df5565b73ffffffffffffffffffffffffffffffffffffffff1614611e86576040517f08c379a0000000000000000000000000000000000000000000000000000000008152600401611e7d90613f38565b60405180910390fd5b600073ffffffffffffffffffffffffffffffffffffffff168273ffffffffffffffffffffffffffffffffffffffff161415611ef6576040517f08c379a0000000000000000000000000000000000000000000000000000000008152600401611eed90613df8565b60405180910390fd5b611f018383836126d3565b611f0c600082611c79565b6001600360008573ffffffffffffffffffffffffffffffffffffffff1673ffffffffffffffffffffffffffffffffffffffff1681526020019081526020016000206000828254611f5c91906142ce565b925050819055506001600360008473ffffffffffffffffffffffffffffffffffffffff1673ffffffffffffffffffffffffffffffffffffffff1681526020019081526020016000206000828254611fb391906141ed565b92505081905550816002600083815260200190815260200160002060006101000a81548173ffffffffffffffffffffffffffffffffffffffff021916908373ffffffffffffffffffffffffffffffffffffffff160217905550808273ffffffffffffffffffffffffffffffffffffffff168473ffffffffffffffffffffffffffffffffffffffff167fddf252ad1be2c89b69c2b068fc378daa952ba7f163c4a11628f55a4df523b3ef60405160405180910390a4505050565b6000818361207a9190614274565b905092915050565b600061208d82610df5565b905061209b816000846126d3565b6120a6600083611c79565b6001600360008373ffffffffffffffffffffffffffffffffffffffff1673ffffffffffffffffffffffffffffffffffffffff16815260200190815260200160002060008282546120f691906142ce565b925050819055506002600083815260200190815260200160002060006101000a81549073ffffffffffffffffffffffffffffffffffffffff021916905581600073ffffffffffffffffffffffffffffffffffffffff168273ffffffffffffffffffffffffffffffffffffffff167fddf252ad1be2c89b69c2b068fc378daa952ba7f163c4a11628f55a4df523b3ef60405160405180910390a45050565b6000600a60009054906101000a900473ffffffffffffffffffffffffffffffffffffffff16905081600a60006101000a81548173ffffffffffffffffffffffffffffffffffffffff021916908373ffffffffffffffffffffffffffffffffffffffff1602179055508173ffffffffffffffffffffffffffffffffffffffff168173ffffffffffffffffffffffffffffffffffffffff167f8be0079c531659141344cd1fd0a4f28419497f9722a3daafe3b4186f6b6457e060405160405180910390a35050565b600081836122679190614243565b905092915050565b60008273ffffffffffffffffffffffffffffffffffffffff168260405161229590613bdd565b60006040518083038185875af1925050503d80600081146122d2576040519150601f19603f3d011682016040523d82523d6000602084013e6122d7565b606091505b505090508061231b576040517f08c379a000000000000000000000000000000000000000000000000000000000815260040161231290613dd8565b60405180910390fd5b505050565b61232b848484611e10565b612337848484846126e3565b612376576040517f08c379a000000000000000000000000000000000000000000000000000000000815260040161236d90613d18565b60405180910390fd5b50505050565b6060600f805461238b906143ca565b80601f01602080910402602001604051908101604052809291908181526020018280546123b7906143ca565b80156124045780601f106123d957610100808354040283529160200191612404565b820191906000526020600020905b8154815290600101906020018083116123e757829003601f168201915b5050505050905090565b60606000821415612456576040518060400160405280600181526020017f3000000000000000000000000000000000000000000000000000000000000000815250905061256a565b600082905060005b600082146124885780806124719061442d565b915050600a826124819190614243565b915061245e565b60008167ffffffffffffffff8111156124a4576124a3614592565b5b6040519080825280601f01601f1916602001820160405280156124d65781602001600182028036833780820191505090505b5090505b60008514612563576001826124ef91906142ce565b9150600a856124fe9190614476565b603061250a91906141ed565b60f81b8183815181106125205761251f614563565b5b60200101907effffffffffffffffffffffffffffffffffffffffffffffffffffffffffffff1916908160001a905350600a8561255c9190614243565b94506124da565b8093505050505b919050565b600061257b600b61287a565b905090565b61258a600b612888565b612594828261289e565b6001600c600083815260200190815260200160002060006101000a81548160ff021916908315150217905550807fb49e345da8acc73b2902d35c00bfb023f6a3d36e775d578ce73e80c78fc70bb560405160405180910390a25050565b60007f80ac58cd000000000000000000000000000000000000000000000000000000007bffffffffffffffffffffffffffffffffffffffffffffffffffffffff1916827bffffffffffffffffffffffffffffffffffffffffffffffffffffffff191614806126bc57507f5b5e139f000000000000000000000000000000000000000000000000000000007bffffffffffffffffffffffffffffffffffffffffffffffffffffffff1916827bffffffffffffffffffffffffffffffffffffffffffffffffffffffff1916145b806126cc57506126cb826128bc565b5b9050919050565b6126de838383612926565b505050565b60006127048473ffffffffffffffffffffffffffffffffffffffff166129c0565b1561286d578373ffffffffffffffffffffffffffffffffffffffff1663150b7a0261272d611ac0565b8786866040518563ffffffff1660e01b815260040161274f9493929190613c0d565b602060405180830381600087803b15801561276957600080fd5b505af192505050801561279a57506040513d601f19601f820116820180604052508101906127979190613533565b60015b61281d573d80600081146127ca576040519150601f19603f3d011682016040523d82523d6000602084013e6127cf565b606091505b50600081511415612815576040517f08c379a000000000000000000000000000000000000000000000000000000000815260040161280c90613d18565b60405180910390fd5b805181602001fd5b63150b7a0260e01b7bffffffffffffffffffffffffffffffffffffffffffffffffffffffff1916817bffffffffffffffffffffffffffffffffffffffffffffffffffffffff191614915050612872565b600190505b949350505050565b600081600001549050919050565b6001816000016000828254019250508190555050565b6128b88282604051806020016040528060008152506129d3565b5050565b60007f01ffc9a7000000000000000000000000000000000000000000000000000000007bffffffffffffffffffffffffffffffffffffffffffffffffffffffff1916827bffffffffffffffffffffffffffffffffffffffffffffffffffffffff1916149050919050565b612931838383612a2e565b612939611119565b73ffffffffffffffffffffffffffffffffffffffff16612957611ac0565b73ffffffffffffffffffffffffffffffffffffffff16146129bb5761297a610dde565b156129ba576040517f08c379a00000000000000000000000000000000000000000000000000000000081526004016129b190613cb8565b60405180910390fd5b5b505050565b600080823b905060008111915050919050565b6129dd8383612b42565b6129ea60008484846126e3565b612a29576040517f08c379a0000000000000000000000000000000000000000000000000000000008152600401612a2090613d18565b60405180910390fd5b505050565b612a39838383612d10565b600073ffffffffffffffffffffffffffffffffffffffff168373ffffffffffffffffffffffffffffffffffffffff161415612a7c57612a7781612d15565b612abb565b8173ffffffffffffffffffffffffffffffffffffffff168373ffffffffffffffffffffffffffffffffffffffff1614612aba57612ab98382612d5e565b5b5b600073ffffffffffffffffffffffffffffffffffffffff168273ffffffffffffffffffffffffffffffffffffffff161415612afe57612af981612ecb565b612b3d565b8273ffffffffffffffffffffffffffffffffffffffff168273ffffffffffffffffffffffffffffffffffffffff1614612b3c57612b3b8282612f9c565b5b5b505050565b600073ffffffffffffffffffffffffffffffffffffffff168273ffffffffffffffffffffffffffffffffffffffff161415612bb2576040517f08c379a0000000000000000000000000000000000000000000000000000000008152600401612ba990613ed8565b60405180910390fd5b612bbb81611c0d565b15612bfb576040517f08c379a0000000000000000000000000000000000000000000000000000000008152600401612bf290613d98565b60405180910390fd5b612c07600083836126d3565b6001600360008473ffffffffffffffffffffffffffffffffffffffff1673ffffffffffffffffffffffffffffffffffffffff1681526020019081526020016000206000828254612c5791906141ed565b92505081905550816002600083815260200190815260200160002060006101000a81548173ffffffffffffffffffffffffffffffffffffffff021916908373ffffffffffffffffffffffffffffffffffffffff160217905550808273ffffffffffffffffffffffffffffffffffffffff16600073ffffffffffffffffffffffffffffffffffffffff167fddf252ad1be2c89b69c2b068fc378daa952ba7f163c4a11628f55a4df523b3ef60405160405180910390a45050565b505050565b6008805490506009600083815260200190815260200160002081905550600881908060018154018082558091505060019003906000526020600020016000909190919091505550565b60006001612d6b84610ea7565b612d7591906142ce565b9050600060076000848152602001908152602001600020549050818114612e5a576000600660008673ffffffffffffffffffffffffffffffffffffffff1673ffffffffffffffffffffffffffffffffffffffff168152602001908152602001600020600084815260200190815260200160002054905080600660008773ffffffffffffffffffffffffffffffffffffffff1673ffffffffffffffffffffffffffffffffffffffff168152602001908152602001600020600084815260200190815260200160002081905550816007600083815260200190815260200160002081905550505b6007600084815260200190815260200160002060009055600660008573ffffffffffffffffffffffffffffffffffffffff1673ffffffffffffffffffffffffffffffffffffffff16815260200190815260200160002060008381526020019081526020016000206000905550505050565b60006001600880549050612edf91906142ce565b9050600060096000848152602001908152602001600020549050600060088381548110612f0f57612f0e614563565b5b906000526020600020015490508060088381548110612f3157612f30614563565b5b906000526020600020018190555081600960008381526020019081526020016000208190555060096000858152602001908152602001600020600090556008805480612f8057612f7f614534565b5b6001900381819060005260206000200160009055905550505050565b6000612fa783610ea7565b905081600660008573ffffffffffffffffffffffffffffffffffffffff1673ffffffffffffffffffffffffffffffffffffffff168152602001908152602001600020600083815260200190815260200160002081905550806007600084815260200190815260200160002081905550505050565b828054613027906143ca565b90600052602060002090601f0160209004810192826130495760008555613090565b82601f1061306257805160ff1916838001178555613090565b82800160010185558215613090579182015b8281111561308f578251825591602001919060010190613074565b5b50905061309d91906130a1565b5090565b5b808211156130ba5760008160009055506001016130a2565b5090565b60006130d16130cc846140d8565b6140b3565b905080838252602082019050828560208602820111156130f4576130f36145c6565b5b60005b85811015613124578161310a88826132a5565b8452602084019350602083019250506001810190506130f7565b5050509392505050565b600061314161313c84614104565b6140b3565b90508281526020810184848401111561315d5761315c6145cb565b5b613168848285614388565b509392505050565b600061318361317e84614135565b6140b3565b90508281526020810184848401111561319f5761319e6145cb565b5b6131aa848285614388565b509392505050565b6000813590506131c181614e2c565b92915050565b6000813590506131d681614e43565b92915050565b600082601f8301126131f1576131f06145c1565b5b81356132018482602086016130be565b91505092915050565b60008135905061321981614e5a565b92915050565b60008135905061322e81614e71565b92915050565b60008151905061324381614e71565b92915050565b600082601f83011261325e5761325d6145c1565b5b813561326e84826020860161312e565b91505092915050565b600082601f83011261328c5761328b6145c1565b5b813561329c848260208601613170565b91505092915050565b6000813590506132b481614e88565b92915050565b6000602082840312156132d0576132cf6145d5565b5b60006132de848285016131b2565b91505092915050565b600080604083850312156132fe576132fd6145d5565b5b600061330c858286016131c7565b925050602083013567ffffffffffffffff81111561332d5761332c6145d0565b5b613339858286016131dc565b9150509250929050565b6000806040838503121561335a576133596145d5565b5b6000613368858286016131b2565b9250506020613379858286016131b2565b9150509250929050565b60008060006060848603121561339c5761339b6145d5565b5b60006133aa868287016131b2565b93505060206133bb868287016131b2565b92505060406133cc868287016132a5565b9150509250925092565b600080600080608085870312156133f0576133ef6145d5565b5b60006133fe878288016131b2565b945050602061340f878288016131b2565b9350506040613420878288016132a5565b925050606085013567ffffffffffffffff811115613441576134406145d0565b5b61344d87828801613249565b91505092959194509250565b600080604083850312156134705761346f6145d5565b5b600061347e858286016131b2565b925050602061348f8582860161320a565b9150509250929050565b600080604083850312156134b0576134af6145d5565b5b60006134be858286016131b2565b92505060206134cf858286016132a5565b9150509250929050565b6000602082840312156134ef576134ee6145d5565b5b60006134fd8482850161320a565b91505092915050565b60006020828403121561351c5761351b6145d5565b5b600061352a8482850161321f565b91505092915050565b600060208284031215613549576135486145d5565b5b600061355784828501613234565b91505092915050565b600060208284031215613576576135756145d5565b5b600082013567ffffffffffffffff811115613594576135936145d0565b5b6135a084828501613277565b91505092915050565b6000602082840312156135bf576135be6145d5565b5b60006135cd848285016132a5565b91505092915050565b60006135e28383613b90565b60208301905092915050565b6135f781614302565b82525050565b600061360882614176565b61361281856141a4565b935061361d83614166565b8060005b8381101561364e57815161363588826135d6565b975061364083614197565b925050600181019050613621565b5085935050505092915050565b61366481614326565b82525050565b600061367582614181565b61367f81856141b5565b935061368f818560208601614397565b613698816145da565b840191505092915050565b60006136ae8261418c565b6136b881856141d1565b93506136c8818560208601614397565b6136d1816145da565b840191505092915050565b60006136e78261418c565b6136f181856141e2565b9350613701818560208601614397565b80840191505092915050565b600061371a602b836141d1565b9150613725826145eb565b604082019050919050565b600061373d6014836141d1565b91506137488261463a565b602082019050919050565b6000613760602b836141d1565b915061376b82614663565b604082019050919050565b60006137836032836141d1565b915061378e826146b2565b604082019050919050565b60006137a66010836141d1565b91506137b182614701565b602082019050919050565b60006137c96032836141d1565b91506137d48261472a565b604082019050919050565b60006137ec6026836141d1565b91506137f782614779565b604082019050919050565b600061380f601c836141d1565b915061381a826147c8565b602082019050919050565b60006138326036836141d1565b915061383d826147f1565b604082019050919050565b6000613855601a836141d1565b915061386082614840565b602082019050919050565b60006138786024836141d1565b915061388382614869565b604082019050919050565b600061389b6019836141d1565b91506138a6826148b8565b602082019050919050565b60006138be602c836141d1565b91506138c9826148e1565b604082019050919050565b60006138e16010836141d1565b91506138ec82614930565b602082019050919050565b60006139046038836141d1565b915061390f82614959565b604082019050919050565b6000613927602a836141d1565b9150613932826149a8565b604082019050919050565b600061394a6029836141d1565b9150613955826149f7565b604082019050919050565b600061396d6020836141d1565b915061397882614a46565b602082019050919050565b6000613990602c836141d1565b915061399b82614a6f565b604082019050919050565b60006139b36005836141e2565b91506139be82614abe565b600582019050919050565b60006139d66020836141d1565b91506139e182614ae7565b602082019050919050565b60006139f96029836141d1565b9150613a0482614b10565b604082019050919050565b6000613a1c602f836141d1565b9150613a2782614b5f565b604082019050919050565b6000613a3f603a836141d1565b9150613a4a82614bae565b604082019050919050565b6000613a626020836141d1565b9150613a6d82614bfd565b602082019050919050565b6000613a856021836141d1565b9150613a9082614c26565b604082019050919050565b6000613aa86000836141c6565b9150613ab382614c75565b600082019050919050565b6000613acb602f836141d1565b9150613ad682614c78565b604082019050919050565b6000613aee6031836141d1565b9150613af982614cc7565b604082019050919050565b6000613b11602c836141d1565b9150613b1c82614d16565b604082019050919050565b6000613b34603f836141d1565b9150613b3f82614d65565b604082019050919050565b6000613b576030836141d1565b9150613b6282614db4565b604082019050919050565b6000613b7a600f836141d1565b9150613b8582614e03565b602082019050919050565b613b998161437e565b82525050565b613ba88161437e565b82525050565b6000613bba82856136dc565b9150613bc682846136dc565b9150613bd1826139a6565b91508190509392505050565b6000613be882613a9b565b9150819050919050565b6000602082019050613c0760008301846135ee565b92915050565b6000608082019050613c2260008301876135ee565b613c2f60208301866135ee565b613c3c6040830185613b9f565b8181036060830152613c4e818461366a565b905095945050505050565b60006020820190508181036000830152613c7381846135fd565b905092915050565b6000602082019050613c90600083018461365b565b92915050565b60006020820190508181036000830152613cb081846136a3565b905092915050565b60006020820190508181036000830152613cd18161370d565b9050919050565b60006020820190508181036000830152613cf181613730565b9050919050565b60006020820190508181036000830152613d1181613753565b9050919050565b60006020820190508181036000830152613d3181613776565b9050919050565b60006020820190508181036000830152613d5181613799565b9050919050565b60006020820190508181036000830152613d71816137bc565b9050919050565b60006020820190508181036000830152613d91816137df565b9050919050565b60006020820190508181036000830152613db181613802565b9050919050565b60006020820190508181036000830152613dd181613825565b9050919050565b60006020820190508181036000830152613df181613848565b9050919050565b60006020820190508181036000830152613e118161386b565b9050919050565b60006020820190508181036000830152613e318161388e565b9050919050565b60006020820190508181036000830152613e51816138b1565b9050919050565b60006020820190508181036000830152613e71816138d4565b9050919050565b60006020820190508181036000830152613e91816138f7565b9050919050565b60006020820190508181036000830152613eb18161391a565b9050919050565b60006020820190508181036000830152613ed18161393d565b9050919050565b60006020820190508181036000830152613ef181613960565b9050919050565b60006020820190508181036000830152613f1181613983565b9050919050565b60006020820190508181036000830152613f31816139c9565b9050919050565b60006020820190508181036000830152613f51816139ec565b9050919050565b60006020820190508181036000830152613f7181613a0f565b9050919050565b60006020820190508181036000830152613f9181613a32565b9050919050565b60006020820190508181036000830152613fb181613a55565b9050919050565b60006020820190508181036000830152613fd181613a78565b9050919050565b60006020820190508181036000830152613ff181613abe565b9050919050565b6000602082019050818103600083015261401181613ae1565b9050919050565b6000602082019050818103600083015261403181613b04565b9050919050565b6000602082019050818103600083015261405181613b27565b9050919050565b6000602082019050818103600083015261407181613b4a565b9050919050565b6000602082019050818103600083015261409181613b6d565b9050919050565b60006020820190506140ad6000830184613b9f565b92915050565b60006140bd6140ce565b90506140c982826143fc565b919050565b6000604051905090565b600067ffffffffffffffff8211156140f3576140f2614592565b5b602082029050602081019050919050565b600067ffffffffffffffff82111561411f5761411e614592565b5b614128826145da565b9050602081019050919050565b600067ffffffffffffffff8211156141505761414f614592565b5b614159826145da565b9050602081019050919050565b6000819050602082019050919050565b600081519050919050565b600081519050919050565b600081519050919050565b6000602082019050919050565b600082825260208201905092915050565b600082825260208201905092915050565b600081905092915050565b600082825260208201905092915050565b600081905092915050565b60006141f88261437e565b91506142038361437e565b9250827fffffffffffffffffffffffffffffffffffffffffffffffffffffffffffffffff03821115614238576142376144a7565b5b828201905092915050565b600061424e8261437e565b91506142598361437e565b925082614269576142686144d6565b5b828204905092915050565b600061427f8261437e565b915061428a8361437e565b9250817fffffffffffffffffffffffffffffffffffffffffffffffffffffffffffffffff04831182151516156142c3576142c26144a7565b5b828202905092915050565b60006142d98261437e565b91506142e48361437e565b9250828210156142f7576142f66144a7565b5b828203905092915050565b600061430d8261435e565b9050919050565b600061431f8261435e565b9050919050565b60008115159050919050565b60007fffffffff0000000000000000000000000000000000000000000000000000000082169050919050565b600073ffffffffffffffffffffffffffffffffffffffff82169050919050565b6000819050919050565b82818337600083830152505050565b60005b838110156143b557808201518184015260208101905061439a565b838111156143c4576000848401525b50505050565b600060028204905060018216806143e257607f821691505b602082108114156143f6576143f5614505565b5b50919050565b614405826145da565b810181811067ffffffffffffffff8211171561442457614423614592565b5b80604052505050565b60006144388261437e565b91507fffffffffffffffffffffffffffffffffffffffffffffffffffffffffffffffff82141561446b5761446a6144a7565b5b600182019050919050565b60006144818261437e565b915061448c8361437e565b92508261449c5761449b6144d6565b5b828206905092915050565b7f4e487b7100000000000000000000000000000000000000000000000000000000600052601160045260246000fd5b7f4e487b7100000000000000000000000000000000000000000000000000000000600052601260045260246000fd5b7f4e487b7100000000000000000000000000000000000000000000000000000000600052602260045260246000fd5b7f4e487b7100000000000000000000000000000000000000000000000000000000600052603160045260246000fd5b7f4e487b7100000000000000000000000000000000000000000000000000000000600052603260045260246000fd5b7f4e487b7100000000000000000000000000000000000000000000000000000000600052604160045260246000fd5b600080fd5b600080fd5b600080fd5b600080fd5b600080fd5b6000601f19601f8301169050919050565b7f4552433732315061757361626c653a20746f6b656e207472616e73666572207760008201527f68696c6520706175736564000000000000000000000000000000000000000000602082015250565b7f5061757361626c653a206e6f7420706175736564000000000000000000000000600082015250565b7f455243373231456e756d657261626c653a206f776e657220696e646578206f7560008201527f74206f6620626f756e6473000000000000000000000000000000000000000000602082015250565b7f4552433732313a207472616e7366657220746f206e6f6e20455243373231526560008201527f63656976657220696d706c656d656e7465720000000000000000000000000000602082015250565b7f5041555341424c453a2050617573656400000000000000000000000000000000600082015250565b7f4d494e543a2043757272656e7420636f756e742065786365656473206d61786960008201527f6d756d20656c656d656e7420636f756e742e0000000000000000000000000000602082015250565b7f4f776e61626c653a206e6577206f776e657220697320746865207a65726f206160008201527f6464726573730000000000000000000000000000000000000000000000000000602082015250565b7f4552433732313a20746f6b656e20616c7265616479206d696e74656400000000600082015250565b7f4d494e543a20506c6561736520676f20746f20746865204f70656e736561207460008201527f6f206275792043727970746f204174686c657465732e00000000000000000000602082015250565b7f57495448445241573a205472616e73666572206661696c65642e000000000000600082015250565b7f4552433732313a207472616e7366657220746f20746865207a65726f2061646460008201527f7265737300000000000000000000000000000000000000000000000000000000602082015250565b7f4552433732313a20617070726f766520746f2063616c6c657200000000000000600082015250565b7f4552433732313a206f70657261746f7220717565727920666f72206e6f6e657860008201527f697374656e7420746f6b656e0000000000000000000000000000000000000000602082015250565b7f5061757361626c653a2070617573656400000000000000000000000000000000600082015250565b7f4552433732313a20617070726f76652063616c6c6572206973206e6f74206f7760008201527f6e6572206e6f7220617070726f76656420666f7220616c6c0000000000000000602082015250565b7f4552433732313a2062616c616e636520717565727920666f7220746865207a6560008201527f726f206164647265737300000000000000000000000000000000000000000000602082015250565b7f4552433732313a206f776e657220717565727920666f72206e6f6e657869737460008201527f656e7420746f6b656e0000000000000000000000000000000000000000000000602082015250565b7f4552433732313a206d696e7420746f20746865207a65726f2061646472657373600082015250565b7f4552433732313a20617070726f76656420717565727920666f72206e6f6e657860008201527f697374656e7420746f6b656e0000000000000000000000000000000000000000602082015250565b7f2e6a736f6e000000000000000000000000000000000000000000000000000000600082015250565b7f4f776e61626c653a2063616c6c6572206973206e6f7420746865206f776e6572600082015250565b7f4552433732313a207472616e73666572206f6620746f6b656e2074686174206960008201527f73206e6f74206f776e0000000000000000000000000000000000000000000000602082015250565b7f4552433732314d657461646174613a2055524920717565727920666f72206e6f60008201527f6e6578697374656e7420746f6b656e0000000000000000000000000000000000602082015250565b7f4d494e543a2054686f73652069647320616c726561647920686176652062656560008201527f6e207573656420666f72206f7468657220637573746f6d657273000000000000602082015250565b7f57495448445241573a204e6f2062616c616e636520696e20636f6e7472616374600082015250565b7f4552433732313a20617070726f76616c20746f2063757272656e74206f776e6560008201527f7200000000000000000000000000000000000000000000000000000000000000602082015250565b50565b7f4d494e543a2043757272656e7420636f756e742065786365656473206d61786960008201527f6d756d206d696e7420636f756e742e0000000000000000000000000000000000602082015250565b7f4552433732313a207472616e736665722063616c6c6572206973206e6f74206f60008201527f776e6572206e6f7220617070726f766564000000000000000000000000000000602082015250565b7f455243373231456e756d657261626c653a20676c6f62616c20696e646578206f60008201527f7574206f6620626f756e64730000000000000000000000000000000000000000602082015250565b7f4d494e543a2043757272656e742076616c75652069732062656c6f772074686560008201527f2073616c6573207072696365206f662043727970746f204174686c6574657300602082015250565b7f4552433732314275726e61626c653a2063616c6c6572206973206e6f74206f7760008201527f6e6572206e6f7220617070726f76656400000000000000000000000000000000602082015250565b7f53414c45533a2053616c6520656e640000000000000000000000000000000000600082015250565b614e3581614302565b8114614e4057600080fd5b50565b614e4c81614314565b8114614e5757600080fd5b50565b614e6381614326565b8114614e6e57600080fd5b50565b614e7a81614332565b8114614e8557600080fd5b50565b614e918161437e565b8114614e9c57600080fd5b5056fea2646970667358221220696664896f093222fcca3bc608c1a496aaa25f17e39a715957a3d648ba222b1664736f6c63430008070033",
  "immutableReferences": {},
  "source": "// SPDX-License-Identifier: MIT\r\n\r\npragma solidity ^0.8.7;\r\n\r\nimport \"@openzeppelin/contracts/token/ERC721/ERC721.sol\";\r\nimport \"@openzeppelin/contracts/token/ERC721/extensions/ERC721Enumerable.sol\";\r\nimport \"@openzeppelin/contracts/token/ERC721/extensions/ERC721Burnable.sol\";\r\nimport \"@openzeppelin/contracts/access/Ownable.sol\";\r\nimport \"@openzeppelin/contracts/utils/math/SafeMath.sol\";\r\nimport \"@openzeppelin/contracts/utils/Counters.sol\";\r\nimport \"./ERC721Pausable.sol\";\r\n\r\ncontract CryptoAthletes is ERC721Enumerable, Ownable, ERC721Burnable, ERC721Pausable {\r\n\r\n    using SafeMath for uint256;\r\n    using Counters for Counters.Counter;\r\n\r\n    Counters.Counter private _tokenIdTracker;\r\n\r\n    uint256 private constant PRICE_PER_CA = 5 * 10**16; // 0.05ETH Per Crypto Athletes\r\n\r\n    uint256 private constant MAX_ELEMENTS_CROWDSALE = 1 * 10**4 + 20; // 10020 Crypto Athletes in CrowdSale\r\n    uint256 private constant MAX_ELEMENTS_PRESALE = 5 * 10**2; // 500 Crypto Athletes in PreSale\r\n\r\n    uint256 private constant MAX_MINT_CROWDSALE = 10; // Upper Limit is 10 in CrowdSale\r\n    uint256 private constant MAX_MINT_PRESALE = 2; // Upper Limit is 2 in PreSale\r\n\r\n    address private constant ownerAddress = 0x0081aD52FF7Eb8B5165777aa6adCf7d80cBF647D; // Wallet Address of Owner\r\n    address public constant developerAddress = 0xA7482C9c5926E88d85804A969c383730Ce100639; // Wallet Address of the Cory\r\n\r\n    mapping(uint256 => bool) private _isOccupiedId;\r\n\r\n    uint256 private maxSalesAmount;\r\n    uint256 private maxMintAmount;\r\n\r\n    string private baseTokenURI;\r\n\r\n    event CreateCryptoAthletes(uint256 indexed id);\r\n\r\n    modifier saleIsOpen {\r\n        require(_totalSupply() <= maxSalesAmount, \"SALES: Sale end\");\r\n\r\n        if (_msgSender() != owner()) {\r\n            require(!paused(), \"PAUSABLE: Paused\");\r\n        }\r\n        _;\r\n    }\r\n\r\n    constructor (string memory baseURI) ERC721(\"CryptoAthletes\", \"CATH\") {\r\n        setBaseURI(baseURI);\r\n        pause(true);\r\n\r\n        maxSalesAmount = MAX_ELEMENTS_CROWDSALE;\r\n        maxMintAmount = MAX_MINT_CROWDSALE;\r\n    }\r\n\r\n    function mint(address payable _to, uint256[] memory _ids) public payable saleIsOpen {\r\n        uint256 total = _totalSupply();\r\n\r\n        require(total + _ids.length <= maxSalesAmount, \"MINT: Current count exceeds maximum element count.\");\r\n        require(total <= maxSalesAmount, \"MINT: Please go to the Opensea to buy Crypto Athletes.\");\r\n        require(_ids.length <= maxMintAmount, \"MINT: Current count exceeds maximum mint count.\");\r\n        require(msg.value >= price(_ids.length), \"MINT: Current value is below the sales price of Crypto Athletes\");\r\n\r\n        for (uint256 i = 0; i < _ids.length; i++) {\r\n            require(_isOccupiedId[_ids[i]] == false, \"MINT: Those ids already have been used for other customers\");\r\n        }\r\n\r\n        for (uint256 i = 0; i < _ids.length; i++) {\r\n            _mintAnElement(_to, _ids[i]);\r\n        }\r\n    }\r\n\r\n    function _mintAnElement(address payable _to, uint256 _id) private {\r\n        _tokenIdTracker.increment();\r\n        _safeMint(_to, _id);\r\n        _isOccupiedId[_id] = true;\r\n\r\n        emit CreateCryptoAthletes(_id);\r\n    }\r\n\r\n    function setBaseURI(string memory baseURI) public onlyOwner {\r\n        baseTokenURI = baseURI;\r\n    }\r\n\r\n    function startPreSale() public onlyOwner {\r\n        maxSalesAmount = MAX_ELEMENTS_PRESALE;\r\n        maxMintAmount = MAX_MINT_PRESALE;\r\n    }\r\n\r\n    function stopPreSale() public onlyOwner {\r\n        maxSalesAmount = MAX_ELEMENTS_CROWDSALE;\r\n        maxMintAmount = MAX_MINT_CROWDSALE;\r\n    }\r\n\r\n    function _baseURI() internal view virtual override returns (string memory) {\r\n        return baseTokenURI;\r\n    }\r\n\r\n    function price(uint256 _count) public pure returns (uint256) {\r\n        return PRICE_PER_CA.mul(_count);\r\n    }\r\n\r\n    function _totalSupply() internal view returns (uint) {\r\n        return _tokenIdTracker.current();\r\n    }\r\n\r\n    function maxMint() public view returns (uint256) {\r\n        return maxMintAmount;\r\n    }\r\n\r\n    function maxSales() public view returns (uint256) {\r\n        return maxSalesAmount;\r\n    }\r\n\r\n    function raised() public view returns (uint256) {\r\n        return address(this).balance;\r\n    }\r\n\r\n    function getTokenIdsOfWallet(address _owner) external view returns (uint256[] memory) {\r\n        uint256 tokenCount = balanceOf(_owner);\r\n\r\n        uint256[] memory tokensId = new uint256[](tokenCount);\r\n\r\n        for (uint256 i = 0; i < tokenCount; i++) {\r\n            tokensId[i] = tokenOfOwnerByIndex(_owner, i);\r\n        }\r\n\r\n        return tokensId;\r\n    }\r\n\r\n    function pause(bool value) public onlyOwner {\r\n        if (value == true) {\r\n            _pause();\r\n\r\n            return;\r\n        }\r\n\r\n        _unpause();\r\n    }\r\n\r\n    function withdrawAll() public payable onlyOwner {\r\n        uint256 balance = address(this).balance;\r\n        require(balance > 0, \"WITHDRAW: No balance in contract\");\r\n\r\n        _widthdraw(developerAddress, balance.mul(3).div(100));\r\n        _widthdraw(ownerAddress, address(this).balance);\r\n    }\r\n\r\n    function _widthdraw(address _address, uint256 _amount) private {\r\n        (bool success, ) = _address.call{value: _amount}(\"\");\r\n        require(success, \"WITHDRAW: Transfer failed.\");\r\n    }\r\n\r\n    function _beforeTokenTransfer(\r\n        address from,\r\n        address to,\r\n        uint256 tokenId\r\n    ) internal virtual override(ERC721, ERC721Enumerable, ERC721Pausable) {\r\n        super._beforeTokenTransfer(from, to, tokenId);\r\n    }\r\n\r\n    function supportsInterface(bytes4 interfaceId) public view virtual override(ERC721, ERC721Enumerable) returns (bool) {\r\n        return super.supportsInterface(interfaceId);\r\n    }\r\n}",
  "sourcePath": "F:\\Cory_Career\\Crypto_Athletes\\crypto-athletes-s1-website\\contracts\\CryptoAthletes.sol",
  "compiler": {
    "name": "solc",
    "version": "0.8.7+commit.e28d00a7.Emscripten.clang"
  },
  "schemaVersion": "3.4.3",
  "updatedAt": "2021-09-23T12:36:18.765Z",
  "networkType": "ethereum",
  "devdoc": {
    "kind": "dev",
    "methods": {
      "approve(address,uint256)": {
        "details": "See {IERC721-approve}."
      },
      "balanceOf(address)": {
        "details": "See {IERC721-balanceOf}."
      },
      "burn(uint256)": {
        "details": "Burns `tokenId`. See {ERC721-_burn}. Requirements: - The caller must own `tokenId` or be an approved operator."
      },
      "getApproved(uint256)": {
        "details": "See {IERC721-getApproved}."
      },
      "isApprovedForAll(address,address)": {
        "details": "See {IERC721-isApprovedForAll}."
      },
      "name()": {
        "details": "See {IERC721Metadata-name}."
      },
      "owner()": {
        "details": "Returns the address of the current owner."
      },
      "ownerOf(uint256)": {
        "details": "See {IERC721-ownerOf}."
      },
      "paused()": {
        "details": "Returns true if the contract is paused, and false otherwise."
      },
      "renounceOwnership()": {
        "details": "Leaves the contract without owner. It will not be possible to call `onlyOwner` functions anymore. Can only be called by the current owner. NOTE: Renouncing ownership will leave the contract without an owner, thereby removing any functionality that is only available to the owner."
      },
      "safeTransferFrom(address,address,uint256)": {
        "details": "See {IERC721-safeTransferFrom}."
      },
      "safeTransferFrom(address,address,uint256,bytes)": {
        "details": "See {IERC721-safeTransferFrom}."
      },
      "setApprovalForAll(address,bool)": {
        "details": "See {IERC721-setApprovalForAll}."
      },
      "symbol()": {
        "details": "See {IERC721Metadata-symbol}."
      },
      "tokenByIndex(uint256)": {
        "details": "See {IERC721Enumerable-tokenByIndex}."
      },
      "tokenOfOwnerByIndex(address,uint256)": {
        "details": "See {IERC721Enumerable-tokenOfOwnerByIndex}."
      },
      "tokenURI(uint256)": {
        "details": "See {IERC721Metadata-tokenURI}."
      },
      "totalSupply()": {
        "details": "See {IERC721Enumerable-totalSupply}."
      },
      "transferFrom(address,address,uint256)": {
        "details": "See {IERC721-transferFrom}."
      },
      "transferOwnership(address)": {
        "details": "Transfers ownership of the contract to a new account (`newOwner`). Can only be called by the current owner."
      }
    },
    "version": 1
  },
  "userdoc": {
    "kind": "user",
    "methods": {},
    "version": 1
  }
}