{
  "contractName": "CryptoAthletes",
  "abi": [
    {
      "inputs": [
        {
          "internalType": "string",
          "name": "baseURI",
          "type": "string"
        }
      ],
      "stateMutability": "nonpayable",
      "type": "constructor"
    },
    {
      "anonymous": false,
      "inputs": [
        {
          "indexed": true,
          "internalType": "address",
          "name": "owner",
          "type": "address"
        },
        {
          "indexed": true,
          "internalType": "address",
          "name": "approved",
          "type": "address"
        },
        {
          "indexed": true,
          "internalType": "uint256",
          "name": "tokenId",
          "type": "uint256"
        }
      ],
      "name": "Approval",
      "type": "event"
    },
    {
      "anonymous": false,
      "inputs": [
        {
          "indexed": true,
          "internalType": "address",
          "name": "owner",
          "type": "address"
        },
        {
          "indexed": true,
          "internalType": "address",
          "name": "operator",
          "type": "address"
        },
        {
          "indexed": false,
          "internalType": "bool",
          "name": "approved",
          "type": "bool"
        }
      ],
      "name": "ApprovalForAll",
      "type": "event"
    },
    {
      "anonymous": false,
      "inputs": [
        {
          "indexed": false,
          "internalType": "address",
          "name": "to",
          "type": "address"
        },
        {
          "indexed": true,
          "internalType": "uint256",
          "name": "id",
          "type": "uint256"
        }
      ],
      "name": "CreateCryptoAthletes",
      "type": "event"
    },
    {
      "anonymous": false,
      "inputs": [
        {
          "indexed": true,
          "internalType": "address",
          "name": "previousOwner",
          "type": "address"
        },
        {
          "indexed": true,
          "internalType": "address",
          "name": "newOwner",
          "type": "address"
        }
      ],
      "name": "OwnershipTransferred",
      "type": "event"
    },
    {
      "anonymous": false,
      "inputs": [
        {
          "indexed": false,
          "internalType": "address",
          "name": "account",
          "type": "address"
        }
      ],
      "name": "Paused",
      "type": "event"
    },
    {
      "anonymous": false,
      "inputs": [
        {
          "indexed": true,
          "internalType": "address",
          "name": "from",
          "type": "address"
        },
        {
          "indexed": true,
          "internalType": "address",
          "name": "to",
          "type": "address"
        },
        {
          "indexed": true,
          "internalType": "uint256",
          "name": "tokenId",
          "type": "uint256"
        }
      ],
      "name": "Transfer",
      "type": "event"
    },
    {
      "anonymous": false,
      "inputs": [
        {
          "indexed": false,
          "internalType": "address",
          "name": "account",
          "type": "address"
        }
      ],
      "name": "Unpaused",
      "type": "event"
    },
    {
      "inputs": [
        {
          "internalType": "address",
          "name": "to",
          "type": "address"
        },
        {
          "internalType": "uint256",
          "name": "tokenId",
          "type": "uint256"
        }
      ],
      "name": "approve",
      "outputs": [],
      "stateMutability": "nonpayable",
      "type": "function"
    },
    {
      "inputs": [
        {
          "internalType": "address",
          "name": "owner",
          "type": "address"
        }
      ],
      "name": "balanceOf",
      "outputs": [
        {
          "internalType": "uint256",
          "name": "",
          "type": "uint256"
        }
      ],
      "stateMutability": "view",
      "type": "function",
      "constant": true
    },
    {
      "inputs": [
        {
          "internalType": "uint256",
          "name": "tokenId",
          "type": "uint256"
        }
      ],
      "name": "burn",
      "outputs": [],
      "stateMutability": "nonpayable",
      "type": "function"
    },
    {
      "inputs": [],
      "name": "developerAddress",
      "outputs": [
        {
          "internalType": "address",
          "name": "",
          "type": "address"
        }
      ],
      "stateMutability": "view",
      "type": "function",
      "constant": true
    },
    {
      "inputs": [
        {
          "internalType": "uint256",
          "name": "tokenId",
          "type": "uint256"
        }
      ],
      "name": "getApproved",
      "outputs": [
        {
          "internalType": "address",
          "name": "",
          "type": "address"
        }
      ],
      "stateMutability": "view",
      "type": "function",
      "constant": true
    },
    {
      "inputs": [
        {
          "internalType": "address",
          "name": "owner",
          "type": "address"
        },
        {
          "internalType": "address",
          "name": "operator",
          "type": "address"
        }
      ],
      "name": "isApprovedForAll",
      "outputs": [
        {
          "internalType": "bool",
          "name": "",
          "type": "bool"
        }
      ],
      "stateMutability": "view",
      "type": "function",
      "constant": true
    },
    {
      "inputs": [],
      "name": "name",
      "outputs": [
        {
          "internalType": "string",
          "name": "",
          "type": "string"
        }
      ],
      "stateMutability": "view",
      "type": "function",
      "constant": true
    },
    {
      "inputs": [],
      "name": "owner",
      "outputs": [
        {
          "internalType": "address",
          "name": "",
          "type": "address"
        }
      ],
      "stateMutability": "view",
      "type": "function",
      "constant": true
    },
    {
      "inputs": [
        {
          "internalType": "uint256",
          "name": "tokenId",
          "type": "uint256"
        }
      ],
      "name": "ownerOf",
      "outputs": [
        {
          "internalType": "address",
          "name": "",
          "type": "address"
        }
      ],
      "stateMutability": "view",
      "type": "function",
      "constant": true
    },
    {
      "inputs": [],
      "name": "paused",
      "outputs": [
        {
          "internalType": "bool",
          "name": "",
          "type": "bool"
        }
      ],
      "stateMutability": "view",
      "type": "function",
      "constant": true
    },
    {
      "inputs": [],
      "name": "renounceOwnership",
      "outputs": [],
      "stateMutability": "nonpayable",
      "type": "function"
    },
    {
      "inputs": [
        {
          "internalType": "address",
          "name": "from",
          "type": "address"
        },
        {
          "internalType": "address",
          "name": "to",
          "type": "address"
        },
        {
          "internalType": "uint256",
          "name": "tokenId",
          "type": "uint256"
        }
      ],
      "name": "safeTransferFrom",
      "outputs": [],
      "stateMutability": "nonpayable",
      "type": "function"
    },
    {
      "inputs": [
        {
          "internalType": "address",
          "name": "from",
          "type": "address"
        },
        {
          "internalType": "address",
          "name": "to",
          "type": "address"
        },
        {
          "internalType": "uint256",
          "name": "tokenId",
          "type": "uint256"
        },
        {
          "internalType": "bytes",
          "name": "_data",
          "type": "bytes"
        }
      ],
      "name": "safeTransferFrom",
      "outputs": [],
      "stateMutability": "nonpayable",
      "type": "function"
    },
    {
      "inputs": [
        {
          "internalType": "address",
          "name": "operator",
          "type": "address"
        },
        {
          "internalType": "bool",
          "name": "approved",
          "type": "bool"
        }
      ],
      "name": "setApprovalForAll",
      "outputs": [],
      "stateMutability": "nonpayable",
      "type": "function"
    },
    {
      "inputs": [],
      "name": "symbol",
      "outputs": [
        {
          "internalType": "string",
          "name": "",
          "type": "string"
        }
      ],
      "stateMutability": "view",
      "type": "function",
      "constant": true
    },
    {
      "inputs": [
        {
          "internalType": "uint256",
          "name": "index",
          "type": "uint256"
        }
      ],
      "name": "tokenByIndex",
      "outputs": [
        {
          "internalType": "uint256",
          "name": "",
          "type": "uint256"
        }
      ],
      "stateMutability": "view",
      "type": "function",
      "constant": true
    },
    {
      "inputs": [
        {
          "internalType": "address",
          "name": "owner",
          "type": "address"
        },
        {
          "internalType": "uint256",
          "name": "index",
          "type": "uint256"
        }
      ],
      "name": "tokenOfOwnerByIndex",
      "outputs": [
        {
          "internalType": "uint256",
          "name": "",
          "type": "uint256"
        }
      ],
      "stateMutability": "view",
      "type": "function",
      "constant": true
    },
    {
      "inputs": [
        {
          "internalType": "uint256",
          "name": "tokenId",
          "type": "uint256"
        }
      ],
      "name": "tokenURI",
      "outputs": [
        {
          "internalType": "string",
          "name": "",
          "type": "string"
        }
      ],
      "stateMutability": "view",
      "type": "function",
      "constant": true
    },
    {
      "inputs": [],
      "name": "totalSupply",
      "outputs": [
        {
          "internalType": "uint256",
          "name": "",
          "type": "uint256"
        }
      ],
      "stateMutability": "view",
      "type": "function",
      "constant": true
    },
    {
      "inputs": [
        {
          "internalType": "address",
          "name": "from",
          "type": "address"
        },
        {
          "internalType": "address",
          "name": "to",
          "type": "address"
        },
        {
          "internalType": "uint256",
          "name": "tokenId",
          "type": "uint256"
        }
      ],
      "name": "transferFrom",
      "outputs": [],
      "stateMutability": "nonpayable",
      "type": "function"
    },
    {
      "inputs": [
        {
          "internalType": "address",
          "name": "newOwner",
          "type": "address"
        }
      ],
      "name": "transferOwnership",
      "outputs": [],
      "stateMutability": "nonpayable",
      "type": "function"
    },
    {
      "inputs": [
        {
          "internalType": "address payable",
          "name": "_to",
          "type": "address"
        },
        {
          "internalType": "uint256[]",
          "name": "_ids",
          "type": "uint256[]"
        }
      ],
      "name": "mint",
      "outputs": [],
      "stateMutability": "payable",
      "type": "function",
      "payable": true
    },
    {
      "inputs": [
        {
          "internalType": "string",
          "name": "baseURI",
          "type": "string"
        }
      ],
      "name": "setBaseURI",
      "outputs": [],
      "stateMutability": "nonpayable",
      "type": "function"
    },
    {
      "inputs": [],
      "name": "startPreSale",
      "outputs": [],
      "stateMutability": "nonpayable",
      "type": "function"
    },
    {
      "inputs": [],
      "name": "stopPreSale",
      "outputs": [],
      "stateMutability": "nonpayable",
      "type": "function"
    },
    {
      "inputs": [
        {
          "internalType": "uint256",
          "name": "_count",
          "type": "uint256"
        }
      ],
      "name": "price",
      "outputs": [
        {
          "internalType": "uint256",
          "name": "",
          "type": "uint256"
        }
      ],
      "stateMutability": "pure",
      "type": "function",
      "constant": true
    },
    {
      "inputs": [],
      "name": "maxMint",
      "outputs": [
        {
          "internalType": "uint256",
          "name": "",
          "type": "uint256"
        }
      ],
      "stateMutability": "view",
      "type": "function",
      "constant": true
    },
    {
      "inputs": [],
      "name": "maxSales",
      "outputs": [
        {
          "internalType": "uint256",
          "name": "",
          "type": "uint256"
        }
      ],
      "stateMutability": "view",
      "type": "function",
      "constant": true
    },
    {
      "inputs": [],
      "name": "raised",
      "outputs": [
        {
          "internalType": "uint256",
          "name": "",
          "type": "uint256"
        }
      ],
      "stateMutability": "view",
      "type": "function",
      "constant": true
    },
    {
      "inputs": [
        {
          "internalType": "address",
          "name": "_owner",
          "type": "address"
        }
      ],
      "name": "getTokenIdsOfWallet",
      "outputs": [
        {
          "internalType": "uint256[]",
          "name": "",
          "type": "uint256[]"
        }
      ],
      "stateMutability": "view",
      "type": "function",
      "constant": true
    },
    {
      "inputs": [
        {
          "internalType": "bool",
          "name": "value",
          "type": "bool"
        }
      ],
      "name": "pause",
      "outputs": [],
      "stateMutability": "nonpayable",
      "type": "function"
    },
    {
      "inputs": [],
      "name": "withdrawAll",
      "outputs": [],
      "stateMutability": "payable",
      "type": "function",
      "payable": true
    },
    {
      "inputs": [
        {
          "internalType": "bytes4",
          "name": "interfaceId",
          "type": "bytes4"
        }
      ],
      "name": "supportsInterface",
      "outputs": [
        {
          "internalType": "bool",
          "name": "",
          "type": "bool"
        }
      ],
      "stateMutability": "view",
      "type": "function",
      "constant": true
    }
  ],
  "bytecode": "0x60806040523480156200001157600080fd5b50604051620059593803806200595983398181016040528101906200003791906200066b565b6040518060400160405280600e81526020017f43727970746f4174686c657465730000000000000000000000000000000000008152506040518060400160405280600481526020017f43415448000000000000000000000000000000000000000000000000000000008152508160009080519060200190620000bb9291906200053d565b508060019080519060200190620000d49291906200053d565b505050620000f7620000eb6200014d60201b60201c565b6200015560201b60201c565b6000600a60146101000a81548160ff02191690831515021790555062000123816200021b60201b60201c565b620001356001620002c660201b60201c565b612724600d819055506014600e819055505062000a09565b600033905090565b6000600a60009054906101000a900473ffffffffffffffffffffffffffffffffffffffff16905081600a60006101000a81548173ffffffffffffffffffffffffffffffffffffffff021916908373ffffffffffffffffffffffffffffffffffffffff1602179055508173ffffffffffffffffffffffffffffffffffffffff168173ffffffffffffffffffffffffffffffffffffffff167f8be0079c531659141344cd1fd0a4f28419497f9722a3daafe3b4186f6b6457e060405160405180910390a35050565b6200022b6200014d60201b60201c565b73ffffffffffffffffffffffffffffffffffffffff16620002516200038d60201b60201c565b73ffffffffffffffffffffffffffffffffffffffff1614620002aa576040517f08c379a0000000000000000000000000000000000000000000000000000000008152600401620002a190620007a3565b60405180910390fd5b80600f9080519060200190620002c29291906200053d565b5050565b620002d66200014d60201b60201c565b73ffffffffffffffffffffffffffffffffffffffff16620002fc6200038d60201b60201c565b73ffffffffffffffffffffffffffffffffffffffff161462000355576040517f08c379a00000000000000000000000000000000000000000000000000000000081526004016200034c90620007a3565b60405180910390fd5b600115158115151415620003795762000373620003b760201b60201c565b6200038a565b620003896200046f60201b60201c565b5b50565b6000600a60009054906101000a900473ffffffffffffffffffffffffffffffffffffffff16905090565b620003c76200052660201b60201c565b156200040a576040517f08c379a0000000000000000000000000000000000000000000000000000000008152600401620004019062000781565b60405180910390fd5b6001600a60146101000a81548160ff0219169083151502179055507f62e78cea01bee320cd4e420270b5ea74000d11b0c9f74754ebdbfc544b05a258620004566200014d60201b60201c565b60405162000465919062000742565b60405180910390a1565b6200047f6200052660201b60201c565b620004c1576040517f08c379a0000000000000000000000000000000000000000000000000000000008152600401620004b8906200075f565b60405180910390fd5b6000600a60146101000a81548160ff0219169083151502179055507f5db9ee0a495bf2e6ff9c91a7834c1ba4fdd244a5e8aa4e537bd38aeae4b073aa6200050d6200014d60201b60201c565b6040516200051c919062000742565b60405180910390a1565b6000600a60149054906101000a900460ff16905090565b8280546200054b906200089f565b90600052602060002090601f0160209004810192826200056f5760008555620005bb565b82601f106200058a57805160ff1916838001178555620005bb565b82800160010185558215620005bb579182015b82811115620005ba5782518255916020019190600101906200059d565b5b509050620005ca9190620005ce565b5090565b5b80821115620005e9576000816000905550600101620005cf565b5090565b600062000604620005fe84620007ee565b620007c5565b9050828152602081018484840111156200062357620006226200096e565b5b6200063084828562000869565b509392505050565b600082601f83011262000650576200064f62000969565b5b815162000662848260208601620005ed565b91505092915050565b60006020828403121562000684576200068362000978565b5b600082015167ffffffffffffffff811115620006a557620006a462000973565b5b620006b38482850162000638565b91505092915050565b620006c78162000835565b82525050565b6000620006dc60148362000824565b9150620006e9826200098e565b602082019050919050565b60006200070360108362000824565b91506200071082620009b7565b602082019050919050565b60006200072a60208362000824565b91506200073782620009e0565b602082019050919050565b6000602082019050620007596000830184620006bc565b92915050565b600060208201905081810360008301526200077a81620006cd565b9050919050565b600060208201905081810360008301526200079c81620006f4565b9050919050565b60006020820190508181036000830152620007be816200071b565b9050919050565b6000620007d1620007e4565b9050620007df8282620008d5565b919050565b6000604051905090565b600067ffffffffffffffff8211156200080c576200080b6200093a565b5b62000817826200097d565b9050602081019050919050565b600082825260208201905092915050565b6000620008428262000849565b9050919050565b600073ffffffffffffffffffffffffffffffffffffffff82169050919050565b60005b83811015620008895780820151818401526020810190506200086c565b8381111562000899576000848401525b50505050565b60006002820490506001821680620008b857607f821691505b60208210811415620008cf57620008ce6200090b565b5b50919050565b620008e0826200097d565b810181811067ffffffffffffffff821117156200090257620009016200093a565b5b80604052505050565b7f4e487b7100000000000000000000000000000000000000000000000000000000600052602260045260246000fd5b7f4e487b7100000000000000000000000000000000000000000000000000000000600052604160045260246000fd5b600080fd5b600080fd5b600080fd5b600080fd5b6000601f19601f8301169050919050565b7f5061757361626c653a206e6f7420706175736564000000000000000000000000600082015250565b7f5061757361626c653a2070617573656400000000000000000000000000000000600082015250565b7f4f776e61626c653a2063616c6c6572206973206e6f7420746865206f776e6572600082015250565b614f408062000a196000396000f3fe6080604052600436106101ee5760003560e01c806370a082311161010d578063bfdf9b6e116100a0578063e985e9c51161006f578063e985e9c5146106cf578063eef625081461070c578063f0ea4bfc14610749578063f2fde38b14610774578063f8fb33661461079d576101ee565b8063bfdf9b6e14610620578063c87b56dd1461064b578063caccd7f714610688578063de836ebd146106b3576101ee565b80638da5cb5b116100dc5780638da5cb5b1461057857806395d89b41146105a3578063a22cb465146105ce578063b88d4fde146105f7576101ee565b806370a08231146104ef578063715018a61461052c5780637501f74114610543578063853828b61461056e576101ee565b80632f745c591161018557806355dd574c1161015457806355dd574c1461044757806355f804b31461045e5780635c975abb146104875780636352211e146104b2576101ee565b80632f745c591461037b57806342842e0e146103b857806342966c68146103e15780634f6ccce71461040a576101ee565b8063095ea7b3116101c1578063095ea7b3146102c157806318160ddd146102ea57806323b872dd1461031557806326a49e371461033e576101ee565b806301ffc9a7146101f357806302329a291461023057806306fdde0314610259578063081812fc14610284575b600080fd5b3480156101ff57600080fd5b5061021a60048036038101906102159190613511565b6107b4565b6040516102279190613cb0565b60405180910390f35b34801561023c57600080fd5b50610257600480360381019061025291906134e4565b6107c6565b005b34801561026557600080fd5b5061026e610868565b60405161027b9190613ccb565b60405180910390f35b34801561029057600080fd5b506102ab60048036038101906102a691906135b4565b6108fa565b6040516102b89190613c0c565b60405180910390f35b3480156102cd57600080fd5b506102e860048036038101906102e391906134a4565b61097f565b005b3480156102f657600080fd5b506102ff610a97565b60405161030c91906140cd565b60405180910390f35b34801561032157600080fd5b5061033c6004803603810190610337919061338e565b610aa4565b005b34801561034a57600080fd5b50610365600480360381019061036091906135b4565b610b04565b60405161037291906140cd565b60405180910390f35b34801561038757600080fd5b506103a2600480360381019061039d91906134a4565b610b27565b6040516103af91906140cd565b60405180910390f35b3480156103c457600080fd5b506103df60048036038101906103da919061338e565b610bcc565b005b3480156103ed57600080fd5b50610408600480360381019061040391906135b4565b610bec565b005b34801561041657600080fd5b50610431600480360381019061042c91906135b4565b610c48565b60405161043e91906140cd565b60405180910390f35b34801561045357600080fd5b5061045c610cb9565b005b34801561046a57600080fd5b506104856004803603810190610480919061356b565b610d48565b005b34801561049357600080fd5b5061049c610dde565b6040516104a99190613cb0565b60405180910390f35b3480156104be57600080fd5b506104d960048036038101906104d491906135b4565b610df5565b6040516104e69190613c0c565b60405180910390f35b3480156104fb57600080fd5b50610516600480360381019061051191906132c5565b610ea7565b60405161052391906140cd565b60405180910390f35b34801561053857600080fd5b50610541610f5f565b005b34801561054f57600080fd5b50610558610fe7565b60405161056591906140cd565b60405180910390f35b610576610ff1565b005b34801561058457600080fd5b5061058d611119565b60405161059a9190613c0c565b60405180910390f35b3480156105af57600080fd5b506105b8611143565b6040516105c59190613ccb565b60405180910390f35b3480156105da57600080fd5b506105f560048036038101906105f09190613464565b6111d5565b005b34801561060357600080fd5b5061061e600480360381019061061991906133e1565b611356565b005b34801561062c57600080fd5b506106356113b8565b60405161064291906140cd565b60405180910390f35b34801561065757600080fd5b50610672600480360381019061066d91906135b4565b6113c2565b60405161067f9190613ccb565b60405180910390f35b34801561069457600080fd5b5061069d611469565b6040516106aa9190613c0c565b60405180910390f35b6106cd60048036038101906106c891906132f2565b611481565b005b3480156106db57600080fd5b506106f660048036038101906106f1919061334e565b611775565b6040516107039190613cb0565b60405180910390f35b34801561071857600080fd5b50610733600480360381019061072e91906132c5565b611809565b6040516107409190613c8e565b60405180910390f35b34801561075557600080fd5b5061075e6118b7565b60405161076b91906140cd565b60405180910390f35b34801561078057600080fd5b5061079b600480360381019061079691906132c5565b6118bf565b005b3480156107a957600080fd5b506107b26119b7565b005b60006107bf82611a46565b9050919050565b6107ce611ac0565b73ffffffffffffffffffffffffffffffffffffffff166107ec611119565b73ffffffffffffffffffffffffffffffffffffffff1614610842576040517f08c379a000000000000000000000000000000000000000000000000000000000815260040161083990613f4d565b60405180910390fd5b60011515811515141561085c57610857611ac8565b610865565b610864611b6b565b5b50565b60606000805461087790614435565b80601f01602080910402602001604051908101604052809291908181526020018280546108a390614435565b80156108f05780601f106108c5576101008083540402835291602001916108f0565b820191906000526020600020905b8154815290600101906020018083116108d357829003601f168201915b5050505050905090565b600061090582611c0d565b610944576040517f08c379a000000000000000000000000000000000000000000000000000000000815260040161093b90613f2d565b60405180910390fd5b6004600083815260200190815260200160002060009054906101000a900473ffffffffffffffffffffffffffffffffffffffff169050919050565b600061098a82610df5565b90508073ffffffffffffffffffffffffffffffffffffffff168373ffffffffffffffffffffffffffffffffffffffff1614156109fb576040517f08c379a00000000000000000000000000000000000000000000000000000000081526004016109f290613fed565b60405180910390fd5b8073ffffffffffffffffffffffffffffffffffffffff16610a1a611ac0565b73ffffffffffffffffffffffffffffffffffffffff161480610a495750610a4881610a43611ac0565b611775565b5b610a88576040517f08c379a0000000000000000000000000000000000000000000000000000000008152600401610a7f90613ead565b60405180910390fd5b610a928383611c79565b505050565b6000600880549050905090565b610ab5610aaf611ac0565b82611d32565b610af4576040517f08c379a0000000000000000000000000000000000000000000000000000000008152600401610aeb9061402d565b60405180910390fd5b610aff838383611e10565b505050565b6000610b208266b1a2bc2ec5000061206c90919063ffffffff16565b9050919050565b6000610b3283610ea7565b8210610b73576040517f08c379a0000000000000000000000000000000000000000000000000000000008152600401610b6a90613d2d565b60405180910390fd5b600660008473ffffffffffffffffffffffffffffffffffffffff1673ffffffffffffffffffffffffffffffffffffffff168152602001908152602001600020600083815260200190815260200160002054905092915050565b610be783838360405180602001604052806000815250611356565b505050565b610bfd610bf7611ac0565b82611d32565b610c3c576040517f08c379a0000000000000000000000000000000000000000000000000000000008152600401610c339061408d565b60405180910390fd5b610c4581612082565b50565b6000610c52610a97565b8210610c93576040517f08c379a0000000000000000000000000000000000000000000000000000000008152600401610c8a9061404d565b60405180910390fd5b60088281548110610ca757610ca66145ce565b5b90600052602060002001549050919050565b610cc1611ac0565b73ffffffffffffffffffffffffffffffffffffffff16610cdf611119565b73ffffffffffffffffffffffffffffffffffffffff1614610d35576040517f08c379a0000000000000000000000000000000000000000000000000000000008152600401610d2c90613f4d565b60405180910390fd5b6101f4600d819055506005600e81905550565b610d50611ac0565b73ffffffffffffffffffffffffffffffffffffffff16610d6e611119565b73ffffffffffffffffffffffffffffffffffffffff1614610dc4576040517f08c379a0000000000000000000000000000000000000000000000000000000008152600401610dbb90613f4d565b60405180910390fd5b80600f9080519060200190610dda929190613026565b5050565b6000600a60149054906101000a900460ff16905090565b6000806002600084815260200190815260200160002060009054906101000a900473ffffffffffffffffffffffffffffffffffffffff169050600073ffffffffffffffffffffffffffffffffffffffff168173ffffffffffffffffffffffffffffffffffffffff161415610e9e576040517f08c379a0000000000000000000000000000000000000000000000000000000008152600401610e9590613eed565b60405180910390fd5b80915050919050565b60008073ffffffffffffffffffffffffffffffffffffffff168273ffffffffffffffffffffffffffffffffffffffff161415610f18576040517f08c379a0000000000000000000000000000000000000000000000000000000008152600401610f0f90613ecd565b60405180910390fd5b600360008373ffffffffffffffffffffffffffffffffffffffff1673ffffffffffffffffffffffffffffffffffffffff168152602001908152602001600020549050919050565b610f67611ac0565b73ffffffffffffffffffffffffffffffffffffffff16610f85611119565b73ffffffffffffffffffffffffffffffffffffffff1614610fdb576040517f08c379a0000000000000000000000000000000000000000000000000000000008152600401610fd290613f4d565b60405180910390fd5b610fe56000612193565b565b6000600e54905090565b610ff9611ac0565b73ffffffffffffffffffffffffffffffffffffffff16611017611119565b73ffffffffffffffffffffffffffffffffffffffff161461106d576040517f08c379a000000000000000000000000000000000000000000000000000000000815260040161106490613f4d565b60405180910390fd5b6000479050600081116110b5576040517f08c379a00000000000000000000000000000000000000000000000000000000081526004016110ac90613fcd565b60405180910390fd5b6110f973a7482c9c5926e88d85804a969c383730ce1006396110f460646110e660038661206c90919063ffffffff16565b61225990919063ffffffff16565b61226f565b6111167281ad52ff7eb8b5165777aa6adcf7d80cbf647d4761226f565b50565b6000600a60009054906101000a900473ffffffffffffffffffffffffffffffffffffffff16905090565b60606001805461115290614435565b80601f016020809104026020016040519081016040528092919081815260200182805461117e90614435565b80156111cb5780601f106111a0576101008083540402835291602001916111cb565b820191906000526020600020905b8154815290600101906020018083116111ae57829003601f168201915b5050505050905090565b6111dd611ac0565b73ffffffffffffffffffffffffffffffffffffffff168273ffffffffffffffffffffffffffffffffffffffff16141561124b576040517f08c379a000000000000000000000000000000000000000000000000000000000815260040161124290613e4d565b60405180910390fd5b8060056000611258611ac0565b73ffffffffffffffffffffffffffffffffffffffff1673ffffffffffffffffffffffffffffffffffffffff16815260200190815260200160002060008473ffffffffffffffffffffffffffffffffffffffff1673ffffffffffffffffffffffffffffffffffffffff16815260200190815260200160002060006101000a81548160ff0219169083151502179055508173ffffffffffffffffffffffffffffffffffffffff16611305611ac0565b73ffffffffffffffffffffffffffffffffffffffff167f17307eab39ab6107e8899845ad3d59bd9653f200f220920489ca2b5937696c318360405161134a9190613cb0565b60405180910390a35050565b611367611361611ac0565b83611d32565b6113a6576040517f08c379a000000000000000000000000000000000000000000000000000000000815260040161139d9061402d565b60405180910390fd5b6113b284848484612320565b50505050565b6000600d54905090565b60606113cd82611c0d565b61140c576040517f08c379a000000000000000000000000000000000000000000000000000000000815260040161140390613f8d565b60405180910390fd5b600061141661237c565b905060008151116114365760405180602001604052806000815250611461565b806114408461240e565b604051602001611451929190613bc8565b6040516020818303038152906040525b915050919050565b73a7482c9c5926e88d85804a969c383730ce10063981565b600d5461148c61256f565b11156114cd576040517f08c379a00000000000000000000000000000000000000000000000000000000081526004016114c4906140ad565b60405180910390fd5b6114d5611119565b73ffffffffffffffffffffffffffffffffffffffff166114f3611ac0565b73ffffffffffffffffffffffffffffffffffffffff161461155757611516610dde565b15611556576040517f08c379a000000000000000000000000000000000000000000000000000000000815260040161154d90613d6d565b60405180910390fd5b5b600061156161256f565b9050600d548251826115739190614222565b11156115b4576040517f08c379a00000000000000000000000000000000000000000000000000000000081526004016115ab90613d8d565b60405180910390fd5b600d548111156115f9576040517f08c379a00000000000000000000000000000000000000000000000000000000081526004016115f090613ded565b60405180910390fd5b600e548251111561163f576040517f08c379a00000000000000000000000000000000000000000000000000000000081526004016116369061400d565b60405180910390fd5b6116498251610b04565b34101561168b576040517f08c379a00000000000000000000000000000000000000000000000000000000081526004016116829061406d565b60405180910390fd5b60005b825181101561172b5760001515600c60008584815181106116b2576116b16145ce565b5b6020026020010151815260200190815260200160002060009054906101000a900460ff16151514611718576040517f08c379a000000000000000000000000000000000000000000000000000000000815260040161170f90613fad565b60405180910390fd5b808061172390614498565b91505061168e565b5060005b825181101561176f5761175c8484838151811061174f5761174e6145ce565b5b6020026020010151612580565b808061176790614498565b91505061172f565b50505050565b6000600560008473ffffffffffffffffffffffffffffffffffffffff1673ffffffffffffffffffffffffffffffffffffffff16815260200190815260200160002060008373ffffffffffffffffffffffffffffffffffffffff1673ffffffffffffffffffffffffffffffffffffffff16815260200190815260200160002060009054906101000a900460ff16905092915050565b6060600061181683610ea7565b905060008167ffffffffffffffff811115611834576118336145fd565b5b6040519080825280602002602001820160405280156118625781602001602082028036833780820191505090505b50905060005b828110156118ac5761187a8582610b27565b82828151811061188d5761188c6145ce565b5b60200260200101818152505080806118a490614498565b915050611868565b508092505050919050565b600047905090565b6118c7611ac0565b73ffffffffffffffffffffffffffffffffffffffff166118e5611119565b73ffffffffffffffffffffffffffffffffffffffff161461193b576040517f08c379a000000000000000000000000000000000000000000000000000000000815260040161193290613f4d565b60405180910390fd5b600073ffffffffffffffffffffffffffffffffffffffff168173ffffffffffffffffffffffffffffffffffffffff1614156119ab576040517f08c379a00000000000000000000000000000000000000000000000000000000081526004016119a290613dad565b60405180910390fd5b6119b481612193565b50565b6119bf611ac0565b73ffffffffffffffffffffffffffffffffffffffff166119dd611119565b73ffffffffffffffffffffffffffffffffffffffff1614611a33576040517f08c379a0000000000000000000000000000000000000000000000000000000008152600401611a2a90613f4d565b60405180910390fd5b612724600d819055506014600e81905550565b60007f780e9d63000000000000000000000000000000000000000000000000000000007bffffffffffffffffffffffffffffffffffffffffffffffffffffffff1916827bffffffffffffffffffffffffffffffffffffffffffffffffffffffff19161480611ab95750611ab8826125fc565b5b9050919050565b600033905090565b611ad0610dde565b15611b10576040517f08c379a0000000000000000000000000000000000000000000000000000000008152600401611b0790613e8d565b60405180910390fd5b6001600a60146101000a81548160ff0219169083151502179055507f62e78cea01bee320cd4e420270b5ea74000d11b0c9f74754ebdbfc544b05a258611b54611ac0565b604051611b619190613c0c565b60405180910390a1565b611b73610dde565b611bb2576040517f08c379a0000000000000000000000000000000000000000000000000000000008152600401611ba990613d0d565b60405180910390fd5b6000600a60146101000a81548160ff0219169083151502179055507f5db9ee0a495bf2e6ff9c91a7834c1ba4fdd244a5e8aa4e537bd38aeae4b073aa611bf6611ac0565b604051611c039190613c0c565b60405180910390a1565b60008073ffffffffffffffffffffffffffffffffffffffff166002600084815260200190815260200160002060009054906101000a900473ffffffffffffffffffffffffffffffffffffffff1673ffffffffffffffffffffffffffffffffffffffff1614159050919050565b816004600083815260200190815260200160002060006101000a81548173ffffffffffffffffffffffffffffffffffffffff021916908373ffffffffffffffffffffffffffffffffffffffff160217905550808273ffffffffffffffffffffffffffffffffffffffff16611cec83610df5565b73ffffffffffffffffffffffffffffffffffffffff167f8c5be1e5ebec7d5bd14f71427d1e84f3dd0314c0f7b2291e5b200ac8c7c3b92560405160405180910390a45050565b6000611d3d82611c0d565b611d7c576040517f08c379a0000000000000000000000000000000000000000000000000000000008152600401611d7390613e6d565b60405180910390fd5b6000611d8783610df5565b90508073ffffffffffffffffffffffffffffffffffffffff168473ffffffffffffffffffffffffffffffffffffffff161480611df657508373ffffffffffffffffffffffffffffffffffffffff16611dde846108fa565b73ffffffffffffffffffffffffffffffffffffffff16145b80611e075750611e068185611775565b5b91505092915050565b8273ffffffffffffffffffffffffffffffffffffffff16611e3082610df5565b73ffffffffffffffffffffffffffffffffffffffff1614611e86576040517f08c379a0000000000000000000000000000000000000000000000000000000008152600401611e7d90613f6d565b60405180910390fd5b600073ffffffffffffffffffffffffffffffffffffffff168273ffffffffffffffffffffffffffffffffffffffff161415611ef6576040517f08c379a0000000000000000000000000000000000000000000000000000000008152600401611eed90613e2d565b60405180910390fd5b611f018383836126de565b611f0c600082611c79565b6001600360008573ffffffffffffffffffffffffffffffffffffffff1673ffffffffffffffffffffffffffffffffffffffff1681526020019081526020016000206000828254611f5c9190614303565b925050819055506001600360008473ffffffffffffffffffffffffffffffffffffffff1673ffffffffffffffffffffffffffffffffffffffff1681526020019081526020016000206000828254611fb39190614222565b92505081905550816002600083815260200190815260200160002060006101000a81548173ffffffffffffffffffffffffffffffffffffffff021916908373ffffffffffffffffffffffffffffffffffffffff160217905550808273ffffffffffffffffffffffffffffffffffffffff168473ffffffffffffffffffffffffffffffffffffffff167fddf252ad1be2c89b69c2b068fc378daa952ba7f163c4a11628f55a4df523b3ef60405160405180910390a4505050565b6000818361207a91906142a9565b905092915050565b600061208d82610df5565b905061209b816000846126de565b6120a6600083611c79565b6001600360008373ffffffffffffffffffffffffffffffffffffffff1673ffffffffffffffffffffffffffffffffffffffff16815260200190815260200160002060008282546120f69190614303565b925050819055506002600083815260200190815260200160002060006101000a81549073ffffffffffffffffffffffffffffffffffffffff021916905581600073ffffffffffffffffffffffffffffffffffffffff168273ffffffffffffffffffffffffffffffffffffffff167fddf252ad1be2c89b69c2b068fc378daa952ba7f163c4a11628f55a4df523b3ef60405160405180910390a45050565b6000600a60009054906101000a900473ffffffffffffffffffffffffffffffffffffffff16905081600a60006101000a81548173ffffffffffffffffffffffffffffffffffffffff021916908373ffffffffffffffffffffffffffffffffffffffff1602179055508173ffffffffffffffffffffffffffffffffffffffff168173ffffffffffffffffffffffffffffffffffffffff167f8be0079c531659141344cd1fd0a4f28419497f9722a3daafe3b4186f6b6457e060405160405180910390a35050565b600081836122679190614278565b905092915050565b60008273ffffffffffffffffffffffffffffffffffffffff168260405161229590613bf7565b60006040518083038185875af1925050503d80600081146122d2576040519150601f19603f3d011682016040523d82523d6000602084013e6122d7565b606091505b505090508061231b576040517f08c379a000000000000000000000000000000000000000000000000000000000815260040161231290613e0d565b60405180910390fd5b505050565b61232b848484611e10565b612337848484846126ee565b612376576040517f08c379a000000000000000000000000000000000000000000000000000000000815260040161236d90613d4d565b60405180910390fd5b50505050565b6060600f805461238b90614435565b80601f01602080910402602001604051908101604052809291908181526020018280546123b790614435565b80156124045780601f106123d957610100808354040283529160200191612404565b820191906000526020600020905b8154815290600101906020018083116123e757829003601f168201915b5050505050905090565b60606000821415612456576040518060400160405280600181526020017f3000000000000000000000000000000000000000000000000000000000000000815250905061256a565b600082905060005b6000821461248857808061247190614498565b915050600a826124819190614278565b915061245e565b60008167ffffffffffffffff8111156124a4576124a36145fd565b5b6040519080825280601f01601f1916602001820160405280156124d65781602001600182028036833780820191505090505b5090505b60008514612563576001826124ef9190614303565b9150600a856124fe91906144e1565b603061250a9190614222565b60f81b8183815181106125205761251f6145ce565b5b60200101907effffffffffffffffffffffffffffffffffffffffffffffffffffffffffffff1916908160001a905350600a8561255c9190614278565b94506124da565b8093505050505b919050565b600061257b600b612885565b905090565b61258a600b612893565b61259482826128a9565b6001600c600083815260200190815260200160002060006101000a81548160ff021916908315150217905550807fa5cd68f916ffd1e340e44f6cf04dd86bd827e78c04fecf1cfd5cce08608d762e836040516125f09190613c27565b60405180910390a25050565b60007f80ac58cd000000000000000000000000000000000000000000000000000000007bffffffffffffffffffffffffffffffffffffffffffffffffffffffff1916827bffffffffffffffffffffffffffffffffffffffffffffffffffffffff191614806126c757507f5b5e139f000000000000000000000000000000000000000000000000000000007bffffffffffffffffffffffffffffffffffffffffffffffffffffffff1916827bffffffffffffffffffffffffffffffffffffffffffffffffffffffff1916145b806126d757506126d6826128c7565b5b9050919050565b6126e9838383612931565b505050565b600061270f8473ffffffffffffffffffffffffffffffffffffffff166129cb565b15612878578373ffffffffffffffffffffffffffffffffffffffff1663150b7a02612738611ac0565b8786866040518563ffffffff1660e01b815260040161275a9493929190613c42565b602060405180830381600087803b15801561277457600080fd5b505af19250505080156127a557506040513d601f19601f820116820180604052508101906127a2919061353e565b60015b612828573d80600081146127d5576040519150601f19603f3d011682016040523d82523d6000602084013e6127da565b606091505b50600081511415612820576040517f08c379a000000000000000000000000000000000000000000000000000000000815260040161281790613d4d565b60405180910390fd5b805181602001fd5b63150b7a0260e01b7bffffffffffffffffffffffffffffffffffffffffffffffffffffffff1916817bffffffffffffffffffffffffffffffffffffffffffffffffffffffff19161491505061287d565b600190505b949350505050565b600081600001549050919050565b6001816000016000828254019250508190555050565b6128c38282604051806020016040528060008152506129de565b5050565b60007f01ffc9a7000000000000000000000000000000000000000000000000000000007bffffffffffffffffffffffffffffffffffffffffffffffffffffffff1916827bffffffffffffffffffffffffffffffffffffffffffffffffffffffff1916149050919050565b61293c838383612a39565b612944611119565b73ffffffffffffffffffffffffffffffffffffffff16612962611ac0565b73ffffffffffffffffffffffffffffffffffffffff16146129c657612985610dde565b156129c5576040517f08c379a00000000000000000000000000000000000000000000000000000000081526004016129bc90613ced565b60405180910390fd5b5b505050565b600080823b905060008111915050919050565b6129e88383612b4d565b6129f560008484846126ee565b612a34576040517f08c379a0000000000000000000000000000000000000000000000000000000008152600401612a2b90613d4d565b60405180910390fd5b505050565b612a44838383612d1b565b600073ffffffffffffffffffffffffffffffffffffffff168373ffffffffffffffffffffffffffffffffffffffff161415612a8757612a8281612d20565b612ac6565b8173ffffffffffffffffffffffffffffffffffffffff168373ffffffffffffffffffffffffffffffffffffffff1614612ac557612ac48382612d69565b5b5b600073ffffffffffffffffffffffffffffffffffffffff168273ffffffffffffffffffffffffffffffffffffffff161415612b0957612b0481612ed6565b612b48565b8273ffffffffffffffffffffffffffffffffffffffff168273ffffffffffffffffffffffffffffffffffffffff1614612b4757612b468282612fa7565b5b5b505050565b600073ffffffffffffffffffffffffffffffffffffffff168273ffffffffffffffffffffffffffffffffffffffff161415612bbd576040517f08c379a0000000000000000000000000000000000000000000000000000000008152600401612bb490613f0d565b60405180910390fd5b612bc681611c0d565b15612c06576040517f08c379a0000000000000000000000000000000000000000000000000000000008152600401612bfd90613dcd565b60405180910390fd5b612c12600083836126de565b6001600360008473ffffffffffffffffffffffffffffffffffffffff1673ffffffffffffffffffffffffffffffffffffffff1681526020019081526020016000206000828254612c629190614222565b92505081905550816002600083815260200190815260200160002060006101000a81548173ffffffffffffffffffffffffffffffffffffffff021916908373ffffffffffffffffffffffffffffffffffffffff160217905550808273ffffffffffffffffffffffffffffffffffffffff16600073ffffffffffffffffffffffffffffffffffffffff167fddf252ad1be2c89b69c2b068fc378daa952ba7f163c4a11628f55a4df523b3ef60405160405180910390a45050565b505050565b6008805490506009600083815260200190815260200160002081905550600881908060018154018082558091505060019003906000526020600020016000909190919091505550565b60006001612d7684610ea7565b612d809190614303565b9050600060076000848152602001908152602001600020549050818114612e65576000600660008673ffffffffffffffffffffffffffffffffffffffff1673ffffffffffffffffffffffffffffffffffffffff168152602001908152602001600020600084815260200190815260200160002054905080600660008773ffffffffffffffffffffffffffffffffffffffff1673ffffffffffffffffffffffffffffffffffffffff168152602001908152602001600020600084815260200190815260200160002081905550816007600083815260200190815260200160002081905550505b6007600084815260200190815260200160002060009055600660008573ffffffffffffffffffffffffffffffffffffffff1673ffffffffffffffffffffffffffffffffffffffff16815260200190815260200160002060008381526020019081526020016000206000905550505050565b60006001600880549050612eea9190614303565b9050600060096000848152602001908152602001600020549050600060088381548110612f1a57612f196145ce565b5b906000526020600020015490508060088381548110612f3c57612f3b6145ce565b5b906000526020600020018190555081600960008381526020019081526020016000208190555060096000858152602001908152602001600020600090556008805480612f8b57612f8a61459f565b5b6001900381819060005260206000200160009055905550505050565b6000612fb283610ea7565b905081600660008573ffffffffffffffffffffffffffffffffffffffff1673ffffffffffffffffffffffffffffffffffffffff168152602001908152602001600020600083815260200190815260200160002081905550806007600084815260200190815260200160002081905550505050565b82805461303290614435565b90600052602060002090601f016020900481019282613054576000855561309b565b82601f1061306d57805160ff191683800117855561309b565b8280016001018555821561309b579182015b8281111561309a57825182559160200191906001019061307f565b5b5090506130a891906130ac565b5090565b5b808211156130c55760008160009055506001016130ad565b5090565b60006130dc6130d78461410d565b6140e8565b905080838252602082019050828560208602820111156130ff576130fe614631565b5b60005b8581101561312f578161311588826132b0565b845260208401935060208301925050600181019050613102565b5050509392505050565b600061314c61314784614139565b6140e8565b90508281526020810184848401111561316857613167614636565b5b6131738482856143f3565b509392505050565b600061318e6131898461416a565b6140e8565b9050828152602081018484840111156131aa576131a9614636565b5b6131b58482856143f3565b509392505050565b6000813590506131cc81614e97565b92915050565b6000813590506131e181614eae565b92915050565b600082601f8301126131fc576131fb61462c565b5b813561320c8482602086016130c9565b91505092915050565b60008135905061322481614ec5565b92915050565b60008135905061323981614edc565b92915050565b60008151905061324e81614edc565b92915050565b600082601f8301126132695761326861462c565b5b8135613279848260208601613139565b91505092915050565b600082601f8301126132975761329661462c565b5b81356132a784826020860161317b565b91505092915050565b6000813590506132bf81614ef3565b92915050565b6000602082840312156132db576132da614640565b5b60006132e9848285016131bd565b91505092915050565b6000806040838503121561330957613308614640565b5b6000613317858286016131d2565b925050602083013567ffffffffffffffff8111156133385761333761463b565b5b613344858286016131e7565b9150509250929050565b6000806040838503121561336557613364614640565b5b6000613373858286016131bd565b9250506020613384858286016131bd565b9150509250929050565b6000806000606084860312156133a7576133a6614640565b5b60006133b5868287016131bd565b93505060206133c6868287016131bd565b92505060406133d7868287016132b0565b9150509250925092565b600080600080608085870312156133fb576133fa614640565b5b6000613409878288016131bd565b945050602061341a878288016131bd565b935050604061342b878288016132b0565b925050606085013567ffffffffffffffff81111561344c5761344b61463b565b5b61345887828801613254565b91505092959194509250565b6000806040838503121561347b5761347a614640565b5b6000613489858286016131bd565b925050602061349a85828601613215565b9150509250929050565b600080604083850312156134bb576134ba614640565b5b60006134c9858286016131bd565b92505060206134da858286016132b0565b9150509250929050565b6000602082840312156134fa576134f9614640565b5b600061350884828501613215565b91505092915050565b60006020828403121561352757613526614640565b5b60006135358482850161322a565b91505092915050565b60006020828403121561355457613553614640565b5b60006135628482850161323f565b91505092915050565b60006020828403121561358157613580614640565b5b600082013567ffffffffffffffff81111561359f5761359e61463b565b5b6135ab84828501613282565b91505092915050565b6000602082840312156135ca576135c9614640565b5b60006135d8848285016132b0565b91505092915050565b60006135ed8383613baa565b60208301905092915050565b613602816143bd565b82525050565b61361181614337565b82525050565b6000613622826141ab565b61362c81856141d9565b93506136378361419b565b8060005b8381101561366857815161364f88826135e1565b975061365a836141cc565b92505060018101905061363b565b5085935050505092915050565b61367e8161435b565b82525050565b600061368f826141b6565b61369981856141ea565b93506136a9818560208601614402565b6136b281614645565b840191505092915050565b60006136c8826141c1565b6136d28185614206565b93506136e2818560208601614402565b6136eb81614645565b840191505092915050565b6000613701826141c1565b61370b8185614217565b935061371b818560208601614402565b80840191505092915050565b6000613734602b83614206565b915061373f82614656565b604082019050919050565b6000613757601483614206565b9150613762826146a5565b602082019050919050565b600061377a602b83614206565b9150613785826146ce565b604082019050919050565b600061379d603283614206565b91506137a88261471d565b604082019050919050565b60006137c0601083614206565b91506137cb8261476c565b602082019050919050565b60006137e3603283614206565b91506137ee82614795565b604082019050919050565b6000613806602683614206565b9150613811826147e4565b604082019050919050565b6000613829601c83614206565b915061383482614833565b602082019050919050565b600061384c603683614206565b91506138578261485c565b604082019050919050565b600061386f601a83614206565b915061387a826148ab565b602082019050919050565b6000613892602483614206565b915061389d826148d4565b604082019050919050565b60006138b5601983614206565b91506138c082614923565b602082019050919050565b60006138d8602c83614206565b91506138e38261494c565b604082019050919050565b60006138fb601083614206565b91506139068261499b565b602082019050919050565b600061391e603883614206565b9150613929826149c4565b604082019050919050565b6000613941602a83614206565b915061394c82614a13565b604082019050919050565b6000613964602983614206565b915061396f82614a62565b604082019050919050565b6000613987602083614206565b915061399282614ab1565b602082019050919050565b60006139aa602c83614206565b91506139b582614ada565b604082019050919050565b60006139cd600583614217565b91506139d882614b29565b600582019050919050565b60006139f0602083614206565b91506139fb82614b52565b602082019050919050565b6000613a13602983614206565b9150613a1e82614b7b565b604082019050919050565b6000613a36602f83614206565b9150613a4182614bca565b604082019050919050565b6000613a59603a83614206565b9150613a6482614c19565b604082019050919050565b6000613a7c602083614206565b9150613a8782614c68565b602082019050919050565b6000613a9f602183614206565b9150613aaa82614c91565b604082019050919050565b6000613ac26000836141fb565b9150613acd82614ce0565b600082019050919050565b6000613ae5602f83614206565b9150613af082614ce3565b604082019050919050565b6000613b08603183614206565b9150613b1382614d32565b604082019050919050565b6000613b2b602c83614206565b9150613b3682614d81565b604082019050919050565b6000613b4e603f83614206565b9150613b5982614dd0565b604082019050919050565b6000613b71603083614206565b9150613b7c82614e1f565b604082019050919050565b6000613b94600f83614206565b9150613b9f82614e6e565b602082019050919050565b613bb3816143b3565b82525050565b613bc2816143b3565b82525050565b6000613bd482856136f6565b9150613be082846136f6565b9150613beb826139c0565b91508190509392505050565b6000613c0282613ab5565b9150819050919050565b6000602082019050613c216000830184613608565b92915050565b6000602082019050613c3c60008301846135f9565b92915050565b6000608082019050613c576000830187613608565b613c646020830186613608565b613c716040830185613bb9565b8181036060830152613c838184613684565b905095945050505050565b60006020820190508181036000830152613ca88184613617565b905092915050565b6000602082019050613cc56000830184613675565b92915050565b60006020820190508181036000830152613ce581846136bd565b905092915050565b60006020820190508181036000830152613d0681613727565b9050919050565b60006020820190508181036000830152613d268161374a565b9050919050565b60006020820190508181036000830152613d468161376d565b9050919050565b60006020820190508181036000830152613d6681613790565b9050919050565b60006020820190508181036000830152613d86816137b3565b9050919050565b60006020820190508181036000830152613da6816137d6565b9050919050565b60006020820190508181036000830152613dc6816137f9565b9050919050565b60006020820190508181036000830152613de68161381c565b9050919050565b60006020820190508181036000830152613e068161383f565b9050919050565b60006020820190508181036000830152613e2681613862565b9050919050565b60006020820190508181036000830152613e4681613885565b9050919050565b60006020820190508181036000830152613e66816138a8565b9050919050565b60006020820190508181036000830152613e86816138cb565b9050919050565b60006020820190508181036000830152613ea6816138ee565b9050919050565b60006020820190508181036000830152613ec681613911565b9050919050565b60006020820190508181036000830152613ee681613934565b9050919050565b60006020820190508181036000830152613f0681613957565b9050919050565b60006020820190508181036000830152613f268161397a565b9050919050565b60006020820190508181036000830152613f468161399d565b9050919050565b60006020820190508181036000830152613f66816139e3565b9050919050565b60006020820190508181036000830152613f8681613a06565b9050919050565b60006020820190508181036000830152613fa681613a29565b9050919050565b60006020820190508181036000830152613fc681613a4c565b9050919050565b60006020820190508181036000830152613fe681613a6f565b9050919050565b6000602082019050818103600083015261400681613a92565b9050919050565b6000602082019050818103600083015261402681613ad8565b9050919050565b6000602082019050818103600083015261404681613afb565b9050919050565b6000602082019050818103600083015261406681613b1e565b9050919050565b6000602082019050818103600083015261408681613b41565b9050919050565b600060208201905081810360008301526140a681613b64565b9050919050565b600060208201905081810360008301526140c681613b87565b9050919050565b60006020820190506140e26000830184613bb9565b92915050565b60006140f2614103565b90506140fe8282614467565b919050565b6000604051905090565b600067ffffffffffffffff821115614128576141276145fd565b5b602082029050602081019050919050565b600067ffffffffffffffff821115614154576141536145fd565b5b61415d82614645565b9050602081019050919050565b600067ffffffffffffffff821115614185576141846145fd565b5b61418e82614645565b9050602081019050919050565b6000819050602082019050919050565b600081519050919050565b600081519050919050565b600081519050919050565b6000602082019050919050565b600082825260208201905092915050565b600082825260208201905092915050565b600081905092915050565b600082825260208201905092915050565b600081905092915050565b600061422d826143b3565b9150614238836143b3565b9250827fffffffffffffffffffffffffffffffffffffffffffffffffffffffffffffffff0382111561426d5761426c614512565b5b828201905092915050565b6000614283826143b3565b915061428e836143b3565b92508261429e5761429d614541565b5b828204905092915050565b60006142b4826143b3565b91506142bf836143b3565b9250817fffffffffffffffffffffffffffffffffffffffffffffffffffffffffffffffff04831182151516156142f8576142f7614512565b5b828202905092915050565b600061430e826143b3565b9150614319836143b3565b92508282101561432c5761432b614512565b5b828203905092915050565b600061434282614393565b9050919050565b600061435482614393565b9050919050565b60008115159050919050565b60007fffffffff0000000000000000000000000000000000000000000000000000000082169050919050565b600073ffffffffffffffffffffffffffffffffffffffff82169050919050565b6000819050919050565b60006143c8826143cf565b9050919050565b60006143da826143e1565b9050919050565b60006143ec82614393565b9050919050565b82818337600083830152505050565b60005b83811015614420578082015181840152602081019050614405565b8381111561442f576000848401525b50505050565b6000600282049050600182168061444d57607f821691505b6020821081141561446157614460614570565b5b50919050565b61447082614645565b810181811067ffffffffffffffff8211171561448f5761448e6145fd565b5b80604052505050565b60006144a3826143b3565b91507fffffffffffffffffffffffffffffffffffffffffffffffffffffffffffffffff8214156144d6576144d5614512565b5b600182019050919050565b60006144ec826143b3565b91506144f7836143b3565b92508261450757614506614541565b5b828206905092915050565b7f4e487b7100000000000000000000000000000000000000000000000000000000600052601160045260246000fd5b7f4e487b7100000000000000000000000000000000000000000000000000000000600052601260045260246000fd5b7f4e487b7100000000000000000000000000000000000000000000000000000000600052602260045260246000fd5b7f4e487b7100000000000000000000000000000000000000000000000000000000600052603160045260246000fd5b7f4e487b7100000000000000000000000000000000000000000000000000000000600052603260045260246000fd5b7f4e487b7100000000000000000000000000000000000000000000000000000000600052604160045260246000fd5b600080fd5b600080fd5b600080fd5b600080fd5b600080fd5b6000601f19601f8301169050919050565b7f4552433732315061757361626c653a20746f6b656e207472616e73666572207760008201527f68696c6520706175736564000000000000000000000000000000000000000000602082015250565b7f5061757361626c653a206e6f7420706175736564000000000000000000000000600082015250565b7f455243373231456e756d657261626c653a206f776e657220696e646578206f7560008201527f74206f6620626f756e6473000000000000000000000000000000000000000000602082015250565b7f4552433732313a207472616e7366657220746f206e6f6e20455243373231526560008201527f63656976657220696d706c656d656e7465720000000000000000000000000000602082015250565b7f5041555341424c453a2050617573656400000000000000000000000000000000600082015250565b7f4d494e543a2043757272656e7420636f756e742065786365656473206d61786960008201527f6d756d20656c656d656e7420636f756e742e0000000000000000000000000000602082015250565b7f4f776e61626c653a206e6577206f776e657220697320746865207a65726f206160008201527f6464726573730000000000000000000000000000000000000000000000000000602082015250565b7f4552433732313a20746f6b656e20616c7265616479206d696e74656400000000600082015250565b7f4d494e543a20506c6561736520676f20746f20746865204f70656e736561207460008201527f6f206275792043727970746f204174686c657465732e00000000000000000000602082015250565b7f57495448445241573a205472616e73666572206661696c65642e000000000000600082015250565b7f4552433732313a207472616e7366657220746f20746865207a65726f2061646460008201527f7265737300000000000000000000000000000000000000000000000000000000602082015250565b7f4552433732313a20617070726f766520746f2063616c6c657200000000000000600082015250565b7f4552433732313a206f70657261746f7220717565727920666f72206e6f6e657860008201527f697374656e7420746f6b656e0000000000000000000000000000000000000000602082015250565b7f5061757361626c653a2070617573656400000000000000000000000000000000600082015250565b7f4552433732313a20617070726f76652063616c6c6572206973206e6f74206f7760008201527f6e6572206e6f7220617070726f76656420666f7220616c6c0000000000000000602082015250565b7f4552433732313a2062616c616e636520717565727920666f7220746865207a6560008201527f726f206164647265737300000000000000000000000000000000000000000000602082015250565b7f4552433732313a206f776e657220717565727920666f72206e6f6e657869737460008201527f656e7420746f6b656e0000000000000000000000000000000000000000000000602082015250565b7f4552433732313a206d696e7420746f20746865207a65726f2061646472657373600082015250565b7f4552433732313a20617070726f76656420717565727920666f72206e6f6e657860008201527f697374656e7420746f6b656e0000000000000000000000000000000000000000602082015250565b7f2e6a736f6e000000000000000000000000000000000000000000000000000000600082015250565b7f4f776e61626c653a2063616c6c6572206973206e6f7420746865206f776e6572600082015250565b7f4552433732313a207472616e73666572206f6620746f6b656e2074686174206960008201527f73206e6f74206f776e0000000000000000000000000000000000000000000000602082015250565b7f4552433732314d657461646174613a2055524920717565727920666f72206e6f60008201527f6e6578697374656e7420746f6b656e0000000000000000000000000000000000602082015250565b7f4d494e543a2054686f73652069647320616c726561647920686176652062656560008201527f6e207573656420666f72206f7468657220637573746f6d657273000000000000602082015250565b7f57495448445241573a204e6f2062616c616e636520696e20636f6e7472616374600082015250565b7f4552433732313a20617070726f76616c20746f2063757272656e74206f776e6560008201527f7200000000000000000000000000000000000000000000000000000000000000602082015250565b50565b7f4d494e543a2043757272656e7420636f756e742065786365656473206d61786960008201527f6d756d206d696e7420636f756e742e0000000000000000000000000000000000602082015250565b7f4552433732313a207472616e736665722063616c6c6572206973206e6f74206f60008201527f776e6572206e6f7220617070726f766564000000000000000000000000000000602082015250565b7f455243373231456e756d657261626c653a20676c6f62616c20696e646578206f60008201527f7574206f6620626f756e64730000000000000000000000000000000000000000602082015250565b7f4d494e543a2043757272656e742076616c75652069732062656c6f772074686560008201527f2073616c6573207072696365206f662043727970746f204174686c6574657300602082015250565b7f4552433732314275726e61626c653a2063616c6c6572206973206e6f74206f7760008201527f6e6572206e6f7220617070726f76656400000000000000000000000000000000602082015250565b7f53414c45533a2053616c6520656e640000000000000000000000000000000000600082015250565b614ea081614337565b8114614eab57600080fd5b50565b614eb781614349565b8114614ec257600080fd5b50565b614ece8161435b565b8114614ed957600080fd5b50565b614ee581614367565b8114614ef057600080fd5b50565b614efc816143b3565b8114614f0757600080fd5b5056fea264697066735822122046836e6ade4e20192d1714681b1db498fdda3dc5dcd1039de07945245a9a855664736f6c63430008070033",
  "immutableReferences": {},
  "source": "// SPDX-License-Identifier: MIT\r\n\r\npragma solidity ^0.8.7;\r\n\r\nimport \"@openzeppelin/contracts/token/ERC721/ERC721.sol\";\r\nimport \"@openzeppelin/contracts/token/ERC721/extensions/ERC721Enumerable.sol\";\r\nimport \"@openzeppelin/contracts/token/ERC721/extensions/ERC721Burnable.sol\";\r\nimport \"@openzeppelin/contracts/access/Ownable.sol\";\r\nimport \"@openzeppelin/contracts/utils/math/SafeMath.sol\";\r\nimport \"@openzeppelin/contracts/utils/Counters.sol\";\r\nimport \"./ERC721Pausable.sol\";\r\n\r\ncontract CryptoAthletes is ERC721Enumerable, Ownable, ERC721Burnable, ERC721Pausable {\r\n\r\n    using SafeMath for uint256;\r\n    using Counters for Counters.Counter;\r\n\r\n    Counters.Counter private _tokenIdTracker;\r\n\r\n    uint256 private constant PRICE_PER_CA = 5 * 10**16; // 0.05ETH Per Crypto Athletes\r\n\r\n    uint256 private constant MAX_ELEMENTS_CROWDSALE = 1 * 10**4 + 20; // 10020 Crypto Athletes in CrowdSale\r\n    uint256 private constant MAX_ELEMENTS_PRESALE = 5 * 10**2; // 500 Crypto Athletes in PreSale\r\n\r\n    uint256 private constant MAX_MINT_CROWDSALE = 20; // Upper Limit is 10 in CrowdSale\r\n    uint256 private constant MAX_MINT_PRESALE = 5; // Upper Limit is 2 in PreSale\r\n\r\n    address private constant ownerAddress = 0x0081aD52FF7Eb8B5165777aa6adCf7d80cBF647D; // Wallet Address of Owner\r\n    address public constant developerAddress = 0xA7482C9c5926E88d85804A969c383730Ce100639; // Wallet Address of the Cory\r\n\r\n    mapping(uint256 => bool) private _isOccupiedId;\r\n\r\n    uint256 private maxSalesAmount;\r\n    uint256 private maxMintAmount;\r\n\r\n    string private baseTokenURI;\r\n\r\n    event CreateCryptoAthletes(address to, uint256 indexed id);\r\n\r\n    modifier saleIsOpen {\r\n        require(_totalSupply() <= maxSalesAmount, \"SALES: Sale end\");\r\n\r\n        if (_msgSender() != owner()) {\r\n            require(!paused(), \"PAUSABLE: Paused\");\r\n        }\r\n        _;\r\n    }\r\n\r\n    constructor (string memory baseURI) ERC721(\"CryptoAthletes\", \"CATH\") {\r\n        setBaseURI(baseURI);\r\n        pause(true);\r\n\r\n        maxSalesAmount = MAX_ELEMENTS_CROWDSALE;\r\n        maxMintAmount = MAX_MINT_CROWDSALE;\r\n    }\r\n\r\n    function mint(address payable _to, uint256[] memory _ids) public payable saleIsOpen {\r\n        uint256 total = _totalSupply();\r\n\r\n        require(total + _ids.length <= maxSalesAmount, \"MINT: Current count exceeds maximum element count.\");\r\n        require(total <= maxSalesAmount, \"MINT: Please go to the Opensea to buy Crypto Athletes.\");\r\n        require(_ids.length <= maxMintAmount, \"MINT: Current count exceeds maximum mint count.\");\r\n        require(msg.value >= price(_ids.length), \"MINT: Current value is below the sales price of Crypto Athletes\");\r\n\r\n        for (uint256 i = 0; i < _ids.length; i++) {\r\n            require(_isOccupiedId[_ids[i]] == false, \"MINT: Those ids already have been used for other customers\");\r\n        }\r\n\r\n        for (uint256 i = 0; i < _ids.length; i++) {\r\n            _mintAnElement(_to, _ids[i]);\r\n        }\r\n    }\r\n\r\n    function _mintAnElement(address payable _to, uint256 _id) private {\r\n        _tokenIdTracker.increment();\r\n        _safeMint(_to, _id);\r\n        _isOccupiedId[_id] = true;\r\n\r\n        emit CreateCryptoAthletes(_to, _id);\r\n    }\r\n\r\n    function setBaseURI(string memory baseURI) public onlyOwner {\r\n        baseTokenURI = baseURI;\r\n    }\r\n\r\n    function startPreSale() public onlyOwner {\r\n        maxSalesAmount = MAX_ELEMENTS_PRESALE;\r\n        maxMintAmount = MAX_MINT_PRESALE;\r\n    }\r\n\r\n    function stopPreSale() public onlyOwner {\r\n        maxSalesAmount = MAX_ELEMENTS_CROWDSALE;\r\n        maxMintAmount = MAX_MINT_CROWDSALE;\r\n    }\r\n\r\n    function _baseURI() internal view virtual override returns (string memory) {\r\n        return baseTokenURI;\r\n    }\r\n\r\n    function price(uint256 _count) public pure returns (uint256) {\r\n        return PRICE_PER_CA.mul(_count);\r\n    }\r\n\r\n    function _totalSupply() internal view returns (uint) {\r\n        return _tokenIdTracker.current();\r\n    }\r\n\r\n    function maxMint() public view returns (uint256) {\r\n        return maxMintAmount;\r\n    }\r\n\r\n    function maxSales() public view returns (uint256) {\r\n        return maxSalesAmount;\r\n    }\r\n\r\n    function raised() public view returns (uint256) {\r\n        return address(this).balance;\r\n    }\r\n\r\n    function getTokenIdsOfWallet(address _owner) external view returns (uint256[] memory) {\r\n        uint256 tokenCount = balanceOf(_owner);\r\n\r\n        uint256[] memory tokensId = new uint256[](tokenCount);\r\n\r\n        for (uint256 i = 0; i < tokenCount; i++) {\r\n            tokensId[i] = tokenOfOwnerByIndex(_owner, i);\r\n        }\r\n\r\n        return tokensId;\r\n    }\r\n\r\n    function pause(bool value) public onlyOwner {\r\n        if (value == true) {\r\n            _pause();\r\n\r\n            return;\r\n        }\r\n\r\n        _unpause();\r\n    }\r\n\r\n    function withdrawAll() public payable onlyOwner {\r\n        uint256 balance = address(this).balance;\r\n        require(balance > 0, \"WITHDRAW: No balance in contract\");\r\n\r\n        _widthdraw(developerAddress, balance.mul(3).div(100));\r\n        _widthdraw(ownerAddress, address(this).balance);\r\n    }\r\n\r\n    function _widthdraw(address _address, uint256 _amount) private {\r\n        (bool success, ) = _address.call{value: _amount}(\"\");\r\n        require(success, \"WITHDRAW: Transfer failed.\");\r\n    }\r\n\r\n    function _beforeTokenTransfer(\r\n        address from,\r\n        address to,\r\n        uint256 tokenId\r\n    ) internal virtual override(ERC721, ERC721Enumerable, ERC721Pausable) {\r\n        super._beforeTokenTransfer(from, to, tokenId);\r\n    }\r\n\r\n    function supportsInterface(bytes4 interfaceId) public view virtual override(ERC721, ERC721Enumerable) returns (bool) {\r\n        return super.supportsInterface(interfaceId);\r\n    }\r\n}",
  "sourcePath": "F:\\Cory_Career\\Crypto_Athletes\\crypto-athletes-s1-website\\contracts\\CryptoAthletes.sol",
  "compiler": {
    "name": "solc",
    "version": "0.8.7+commit.e28d00a7.Emscripten.clang"
  },
  "schemaVersion": "3.4.3",
  "updatedAt": "2021-09-23T20:35:34.493Z",
  "networkType": "ethereum",
  "devdoc": {
    "kind": "dev",
    "methods": {
      "approve(address,uint256)": {
        "details": "See {IERC721-approve}."
      },
      "balanceOf(address)": {
        "details": "See {IERC721-balanceOf}."
      },
      "burn(uint256)": {
        "details": "Burns `tokenId`. See {ERC721-_burn}. Requirements: - The caller must own `tokenId` or be an approved operator."
      },
      "getApproved(uint256)": {
        "details": "See {IERC721-getApproved}."
      },
      "isApprovedForAll(address,address)": {
        "details": "See {IERC721-isApprovedForAll}."
      },
      "name()": {
        "details": "See {IERC721Metadata-name}."
      },
      "owner()": {
        "details": "Returns the address of the current owner."
      },
      "ownerOf(uint256)": {
        "details": "See {IERC721-ownerOf}."
      },
      "paused()": {
        "details": "Returns true if the contract is paused, and false otherwise."
      },
      "renounceOwnership()": {
        "details": "Leaves the contract without owner. It will not be possible to call `onlyOwner` functions anymore. Can only be called by the current owner. NOTE: Renouncing ownership will leave the contract without an owner, thereby removing any functionality that is only available to the owner."
      },
      "safeTransferFrom(address,address,uint256)": {
        "details": "See {IERC721-safeTransferFrom}."
      },
      "safeTransferFrom(address,address,uint256,bytes)": {
        "details": "See {IERC721-safeTransferFrom}."
      },
      "setApprovalForAll(address,bool)": {
        "details": "See {IERC721-setApprovalForAll}."
      },
      "symbol()": {
        "details": "See {IERC721Metadata-symbol}."
      },
      "tokenByIndex(uint256)": {
        "details": "See {IERC721Enumerable-tokenByIndex}."
      },
      "tokenOfOwnerByIndex(address,uint256)": {
        "details": "See {IERC721Enumerable-tokenOfOwnerByIndex}."
      },
      "tokenURI(uint256)": {
        "details": "See {IERC721Metadata-tokenURI}."
      },
      "totalSupply()": {
        "details": "See {IERC721Enumerable-totalSupply}."
      },
      "transferFrom(address,address,uint256)": {
        "details": "See {IERC721-transferFrom}."
      },
      "transferOwnership(address)": {
        "details": "Transfers ownership of the contract to a new account (`newOwner`). Can only be called by the current owner."
      }
    },
    "version": 1
  },
  "userdoc": {
    "kind": "user",
    "methods": {},
    "version": 1
  }
}