{
  "contractName": "CryptoAthletes",
  "abi": [
    {
      "inputs": [
        {
          "internalType": "string",
          "name": "baseURI",
          "type": "string"
        }
      ],
      "stateMutability": "nonpayable",
      "type": "constructor"
    },
    {
      "anonymous": false,
      "inputs": [
        {
          "indexed": true,
          "internalType": "address",
          "name": "owner",
          "type": "address"
        },
        {
          "indexed": true,
          "internalType": "address",
          "name": "approved",
          "type": "address"
        },
        {
          "indexed": true,
          "internalType": "uint256",
          "name": "tokenId",
          "type": "uint256"
        }
      ],
      "name": "Approval",
      "type": "event"
    },
    {
      "anonymous": false,
      "inputs": [
        {
          "indexed": true,
          "internalType": "address",
          "name": "owner",
          "type": "address"
        },
        {
          "indexed": true,
          "internalType": "address",
          "name": "operator",
          "type": "address"
        },
        {
          "indexed": false,
          "internalType": "bool",
          "name": "approved",
          "type": "bool"
        }
      ],
      "name": "ApprovalForAll",
      "type": "event"
    },
    {
      "anonymous": false,
      "inputs": [
        {
          "indexed": true,
          "internalType": "uint256",
          "name": "id",
          "type": "uint256"
        }
      ],
      "name": "CreateCryptoAthletes",
      "type": "event"
    },
    {
      "anonymous": false,
      "inputs": [
        {
          "indexed": true,
          "internalType": "address",
          "name": "previousOwner",
          "type": "address"
        },
        {
          "indexed": true,
          "internalType": "address",
          "name": "newOwner",
          "type": "address"
        }
      ],
      "name": "OwnershipTransferred",
      "type": "event"
    },
    {
      "anonymous": false,
      "inputs": [
        {
          "indexed": false,
          "internalType": "address",
          "name": "account",
          "type": "address"
        }
      ],
      "name": "Paused",
      "type": "event"
    },
    {
      "anonymous": false,
      "inputs": [
        {
          "indexed": true,
          "internalType": "address",
          "name": "from",
          "type": "address"
        },
        {
          "indexed": true,
          "internalType": "address",
          "name": "to",
          "type": "address"
        },
        {
          "indexed": true,
          "internalType": "uint256",
          "name": "tokenId",
          "type": "uint256"
        }
      ],
      "name": "Transfer",
      "type": "event"
    },
    {
      "anonymous": false,
      "inputs": [
        {
          "indexed": false,
          "internalType": "address",
          "name": "account",
          "type": "address"
        }
      ],
      "name": "Unpaused",
      "type": "event"
    },
    {
      "inputs": [],
      "name": "MAX_BY_MINT",
      "outputs": [
        {
          "internalType": "uint256",
          "name": "",
          "type": "uint256"
        }
      ],
      "stateMutability": "view",
      "type": "function"
    },
    {
      "inputs": [],
      "name": "MAX_ELEMENTS",
      "outputs": [
        {
          "internalType": "uint256",
          "name": "",
          "type": "uint256"
        }
      ],
      "stateMutability": "view",
      "type": "function"
    },
    {
      "inputs": [],
      "name": "PRICE",
      "outputs": [
        {
          "internalType": "uint256",
          "name": "",
          "type": "uint256"
        }
      ],
      "stateMutability": "view",
      "type": "function"
    },
    {
      "inputs": [
        {
          "internalType": "address",
          "name": "to",
          "type": "address"
        },
        {
          "internalType": "uint256",
          "name": "tokenId",
          "type": "uint256"
        }
      ],
      "name": "approve",
      "outputs": [],
      "stateMutability": "nonpayable",
      "type": "function"
    },
    {
      "inputs": [
        {
          "internalType": "address",
          "name": "owner",
          "type": "address"
        }
      ],
      "name": "balanceOf",
      "outputs": [
        {
          "internalType": "uint256",
          "name": "",
          "type": "uint256"
        }
      ],
      "stateMutability": "view",
      "type": "function"
    },
    {
      "inputs": [],
      "name": "baseTokenURI",
      "outputs": [
        {
          "internalType": "string",
          "name": "",
          "type": "string"
        }
      ],
      "stateMutability": "view",
      "type": "function"
    },
    {
      "inputs": [
        {
          "internalType": "uint256",
          "name": "tokenId",
          "type": "uint256"
        }
      ],
      "name": "burn",
      "outputs": [],
      "stateMutability": "nonpayable",
      "type": "function"
    },
    {
      "inputs": [],
      "name": "developerAddress",
      "outputs": [
        {
          "internalType": "address",
          "name": "",
          "type": "address"
        }
      ],
      "stateMutability": "view",
      "type": "function"
    },
    {
      "inputs": [
        {
          "internalType": "uint256",
          "name": "tokenId",
          "type": "uint256"
        }
      ],
      "name": "getApproved",
      "outputs": [
        {
          "internalType": "address",
          "name": "",
          "type": "address"
        }
      ],
      "stateMutability": "view",
      "type": "function"
    },
    {
      "inputs": [
        {
          "internalType": "address",
          "name": "owner",
          "type": "address"
        },
        {
          "internalType": "address",
          "name": "operator",
          "type": "address"
        }
      ],
      "name": "isApprovedForAll",
      "outputs": [
        {
          "internalType": "bool",
          "name": "",
          "type": "bool"
        }
      ],
      "stateMutability": "view",
      "type": "function"
    },
    {
      "inputs": [],
      "name": "maxSalesAmount",
      "outputs": [
        {
          "internalType": "uint256",
          "name": "",
          "type": "uint256"
        }
      ],
      "stateMutability": "view",
      "type": "function"
    },
    {
      "inputs": [],
      "name": "name",
      "outputs": [
        {
          "internalType": "string",
          "name": "",
          "type": "string"
        }
      ],
      "stateMutability": "view",
      "type": "function"
    },
    {
      "inputs": [],
      "name": "owner",
      "outputs": [
        {
          "internalType": "address",
          "name": "",
          "type": "address"
        }
      ],
      "stateMutability": "view",
      "type": "function"
    },
    {
      "inputs": [],
      "name": "ownerAddress",
      "outputs": [
        {
          "internalType": "address",
          "name": "",
          "type": "address"
        }
      ],
      "stateMutability": "view",
      "type": "function"
    },
    {
      "inputs": [
        {
          "internalType": "uint256",
          "name": "tokenId",
          "type": "uint256"
        }
      ],
      "name": "ownerOf",
      "outputs": [
        {
          "internalType": "address",
          "name": "",
          "type": "address"
        }
      ],
      "stateMutability": "view",
      "type": "function"
    },
    {
      "inputs": [],
      "name": "paused",
      "outputs": [
        {
          "internalType": "bool",
          "name": "",
          "type": "bool"
        }
      ],
      "stateMutability": "view",
      "type": "function"
    },
    {
      "inputs": [],
      "name": "renounceOwnership",
      "outputs": [],
      "stateMutability": "nonpayable",
      "type": "function"
    },
    {
      "inputs": [
        {
          "internalType": "address",
          "name": "from",
          "type": "address"
        },
        {
          "internalType": "address",
          "name": "to",
          "type": "address"
        },
        {
          "internalType": "uint256",
          "name": "tokenId",
          "type": "uint256"
        }
      ],
      "name": "safeTransferFrom",
      "outputs": [],
      "stateMutability": "nonpayable",
      "type": "function"
    },
    {
      "inputs": [
        {
          "internalType": "address",
          "name": "from",
          "type": "address"
        },
        {
          "internalType": "address",
          "name": "to",
          "type": "address"
        },
        {
          "internalType": "uint256",
          "name": "tokenId",
          "type": "uint256"
        },
        {
          "internalType": "bytes",
          "name": "_data",
          "type": "bytes"
        }
      ],
      "name": "safeTransferFrom",
      "outputs": [],
      "stateMutability": "nonpayable",
      "type": "function"
    },
    {
      "inputs": [
        {
          "internalType": "address",
          "name": "operator",
          "type": "address"
        },
        {
          "internalType": "bool",
          "name": "approved",
          "type": "bool"
        }
      ],
      "name": "setApprovalForAll",
      "outputs": [],
      "stateMutability": "nonpayable",
      "type": "function"
    },
    {
      "inputs": [],
      "name": "symbol",
      "outputs": [
        {
          "internalType": "string",
          "name": "",
          "type": "string"
        }
      ],
      "stateMutability": "view",
      "type": "function"
    },
    {
      "inputs": [
        {
          "internalType": "uint256",
          "name": "index",
          "type": "uint256"
        }
      ],
      "name": "tokenByIndex",
      "outputs": [
        {
          "internalType": "uint256",
          "name": "",
          "type": "uint256"
        }
      ],
      "stateMutability": "view",
      "type": "function"
    },
    {
      "inputs": [
        {
          "internalType": "address",
          "name": "owner",
          "type": "address"
        },
        {
          "internalType": "uint256",
          "name": "index",
          "type": "uint256"
        }
      ],
      "name": "tokenOfOwnerByIndex",
      "outputs": [
        {
          "internalType": "uint256",
          "name": "",
          "type": "uint256"
        }
      ],
      "stateMutability": "view",
      "type": "function"
    },
    {
      "inputs": [
        {
          "internalType": "uint256",
          "name": "tokenId",
          "type": "uint256"
        }
      ],
      "name": "tokenURI",
      "outputs": [
        {
          "internalType": "string",
          "name": "",
          "type": "string"
        }
      ],
      "stateMutability": "view",
      "type": "function"
    },
    {
      "inputs": [],
      "name": "totalSupply",
      "outputs": [
        {
          "internalType": "uint256",
          "name": "",
          "type": "uint256"
        }
      ],
      "stateMutability": "view",
      "type": "function"
    },
    {
      "inputs": [
        {
          "internalType": "address",
          "name": "from",
          "type": "address"
        },
        {
          "internalType": "address",
          "name": "to",
          "type": "address"
        },
        {
          "internalType": "uint256",
          "name": "tokenId",
          "type": "uint256"
        }
      ],
      "name": "transferFrom",
      "outputs": [],
      "stateMutability": "nonpayable",
      "type": "function"
    },
    {
      "inputs": [
        {
          "internalType": "address",
          "name": "newOwner",
          "type": "address"
        }
      ],
      "name": "transferOwnership",
      "outputs": [],
      "stateMutability": "nonpayable",
      "type": "function"
    },
    {
      "inputs": [],
      "name": "totalMint",
      "outputs": [
        {
          "internalType": "uint256",
          "name": "",
          "type": "uint256"
        }
      ],
      "stateMutability": "view",
      "type": "function"
    },
    {
      "inputs": [
        {
          "internalType": "address payable",
          "name": "_to",
          "type": "address"
        },
        {
          "internalType": "uint256[]",
          "name": "_ids",
          "type": "uint256[]"
        }
      ],
      "name": "mint",
      "outputs": [],
      "stateMutability": "payable",
      "type": "function"
    },
    {
      "inputs": [
        {
          "internalType": "uint256",
          "name": "presaleAmount",
          "type": "uint256"
        }
      ],
      "name": "startPreSale",
      "outputs": [],
      "stateMutability": "nonpayable",
      "type": "function"
    },
    {
      "inputs": [],
      "name": "stopPreSale",
      "outputs": [],
      "stateMutability": "nonpayable",
      "type": "function"
    },
    {
      "inputs": [
        {
          "internalType": "uint256",
          "name": "_count",
          "type": "uint256"
        }
      ],
      "name": "price",
      "outputs": [
        {
          "internalType": "uint256",
          "name": "",
          "type": "uint256"
        }
      ],
      "stateMutability": "pure",
      "type": "function"
    },
    {
      "inputs": [
        {
          "internalType": "string",
          "name": "baseURI",
          "type": "string"
        }
      ],
      "name": "setBaseURI",
      "outputs": [],
      "stateMutability": "nonpayable",
      "type": "function"
    },
    {
      "inputs": [
        {
          "internalType": "address",
          "name": "_owner",
          "type": "address"
        }
      ],
      "name": "getTokenIdsOfWallet",
      "outputs": [
        {
          "internalType": "uint256[]",
          "name": "",
          "type": "uint256[]"
        }
      ],
      "stateMutability": "view",
      "type": "function"
    },
    {
      "inputs": [
        {
          "internalType": "bool",
          "name": "value",
          "type": "bool"
        }
      ],
      "name": "pause",
      "outputs": [],
      "stateMutability": "nonpayable",
      "type": "function"
    },
    {
      "inputs": [],
      "name": "withdrawAll",
      "outputs": [],
      "stateMutability": "payable",
      "type": "function"
    },
    {
      "inputs": [
        {
          "internalType": "bytes4",
          "name": "interfaceId",
          "type": "bytes4"
        }
      ],
      "name": "supportsInterface",
      "outputs": [
        {
          "internalType": "bool",
          "name": "",
          "type": "bool"
        }
      ],
      "stateMutability": "view",
      "type": "function"
    }
  ],
  "bytecode": "0x60806040523480156200001157600080fd5b5060405162005a8038038062005a80833981810160405281019062000037919062000663565b6040518060400160405280600e81526020017f43727970746f4174686c657465730000000000000000000000000000000000008152506040518060400160405280600481526020017f43415448000000000000000000000000000000000000000000000000000000008152508160009080519060200190620000bb92919062000535565b508060019080519060200190620000d492919062000535565b505050620000f7620000eb6200014560201b60201c565b6200014d60201b60201c565b6000600a60146101000a81548160ff02191690831515021790555062000123816200021360201b60201c565b620001356001620002be60201b60201c565b612724600e819055505062000a01565b600033905090565b6000600a60009054906101000a900473ffffffffffffffffffffffffffffffffffffffff16905081600a60006101000a81548173ffffffffffffffffffffffffffffffffffffffff021916908373ffffffffffffffffffffffffffffffffffffffff1602179055508173ffffffffffffffffffffffffffffffffffffffff168173ffffffffffffffffffffffffffffffffffffffff167f8be0079c531659141344cd1fd0a4f28419497f9722a3daafe3b4186f6b6457e060405160405180910390a35050565b620002236200014560201b60201c565b73ffffffffffffffffffffffffffffffffffffffff16620002496200038560201b60201c565b73ffffffffffffffffffffffffffffffffffffffff1614620002a2576040517f08c379a000000000000000000000000000000000000000000000000000000000815260040162000299906200079b565b60405180910390fd5b80600f9080519060200190620002ba92919062000535565b5050565b620002ce6200014560201b60201c565b73ffffffffffffffffffffffffffffffffffffffff16620002f46200038560201b60201c565b73ffffffffffffffffffffffffffffffffffffffff16146200034d576040517f08c379a000000000000000000000000000000000000000000000000000000000815260040162000344906200079b565b60405180910390fd5b60011515811515141562000371576200036b620003af60201b60201c565b62000382565b620003816200046760201b60201c565b5b50565b6000600a60009054906101000a900473ffffffffffffffffffffffffffffffffffffffff16905090565b620003bf6200051e60201b60201c565b1562000402576040517f08c379a0000000000000000000000000000000000000000000000000000000008152600401620003f99062000779565b60405180910390fd5b6001600a60146101000a81548160ff0219169083151502179055507f62e78cea01bee320cd4e420270b5ea74000d11b0c9f74754ebdbfc544b05a2586200044e6200014560201b60201c565b6040516200045d91906200073a565b60405180910390a1565b620004776200051e60201b60201c565b620004b9576040517f08c379a0000000000000000000000000000000000000000000000000000000008152600401620004b09062000757565b60405180910390fd5b6000600a60146101000a81548160ff0219169083151502179055507f5db9ee0a495bf2e6ff9c91a7834c1ba4fdd244a5e8aa4e537bd38aeae4b073aa620005056200014560201b60201c565b6040516200051491906200073a565b60405180910390a1565b6000600a60149054906101000a900460ff16905090565b828054620005439062000897565b90600052602060002090601f016020900481019282620005675760008555620005b3565b82601f106200058257805160ff1916838001178555620005b3565b82800160010185558215620005b3579182015b82811115620005b257825182559160200191906001019062000595565b5b509050620005c29190620005c6565b5090565b5b80821115620005e1576000816000905550600101620005c7565b5090565b6000620005fc620005f684620007e6565b620007bd565b9050828152602081018484840111156200061b576200061a62000966565b5b6200062884828562000861565b509392505050565b600082601f83011262000648576200064762000961565b5b81516200065a848260208601620005e5565b91505092915050565b6000602082840312156200067c576200067b62000970565b5b600082015167ffffffffffffffff8111156200069d576200069c6200096b565b5b620006ab8482850162000630565b91505092915050565b620006bf816200082d565b82525050565b6000620006d46014836200081c565b9150620006e18262000986565b602082019050919050565b6000620006fb6010836200081c565b91506200070882620009af565b602082019050919050565b6000620007226020836200081c565b91506200072f82620009d8565b602082019050919050565b6000602082019050620007516000830184620006b4565b92915050565b600060208201905081810360008301526200077281620006c5565b9050919050565b600060208201905081810360008301526200079481620006ec565b9050919050565b60006020820190508181036000830152620007b68162000713565b9050919050565b6000620007c9620007dc565b9050620007d78282620008cd565b919050565b6000604051905090565b600067ffffffffffffffff82111562000804576200080362000932565b5b6200080f8262000975565b9050602081019050919050565b600082825260208201905092915050565b60006200083a8262000841565b9050919050565b600073ffffffffffffffffffffffffffffffffffffffff82169050919050565b60005b838110156200088157808201518184015260208101905062000864565b8381111562000891576000848401525b50505050565b60006002820490506001821680620008b057607f821691505b60208210811415620008c757620008c662000903565b5b50919050565b620008d88262000975565b810181811067ffffffffffffffff82111715620008fa57620008f962000932565b5b80604052505050565b7f4e487b7100000000000000000000000000000000000000000000000000000000600052602260045260246000fd5b7f4e487b7100000000000000000000000000000000000000000000000000000000600052604160045260246000fd5b600080fd5b600080fd5b600080fd5b600080fd5b6000601f19601f8301169050919050565b7f5061757361626c653a206e6f7420706175736564000000000000000000000000600082015250565b7f5061757361626c653a2070617573656400000000000000000000000000000000600082015250565b7f4f776e61626c653a2063616c6c6572206973206e6f7420746865206f776e6572600082015250565b61506f8062000a116000396000f3fe60806040526004361061021a5760003560e01c80636352211e11610123578063a22cb465116100ab578063de836ebd1161006f578063de836ebd146107c8578063e985e9c5146107e4578063eef6250814610821578063f2fde38b1461085e578063f8fb3366146108875761021a565b8063a22cb465146106e3578063b88d4fde1461070c578063c87b56dd14610735578063caccd7f714610772578063d547cfb71461079d5761021a565b80638ad5de28116100f25780638ad5de281461060c5780638d859f3e146106375780638da5cb5b146106625780638f84aa091461068d57806395d89b41146106b85761021a565b80636352211e1461057157806370a08231146105ae578063715018a6146105eb578063853828b6146106025761021a565b80633502a716116101a65780635276831f116101755780635276831f1461049e57806355f804b3146104c957806359a7715a146104f25780635b91c5101461051d5780635c975abb146105465761021a565b80633502a716146103e457806342842e0e1461040f57806342966c68146104385780634f6ccce7146104615761021a565b8063095ea7b3116101ed578063095ea7b3146102ed57806318160ddd1461031657806323b872dd1461034157806326a49e371461036a5780632f745c59146103a75761021a565b806301ffc9a71461021f57806302329a291461025c57806306fdde0314610285578063081812fc146102b0575b600080fd5b34801561022b57600080fd5b50610246600480360381019061024191906136a0565b61089e565b6040516102539190613e15565b60405180910390f35b34801561026857600080fd5b50610283600480360381019061027e9190613673565b6108b0565b005b34801561029157600080fd5b5061029a610952565b6040516102a79190613e30565b60405180910390f35b3480156102bc57600080fd5b506102d760048036038101906102d29190613743565b6109e4565b6040516102e49190613d8c565b60405180910390f35b3480156102f957600080fd5b50610314600480360381019061030f9190613633565b610a69565b005b34801561032257600080fd5b5061032b610b81565b6040516103389190614232565b60405180910390f35b34801561034d57600080fd5b506103686004803603810190610363919061351d565b610b8e565b005b34801561037657600080fd5b50610391600480360381019061038c9190613743565b610bee565b60405161039e9190614232565b60405180910390f35b3480156103b357600080fd5b506103ce60048036038101906103c99190613633565b610c11565b6040516103db9190614232565b60405180910390f35b3480156103f057600080fd5b506103f9610cb6565b6040516104069190614232565b60405180910390f35b34801561041b57600080fd5b506104366004803603810190610431919061351d565b610cbc565b005b34801561044457600080fd5b5061045f600480360381019061045a9190613743565b610cdc565b005b34801561046d57600080fd5b5061048860048036038101906104839190613743565b610d38565b6040516104959190614232565b60405180910390f35b3480156104aa57600080fd5b506104b3610da9565b6040516104c09190614232565b60405180910390f35b3480156104d557600080fd5b506104f060048036038101906104eb91906136fa565b610daf565b005b3480156104fe57600080fd5b50610507610e45565b6040516105149190614232565b60405180910390f35b34801561052957600080fd5b50610544600480360381019061053f9190613743565b610e54565b005b34801561055257600080fd5b5061055b610f1e565b6040516105689190613e15565b60405180910390f35b34801561057d57600080fd5b5061059860048036038101906105939190613743565b610f35565b6040516105a59190613d8c565b60405180910390f35b3480156105ba57600080fd5b506105d560048036038101906105d09190613454565b610fe7565b6040516105e29190614232565b60405180910390f35b3480156105f757600080fd5b5061060061109f565b005b61060a611127565b005b34801561061857600080fd5b50610621611219565b60405161062e9190614232565b60405180910390f35b34801561064357600080fd5b5061064c61121e565b6040516106599190614232565b60405180910390f35b34801561066e57600080fd5b50610677611229565b6040516106849190613d8c565b60405180910390f35b34801561069957600080fd5b506106a2611253565b6040516106af9190613d8c565b60405180910390f35b3480156106c457600080fd5b506106cd61126a565b6040516106da9190613e30565b60405180910390f35b3480156106ef57600080fd5b5061070a600480360381019061070591906135f3565b6112fc565b005b34801561071857600080fd5b50610733600480360381019061072e9190613570565b61147d565b005b34801561074157600080fd5b5061075c60048036038101906107579190613743565b6114df565b6040516107699190613e30565b60405180910390f35b34801561077e57600080fd5b50610787611586565b6040516107949190613d8c565b60405180910390f35b3480156107a957600080fd5b506107b261159e565b6040516107bf9190613e30565b60405180910390f35b6107e260048036038101906107dd9190613481565b61162c565b005b3480156107f057600080fd5b5061080b600480360381019061080691906134dd565b61191f565b6040516108189190613e15565b60405180910390f35b34801561082d57600080fd5b5061084860048036038101906108439190613454565b6119b3565b6040516108559190613df3565b60405180910390f35b34801561086a57600080fd5b5061088560048036038101906108809190613454565b611a61565b005b34801561089357600080fd5b5061089c611b59565b005b60006108a982611be0565b9050919050565b6108b8611c5a565b73ffffffffffffffffffffffffffffffffffffffff166108d6611229565b73ffffffffffffffffffffffffffffffffffffffff161461092c576040517f08c379a0000000000000000000000000000000000000000000000000000000008152600401610923906140b2565b60405180910390fd5b60011515811515141561094657610941611c62565b61094f565b61094e611d05565b5b50565b60606000805461096190614564565b80601f016020809104026020016040519081016040528092919081815260200182805461098d90614564565b80156109da5780601f106109af576101008083540402835291602001916109da565b820191906000526020600020905b8154815290600101906020018083116109bd57829003601f168201915b5050505050905090565b60006109ef82611da7565b610a2e576040517f08c379a0000000000000000000000000000000000000000000000000000000008152600401610a2590614092565b60405180910390fd5b6004600083815260200190815260200160002060009054906101000a900473ffffffffffffffffffffffffffffffffffffffff169050919050565b6000610a7482610f35565b90508073ffffffffffffffffffffffffffffffffffffffff168373ffffffffffffffffffffffffffffffffffffffff161415610ae5576040517f08c379a0000000000000000000000000000000000000000000000000000000008152600401610adc90614112565b60405180910390fd5b8073ffffffffffffffffffffffffffffffffffffffff16610b04611c5a565b73ffffffffffffffffffffffffffffffffffffffff161480610b335750610b3281610b2d611c5a565b61191f565b5b610b72576040517f08c379a0000000000000000000000000000000000000000000000000000000008152600401610b6990614012565b60405180910390fd5b610b7c8383611e13565b505050565b6000600880549050905090565b610b9f610b99611c5a565b82611ecc565b610bde576040517f08c379a0000000000000000000000000000000000000000000000000000000008152600401610bd590614172565b60405180910390fd5b610be9838383611faa565b505050565b6000610c0a8266b1a2bc2ec5000061220690919063ffffffff16565b9050919050565b6000610c1c83610fe7565b8210610c5d576040517f08c379a0000000000000000000000000000000000000000000000000000000008152600401610c5490613e92565b60405180910390fd5b600660008473ffffffffffffffffffffffffffffffffffffffff1673ffffffffffffffffffffffffffffffffffffffff168152602001908152602001600020600083815260200190815260200160002054905092915050565b61272481565b610cd78383836040518060200160405280600081525061147d565b505050565b610ced610ce7611c5a565b82611ecc565b610d2c576040517f08c379a0000000000000000000000000000000000000000000000000000000008152600401610d23906141d2565b60405180910390fd5b610d358161221c565b50565b6000610d42610b81565b8210610d83576040517f08c379a0000000000000000000000000000000000000000000000000000000008152600401610d7a90614192565b60405180910390fd5b60088281548110610d9757610d966146fd565b5b90600052602060002001549050919050565b600e5481565b610db7611c5a565b73ffffffffffffffffffffffffffffffffffffffff16610dd5611229565b73ffffffffffffffffffffffffffffffffffffffff1614610e2b576040517f08c379a0000000000000000000000000000000000000000000000000000000008152600401610e22906140b2565b60405180910390fd5b80600f9080519060200190610e419291906131b5565b5050565b6000610e4f61232d565b905090565b610e5c611c5a565b73ffffffffffffffffffffffffffffffffffffffff16610e7a611229565b73ffffffffffffffffffffffffffffffffffffffff1614610ed0576040517f08c379a0000000000000000000000000000000000000000000000000000000008152600401610ec7906140b2565b60405180910390fd5b6000811415610f14576040517f08c379a0000000000000000000000000000000000000000000000000000000008152600401610f0b90614212565b60405180910390fd5b80600e8190555050565b6000600a60149054906101000a900460ff16905090565b6000806002600084815260200190815260200160002060009054906101000a900473ffffffffffffffffffffffffffffffffffffffff169050600073ffffffffffffffffffffffffffffffffffffffff168173ffffffffffffffffffffffffffffffffffffffff161415610fde576040517f08c379a0000000000000000000000000000000000000000000000000000000008152600401610fd590614052565b60405180910390fd5b80915050919050565b60008073ffffffffffffffffffffffffffffffffffffffff168273ffffffffffffffffffffffffffffffffffffffff161415611058576040517f08c379a000000000000000000000000000000000000000000000000000000000815260040161104f90614032565b60405180910390fd5b600360008373ffffffffffffffffffffffffffffffffffffffff1673ffffffffffffffffffffffffffffffffffffffff168152602001908152602001600020549050919050565b6110a7611c5a565b73ffffffffffffffffffffffffffffffffffffffff166110c5611229565b73ffffffffffffffffffffffffffffffffffffffff161461111b576040517f08c379a0000000000000000000000000000000000000000000000000000000008152600401611112906140b2565b60405180910390fd5b611125600061233e565b565b61112f611c5a565b73ffffffffffffffffffffffffffffffffffffffff1661114d611229565b73ffffffffffffffffffffffffffffffffffffffff16146111a3576040517f08c379a000000000000000000000000000000000000000000000000000000000815260040161119a906140b2565b60405180910390fd5b6000479050600081116111b557600080fd5b6111f973a7482c9c5926e88d85804a969c383730ce1006396111f460646111e660038661220690919063ffffffff16565b61240490919063ffffffff16565b61241a565b6112167281ad52ff7eb8b5165777aa6adcf7d80cbf647d4761241a565b50565b601481565b66b1a2bc2ec5000081565b6000600a60009054906101000a900473ffffffffffffffffffffffffffffffffffffffff16905090565b7281ad52ff7eb8b5165777aa6adcf7d80cbf647d81565b60606001805461127990614564565b80601f01602080910402602001604051908101604052809291908181526020018280546112a590614564565b80156112f25780601f106112c7576101008083540402835291602001916112f2565b820191906000526020600020905b8154815290600101906020018083116112d557829003601f168201915b5050505050905090565b611304611c5a565b73ffffffffffffffffffffffffffffffffffffffff168273ffffffffffffffffffffffffffffffffffffffff161415611372576040517f08c379a000000000000000000000000000000000000000000000000000000000815260040161136990613fb2565b60405180910390fd5b806005600061137f611c5a565b73ffffffffffffffffffffffffffffffffffffffff1673ffffffffffffffffffffffffffffffffffffffff16815260200190815260200160002060008473ffffffffffffffffffffffffffffffffffffffff1673ffffffffffffffffffffffffffffffffffffffff16815260200190815260200160002060006101000a81548160ff0219169083151502179055508173ffffffffffffffffffffffffffffffffffffffff1661142c611c5a565b73ffffffffffffffffffffffffffffffffffffffff167f17307eab39ab6107e8899845ad3d59bd9653f200f220920489ca2b5937696c31836040516114719190613e15565b60405180910390a35050565b61148e611488611c5a565b83611ecc565b6114cd576040517f08c379a00000000000000000000000000000000000000000000000000000000081526004016114c490614172565b60405180910390fd5b6114d9848484846124cb565b50505050565b60606114ea82611da7565b611529576040517f08c379a0000000000000000000000000000000000000000000000000000000008152600401611520906140f2565b60405180910390fd5b6000611533612527565b90506000815111611553576040518060200160405280600081525061157e565b8061155d846125b9565b60405160200161156e929190613d48565b6040516020818303038152906040525b915050919050565b73a7482c9c5926e88d85804a969c383730ce10063981565b600f80546115ab90614564565b80601f01602080910402602001604051908101604052809291908181526020018280546115d790614564565b80156116245780601f106115f957610100808354040283529160200191611624565b820191906000526020600020905b81548152906001019060200180831161160757829003601f168201915b505050505081565b600e5461163761232d565b1115611678576040517f08c379a000000000000000000000000000000000000000000000000000000000815260040161166f906141f2565b60405180910390fd5b611680611229565b73ffffffffffffffffffffffffffffffffffffffff1661169e611c5a565b73ffffffffffffffffffffffffffffffffffffffff1614611702576116c1610f1e565b15611701576040517f08c379a00000000000000000000000000000000000000000000000000000000081526004016116f890613ed2565b60405180910390fd5b5b600061170c61232d565b9050600e5482518261171e9190614387565b111561175f576040517f08c379a000000000000000000000000000000000000000000000000000000000815260040161175690613ef2565b60405180910390fd5b600e548111156117a4576040517f08c379a000000000000000000000000000000000000000000000000000000000815260040161179b90613f52565b60405180910390fd5b6014825111156117e9576040517f08c379a00000000000000000000000000000000000000000000000000000000081526004016117e090614152565b60405180910390fd5b6117f38251610bee565b341015611835576040517f08c379a000000000000000000000000000000000000000000000000000000000815260040161182c906141b2565b60405180910390fd5b60005b82518110156118d55760001515600d600085848151811061185c5761185b6146fd565b5b6020026020010151815260200190815260200160002060009054906101000a900460ff161515146118c2576040517f08c379a00000000000000000000000000000000000000000000000000000000081526004016118b990614132565b60405180910390fd5b80806118cd906145c7565b915050611838565b5060005b825181101561191957611906848483815181106118f9576118f86146fd565b5b602002602001015161271a565b8080611911906145c7565b9150506118d9565b50505050565b6000600560008473ffffffffffffffffffffffffffffffffffffffff1673ffffffffffffffffffffffffffffffffffffffff16815260200190815260200160002060008373ffffffffffffffffffffffffffffffffffffffff1673ffffffffffffffffffffffffffffffffffffffff16815260200190815260200160002060009054906101000a900460ff16905092915050565b606060006119c083610fe7565b905060008167ffffffffffffffff8111156119de576119dd61472c565b5b604051908082528060200260200182016040528015611a0c5781602001602082028036833780820191505090505b50905060005b82811015611a5657611a248582610c11565b828281518110611a3757611a366146fd565b5b6020026020010181815250508080611a4e906145c7565b915050611a12565b508092505050919050565b611a69611c5a565b73ffffffffffffffffffffffffffffffffffffffff16611a87611229565b73ffffffffffffffffffffffffffffffffffffffff1614611add576040517f08c379a0000000000000000000000000000000000000000000000000000000008152600401611ad4906140b2565b60405180910390fd5b600073ffffffffffffffffffffffffffffffffffffffff168173ffffffffffffffffffffffffffffffffffffffff161415611b4d576040517f08c379a0000000000000000000000000000000000000000000000000000000008152600401611b4490613f12565b60405180910390fd5b611b568161233e565b50565b611b61611c5a565b73ffffffffffffffffffffffffffffffffffffffff16611b7f611229565b73ffffffffffffffffffffffffffffffffffffffff1614611bd5576040517f08c379a0000000000000000000000000000000000000000000000000000000008152600401611bcc906140b2565b60405180910390fd5b612724600e81905550565b60007f780e9d63000000000000000000000000000000000000000000000000000000007bffffffffffffffffffffffffffffffffffffffffffffffffffffffff1916827bffffffffffffffffffffffffffffffffffffffffffffffffffffffff19161480611c535750611c528261278b565b5b9050919050565b600033905090565b611c6a610f1e565b15611caa576040517f08c379a0000000000000000000000000000000000000000000000000000000008152600401611ca190613ff2565b60405180910390fd5b6001600a60146101000a81548160ff0219169083151502179055507f62e78cea01bee320cd4e420270b5ea74000d11b0c9f74754ebdbfc544b05a258611cee611c5a565b604051611cfb9190613d8c565b60405180910390a1565b611d0d610f1e565b611d4c576040517f08c379a0000000000000000000000000000000000000000000000000000000008152600401611d4390613e72565b60405180910390fd5b6000600a60146101000a81548160ff0219169083151502179055507f5db9ee0a495bf2e6ff9c91a7834c1ba4fdd244a5e8aa4e537bd38aeae4b073aa611d90611c5a565b604051611d9d9190613d8c565b60405180910390a1565b60008073ffffffffffffffffffffffffffffffffffffffff166002600084815260200190815260200160002060009054906101000a900473ffffffffffffffffffffffffffffffffffffffff1673ffffffffffffffffffffffffffffffffffffffff1614159050919050565b816004600083815260200190815260200160002060006101000a81548173ffffffffffffffffffffffffffffffffffffffff021916908373ffffffffffffffffffffffffffffffffffffffff160217905550808273ffffffffffffffffffffffffffffffffffffffff16611e8683610f35565b73ffffffffffffffffffffffffffffffffffffffff167f8c5be1e5ebec7d5bd14f71427d1e84f3dd0314c0f7b2291e5b200ac8c7c3b92560405160405180910390a45050565b6000611ed782611da7565b611f16576040517f08c379a0000000000000000000000000000000000000000000000000000000008152600401611f0d90613fd2565b60405180910390fd5b6000611f2183610f35565b90508073ffffffffffffffffffffffffffffffffffffffff168473ffffffffffffffffffffffffffffffffffffffff161480611f9057508373ffffffffffffffffffffffffffffffffffffffff16611f78846109e4565b73ffffffffffffffffffffffffffffffffffffffff16145b80611fa15750611fa0818561191f565b5b91505092915050565b8273ffffffffffffffffffffffffffffffffffffffff16611fca82610f35565b73ffffffffffffffffffffffffffffffffffffffff1614612020576040517f08c379a0000000000000000000000000000000000000000000000000000000008152600401612017906140d2565b60405180910390fd5b600073ffffffffffffffffffffffffffffffffffffffff168273ffffffffffffffffffffffffffffffffffffffff161415612090576040517f08c379a000000000000000000000000000000000000000000000000000000000815260040161208790613f92565b60405180910390fd5b61209b83838361286d565b6120a6600082611e13565b6001600360008573ffffffffffffffffffffffffffffffffffffffff1673ffffffffffffffffffffffffffffffffffffffff16815260200190815260200160002060008282546120f69190614468565b925050819055506001600360008473ffffffffffffffffffffffffffffffffffffffff1673ffffffffffffffffffffffffffffffffffffffff168152602001908152602001600020600082825461214d9190614387565b92505081905550816002600083815260200190815260200160002060006101000a81548173ffffffffffffffffffffffffffffffffffffffff021916908373ffffffffffffffffffffffffffffffffffffffff160217905550808273ffffffffffffffffffffffffffffffffffffffff168473ffffffffffffffffffffffffffffffffffffffff167fddf252ad1be2c89b69c2b068fc378daa952ba7f163c4a11628f55a4df523b3ef60405160405180910390a4505050565b60008183612214919061440e565b905092915050565b600061222782610f35565b90506122358160008461286d565b612240600083611e13565b6001600360008373ffffffffffffffffffffffffffffffffffffffff1673ffffffffffffffffffffffffffffffffffffffff16815260200190815260200160002060008282546122909190614468565b925050819055506002600083815260200190815260200160002060006101000a81549073ffffffffffffffffffffffffffffffffffffffff021916905581600073ffffffffffffffffffffffffffffffffffffffff168273ffffffffffffffffffffffffffffffffffffffff167fddf252ad1be2c89b69c2b068fc378daa952ba7f163c4a11628f55a4df523b3ef60405160405180910390a45050565b6000612339600b61287d565b905090565b6000600a60009054906101000a900473ffffffffffffffffffffffffffffffffffffffff16905081600a60006101000a81548173ffffffffffffffffffffffffffffffffffffffff021916908373ffffffffffffffffffffffffffffffffffffffff1602179055508173ffffffffffffffffffffffffffffffffffffffff168173ffffffffffffffffffffffffffffffffffffffff167f8be0079c531659141344cd1fd0a4f28419497f9722a3daafe3b4186f6b6457e060405160405180910390a35050565b6000818361241291906143dd565b905092915050565b60008273ffffffffffffffffffffffffffffffffffffffff168260405161244090613d77565b60006040518083038185875af1925050503d806000811461247d576040519150601f19603f3d011682016040523d82523d6000602084013e612482565b606091505b50509050806124c6576040517f08c379a00000000000000000000000000000000000000000000000000000000081526004016124bd90613f72565b60405180910390fd5b505050565b6124d6848484611faa565b6124e28484848461288b565b612521576040517f08c379a000000000000000000000000000000000000000000000000000000000815260040161251890613eb2565b60405180910390fd5b50505050565b6060600f805461253690614564565b80601f016020809104026020016040519081016040528092919081815260200182805461256290614564565b80156125af5780601f10612584576101008083540402835291602001916125af565b820191906000526020600020905b81548152906001019060200180831161259257829003601f168201915b5050505050905090565b60606000821415612601576040518060400160405280600181526020017f30000000000000000000000000000000000000000000000000000000000000008152509050612715565b600082905060005b6000821461263357808061261c906145c7565b915050600a8261262c91906143dd565b9150612609565b60008167ffffffffffffffff81111561264f5761264e61472c565b5b6040519080825280601f01601f1916602001820160405280156126815781602001600182028036833780820191505090505b5090505b6000851461270e5760018261269a9190614468565b9150600a856126a99190614610565b60306126b59190614387565b60f81b8183815181106126cb576126ca6146fd565b5b60200101907effffffffffffffffffffffffffffffffffffffffffffffffffffffffffffff1916908160001a905350600a8561270791906143dd565b9450612685565b8093505050505b919050565b612724600b612a22565b61272e8282612a38565b6001600d600083815260200190815260200160002060006101000a81548160ff021916908315150217905550807fb49e345da8acc73b2902d35c00bfb023f6a3d36e775d578ce73e80c78fc70bb560405160405180910390a25050565b60007f80ac58cd000000000000000000000000000000000000000000000000000000007bffffffffffffffffffffffffffffffffffffffffffffffffffffffff1916827bffffffffffffffffffffffffffffffffffffffffffffffffffffffff1916148061285657507f5b5e139f000000000000000000000000000000000000000000000000000000007bffffffffffffffffffffffffffffffffffffffffffffffffffffffff1916827bffffffffffffffffffffffffffffffffffffffffffffffffffffffff1916145b80612866575061286582612a56565b5b9050919050565b612878838383612ac0565b505050565b600081600001549050919050565b60006128ac8473ffffffffffffffffffffffffffffffffffffffff16612b5a565b15612a15578373ffffffffffffffffffffffffffffffffffffffff1663150b7a026128d5611c5a565b8786866040518563ffffffff1660e01b81526004016128f79493929190613da7565b602060405180830381600087803b15801561291157600080fd5b505af192505050801561294257506040513d601f19601f8201168201806040525081019061293f91906136cd565b60015b6129c5573d8060008114612972576040519150601f19603f3d011682016040523d82523d6000602084013e612977565b606091505b506000815114156129bd576040517f08c379a00000000000000000000000000000000000000000000000000000000081526004016129b490613eb2565b60405180910390fd5b805181602001fd5b63150b7a0260e01b7bffffffffffffffffffffffffffffffffffffffffffffffffffffffff1916817bffffffffffffffffffffffffffffffffffffffffffffffffffffffff191614915050612a1a565b600190505b949350505050565b6001816000016000828254019250508190555050565b612a52828260405180602001604052806000815250612b6d565b5050565b60007f01ffc9a7000000000000000000000000000000000000000000000000000000007bffffffffffffffffffffffffffffffffffffffffffffffffffffffff1916827bffffffffffffffffffffffffffffffffffffffffffffffffffffffff1916149050919050565b612acb838383612bc8565b612ad3611229565b73ffffffffffffffffffffffffffffffffffffffff16612af1611c5a565b73ffffffffffffffffffffffffffffffffffffffff1614612b5557612b14610f1e565b15612b54576040517f08c379a0000000000000000000000000000000000000000000000000000000008152600401612b4b90613e52565b60405180910390fd5b5b505050565b600080823b905060008111915050919050565b612b778383612cdc565b612b84600084848461288b565b612bc3576040517f08c379a0000000000000000000000000000000000000000000000000000000008152600401612bba90613eb2565b60405180910390fd5b505050565b612bd3838383612eaa565b600073ffffffffffffffffffffffffffffffffffffffff168373ffffffffffffffffffffffffffffffffffffffff161415612c1657612c1181612eaf565b612c55565b8173ffffffffffffffffffffffffffffffffffffffff168373ffffffffffffffffffffffffffffffffffffffff1614612c5457612c538382612ef8565b5b5b600073ffffffffffffffffffffffffffffffffffffffff168273ffffffffffffffffffffffffffffffffffffffff161415612c9857612c9381613065565b612cd7565b8273ffffffffffffffffffffffffffffffffffffffff168273ffffffffffffffffffffffffffffffffffffffff1614612cd657612cd58282613136565b5b5b505050565b600073ffffffffffffffffffffffffffffffffffffffff168273ffffffffffffffffffffffffffffffffffffffff161415612d4c576040517f08c379a0000000000000000000000000000000000000000000000000000000008152600401612d4390614072565b60405180910390fd5b612d5581611da7565b15612d95576040517f08c379a0000000000000000000000000000000000000000000000000000000008152600401612d8c90613f32565b60405180910390fd5b612da16000838361286d565b6001600360008473ffffffffffffffffffffffffffffffffffffffff1673ffffffffffffffffffffffffffffffffffffffff1681526020019081526020016000206000828254612df19190614387565b92505081905550816002600083815260200190815260200160002060006101000a81548173ffffffffffffffffffffffffffffffffffffffff021916908373ffffffffffffffffffffffffffffffffffffffff160217905550808273ffffffffffffffffffffffffffffffffffffffff16600073ffffffffffffffffffffffffffffffffffffffff167fddf252ad1be2c89b69c2b068fc378daa952ba7f163c4a11628f55a4df523b3ef60405160405180910390a45050565b505050565b6008805490506009600083815260200190815260200160002081905550600881908060018154018082558091505060019003906000526020600020016000909190919091505550565b60006001612f0584610fe7565b612f0f9190614468565b9050600060076000848152602001908152602001600020549050818114612ff4576000600660008673ffffffffffffffffffffffffffffffffffffffff1673ffffffffffffffffffffffffffffffffffffffff168152602001908152602001600020600084815260200190815260200160002054905080600660008773ffffffffffffffffffffffffffffffffffffffff1673ffffffffffffffffffffffffffffffffffffffff168152602001908152602001600020600084815260200190815260200160002081905550816007600083815260200190815260200160002081905550505b6007600084815260200190815260200160002060009055600660008573ffffffffffffffffffffffffffffffffffffffff1673ffffffffffffffffffffffffffffffffffffffff16815260200190815260200160002060008381526020019081526020016000206000905550505050565b600060016008805490506130799190614468565b90506000600960008481526020019081526020016000205490506000600883815481106130a9576130a86146fd565b5b9060005260206000200154905080600883815481106130cb576130ca6146fd565b5b90600052602060002001819055508160096000838152602001908152602001600020819055506009600085815260200190815260200160002060009055600880548061311a576131196146ce565b5b6001900381819060005260206000200160009055905550505050565b600061314183610fe7565b905081600660008573ffffffffffffffffffffffffffffffffffffffff1673ffffffffffffffffffffffffffffffffffffffff168152602001908152602001600020600083815260200190815260200160002081905550806007600084815260200190815260200160002081905550505050565b8280546131c190614564565b90600052602060002090601f0160209004810192826131e3576000855561322a565b82601f106131fc57805160ff191683800117855561322a565b8280016001018555821561322a579182015b8281111561322957825182559160200191906001019061320e565b5b509050613237919061323b565b5090565b5b8082111561325457600081600090555060010161323c565b5090565b600061326b61326684614272565b61424d565b9050808382526020820190508285602086028201111561328e5761328d614760565b5b60005b858110156132be57816132a4888261343f565b845260208401935060208301925050600181019050613291565b5050509392505050565b60006132db6132d68461429e565b61424d565b9050828152602081018484840111156132f7576132f6614765565b5b613302848285614522565b509392505050565b600061331d613318846142cf565b61424d565b90508281526020810184848401111561333957613338614765565b5b613344848285614522565b509392505050565b60008135905061335b81614fc6565b92915050565b60008135905061337081614fdd565b92915050565b600082601f83011261338b5761338a61475b565b5b813561339b848260208601613258565b91505092915050565b6000813590506133b381614ff4565b92915050565b6000813590506133c88161500b565b92915050565b6000815190506133dd8161500b565b92915050565b600082601f8301126133f8576133f761475b565b5b81356134088482602086016132c8565b91505092915050565b600082601f8301126134265761342561475b565b5b813561343684826020860161330a565b91505092915050565b60008135905061344e81615022565b92915050565b60006020828403121561346a5761346961476f565b5b60006134788482850161334c565b91505092915050565b600080604083850312156134985761349761476f565b5b60006134a685828601613361565b925050602083013567ffffffffffffffff8111156134c7576134c661476a565b5b6134d385828601613376565b9150509250929050565b600080604083850312156134f4576134f361476f565b5b60006135028582860161334c565b92505060206135138582860161334c565b9150509250929050565b6000806000606084860312156135365761353561476f565b5b60006135448682870161334c565b93505060206135558682870161334c565b92505060406135668682870161343f565b9150509250925092565b6000806000806080858703121561358a5761358961476f565b5b60006135988782880161334c565b94505060206135a98782880161334c565b93505060406135ba8782880161343f565b925050606085013567ffffffffffffffff8111156135db576135da61476a565b5b6135e7878288016133e3565b91505092959194509250565b6000806040838503121561360a5761360961476f565b5b60006136188582860161334c565b9250506020613629858286016133a4565b9150509250929050565b6000806040838503121561364a5761364961476f565b5b60006136588582860161334c565b92505060206136698582860161343f565b9150509250929050565b6000602082840312156136895761368861476f565b5b6000613697848285016133a4565b91505092915050565b6000602082840312156136b6576136b561476f565b5b60006136c4848285016133b9565b91505092915050565b6000602082840312156136e3576136e261476f565b5b60006136f1848285016133ce565b91505092915050565b6000602082840312156137105761370f61476f565b5b600082013567ffffffffffffffff81111561372e5761372d61476a565b5b61373a84828501613411565b91505092915050565b6000602082840312156137595761375861476f565b5b60006137678482850161343f565b91505092915050565b600061377c8383613d2a565b60208301905092915050565b6137918161449c565b82525050565b60006137a282614310565b6137ac818561433e565b93506137b783614300565b8060005b838110156137e85781516137cf8882613770565b97506137da83614331565b9250506001810190506137bb565b5085935050505092915050565b6137fe816144c0565b82525050565b600061380f8261431b565b613819818561434f565b9350613829818560208601614531565b61383281614774565b840191505092915050565b600061384882614326565b613852818561436b565b9350613862818560208601614531565b61386b81614774565b840191505092915050565b600061388182614326565b61388b818561437c565b935061389b818560208601614531565b80840191505092915050565b60006138b4602b8361436b565b91506138bf82614785565b604082019050919050565b60006138d760148361436b565b91506138e2826147d4565b602082019050919050565b60006138fa602b8361436b565b9150613905826147fd565b604082019050919050565b600061391d60328361436b565b91506139288261484c565b604082019050919050565b600061394060108361436b565b915061394b8261489b565b602082019050919050565b600061396360328361436b565b915061396e826148c4565b604082019050919050565b600061398660268361436b565b915061399182614913565b604082019050919050565b60006139a9601c8361436b565b91506139b482614962565b602082019050919050565b60006139cc60368361436b565b91506139d78261498b565b604082019050919050565b60006139ef601a8361436b565b91506139fa826149da565b602082019050919050565b6000613a1260248361436b565b9150613a1d82614a03565b604082019050919050565b6000613a3560198361436b565b9150613a4082614a52565b602082019050919050565b6000613a58602c8361436b565b9150613a6382614a7b565b604082019050919050565b6000613a7b60108361436b565b9150613a8682614aca565b602082019050919050565b6000613a9e60388361436b565b9150613aa982614af3565b604082019050919050565b6000613ac1602a8361436b565b9150613acc82614b42565b604082019050919050565b6000613ae460298361436b565b9150613aef82614b91565b604082019050919050565b6000613b0760208361436b565b9150613b1282614be0565b602082019050919050565b6000613b2a602c8361436b565b9150613b3582614c09565b604082019050919050565b6000613b4d60058361437c565b9150613b5882614c58565b600582019050919050565b6000613b7060208361436b565b9150613b7b82614c81565b602082019050919050565b6000613b9360298361436b565b9150613b9e82614caa565b604082019050919050565b6000613bb6602f8361436b565b9150613bc182614cf9565b604082019050919050565b6000613bd960218361436b565b9150613be482614d48565b604082019050919050565b6000613bfc60058361436b565b9150613c0782614d97565b602082019050919050565b6000613c1f600083614360565b9150613c2a82614dc0565b600082019050919050565b6000613c42602f8361436b565b9150613c4d82614dc3565b604082019050919050565b6000613c6560318361436b565b9150613c7082614e12565b604082019050919050565b6000613c88602c8361436b565b9150613c9382614e61565b604082019050919050565b6000613cab603f8361436b565b9150613cb682614eb0565b604082019050919050565b6000613cce60308361436b565b9150613cd982614eff565b604082019050919050565b6000613cf1600f8361436b565b9150613cfc82614f4e565b602082019050919050565b6000613d1460258361436b565b9150613d1f82614f77565b604082019050919050565b613d3381614518565b82525050565b613d4281614518565b82525050565b6000613d548285613876565b9150613d608284613876565b9150613d6b82613b40565b91508190509392505050565b6000613d8282613c12565b9150819050919050565b6000602082019050613da16000830184613788565b92915050565b6000608082019050613dbc6000830187613788565b613dc96020830186613788565b613dd66040830185613d39565b8181036060830152613de88184613804565b905095945050505050565b60006020820190508181036000830152613e0d8184613797565b905092915050565b6000602082019050613e2a60008301846137f5565b92915050565b60006020820190508181036000830152613e4a818461383d565b905092915050565b60006020820190508181036000830152613e6b816138a7565b9050919050565b60006020820190508181036000830152613e8b816138ca565b9050919050565b60006020820190508181036000830152613eab816138ed565b9050919050565b60006020820190508181036000830152613ecb81613910565b9050919050565b60006020820190508181036000830152613eeb81613933565b9050919050565b60006020820190508181036000830152613f0b81613956565b9050919050565b60006020820190508181036000830152613f2b81613979565b9050919050565b60006020820190508181036000830152613f4b8161399c565b9050919050565b60006020820190508181036000830152613f6b816139bf565b9050919050565b60006020820190508181036000830152613f8b816139e2565b9050919050565b60006020820190508181036000830152613fab81613a05565b9050919050565b60006020820190508181036000830152613fcb81613a28565b9050919050565b60006020820190508181036000830152613feb81613a4b565b9050919050565b6000602082019050818103600083015261400b81613a6e565b9050919050565b6000602082019050818103600083015261402b81613a91565b9050919050565b6000602082019050818103600083015261404b81613ab4565b9050919050565b6000602082019050818103600083015261406b81613ad7565b9050919050565b6000602082019050818103600083015261408b81613afa565b9050919050565b600060208201905081810360008301526140ab81613b1d565b9050919050565b600060208201905081810360008301526140cb81613b63565b9050919050565b600060208201905081810360008301526140eb81613b86565b9050919050565b6000602082019050818103600083015261410b81613ba9565b9050919050565b6000602082019050818103600083015261412b81613bcc565b9050919050565b6000602082019050818103600083015261414b81613bef565b9050919050565b6000602082019050818103600083015261416b81613c35565b9050919050565b6000602082019050818103600083015261418b81613c58565b9050919050565b600060208201905081810360008301526141ab81613c7b565b9050919050565b600060208201905081810360008301526141cb81613c9e565b9050919050565b600060208201905081810360008301526141eb81613cc1565b9050919050565b6000602082019050818103600083015261420b81613ce4565b9050919050565b6000602082019050818103600083015261422b81613d07565b9050919050565b60006020820190506142476000830184613d39565b92915050565b6000614257614268565b90506142638282614596565b919050565b6000604051905090565b600067ffffffffffffffff82111561428d5761428c61472c565b5b602082029050602081019050919050565b600067ffffffffffffffff8211156142b9576142b861472c565b5b6142c282614774565b9050602081019050919050565b600067ffffffffffffffff8211156142ea576142e961472c565b5b6142f382614774565b9050602081019050919050565b6000819050602082019050919050565b600081519050919050565b600081519050919050565b600081519050919050565b6000602082019050919050565b600082825260208201905092915050565b600082825260208201905092915050565b600081905092915050565b600082825260208201905092915050565b600081905092915050565b600061439282614518565b915061439d83614518565b9250827fffffffffffffffffffffffffffffffffffffffffffffffffffffffffffffffff038211156143d2576143d1614641565b5b828201905092915050565b60006143e882614518565b91506143f383614518565b92508261440357614402614670565b5b828204905092915050565b600061441982614518565b915061442483614518565b9250817fffffffffffffffffffffffffffffffffffffffffffffffffffffffffffffffff048311821515161561445d5761445c614641565b5b828202905092915050565b600061447382614518565b915061447e83614518565b92508282101561449157614490614641565b5b828203905092915050565b60006144a7826144f8565b9050919050565b60006144b9826144f8565b9050919050565b60008115159050919050565b60007fffffffff0000000000000000000000000000000000000000000000000000000082169050919050565b600073ffffffffffffffffffffffffffffffffffffffff82169050919050565b6000819050919050565b82818337600083830152505050565b60005b8381101561454f578082015181840152602081019050614534565b8381111561455e576000848401525b50505050565b6000600282049050600182168061457c57607f821691505b602082108114156145905761458f61469f565b5b50919050565b61459f82614774565b810181811067ffffffffffffffff821117156145be576145bd61472c565b5b80604052505050565b60006145d282614518565b91507fffffffffffffffffffffffffffffffffffffffffffffffffffffffffffffffff82141561460557614604614641565b5b600182019050919050565b600061461b82614518565b915061462683614518565b92508261463657614635614670565b5b828206905092915050565b7f4e487b7100000000000000000000000000000000000000000000000000000000600052601160045260246000fd5b7f4e487b7100000000000000000000000000000000000000000000000000000000600052601260045260246000fd5b7f4e487b7100000000000000000000000000000000000000000000000000000000600052602260045260246000fd5b7f4e487b7100000000000000000000000000000000000000000000000000000000600052603160045260246000fd5b7f4e487b7100000000000000000000000000000000000000000000000000000000600052603260045260246000fd5b7f4e487b7100000000000000000000000000000000000000000000000000000000600052604160045260246000fd5b600080fd5b600080fd5b600080fd5b600080fd5b600080fd5b6000601f19601f8301169050919050565b7f4552433732315061757361626c653a20746f6b656e207472616e73666572207760008201527f68696c6520706175736564000000000000000000000000000000000000000000602082015250565b7f5061757361626c653a206e6f7420706175736564000000000000000000000000600082015250565b7f455243373231456e756d657261626c653a206f776e657220696e646578206f7560008201527f74206f6620626f756e6473000000000000000000000000000000000000000000602082015250565b7f4552433732313a207472616e7366657220746f206e6f6e20455243373231526560008201527f63656976657220696d706c656d656e7465720000000000000000000000000000602082015250565b7f5041555341424c453a2050617573656400000000000000000000000000000000600082015250565b7f4d494e543a2043757272656e7420636f756e742065786365656473206d61786960008201527f6d756d20656c656d656e7420636f756e742e0000000000000000000000000000602082015250565b7f4f776e61626c653a206e6577206f776e657220697320746865207a65726f206160008201527f6464726573730000000000000000000000000000000000000000000000000000602082015250565b7f4552433732313a20746f6b656e20616c7265616479206d696e74656400000000600082015250565b7f4d494e543a20506c6561736520676f20746f20746865204f70656e736561207460008201527f6f206275792043727970746f204174686c657465732e00000000000000000000602082015250565b7f57495448445241573a205472616e73666572206661696c65642e000000000000600082015250565b7f4552433732313a207472616e7366657220746f20746865207a65726f2061646460008201527f7265737300000000000000000000000000000000000000000000000000000000602082015250565b7f4552433732313a20617070726f766520746f2063616c6c657200000000000000600082015250565b7f4552433732313a206f70657261746f7220717565727920666f72206e6f6e657860008201527f697374656e7420746f6b656e0000000000000000000000000000000000000000602082015250565b7f5061757361626c653a2070617573656400000000000000000000000000000000600082015250565b7f4552433732313a20617070726f76652063616c6c6572206973206e6f74206f7760008201527f6e6572206e6f7220617070726f76656420666f7220616c6c0000000000000000602082015250565b7f4552433732313a2062616c616e636520717565727920666f7220746865207a6560008201527f726f206164647265737300000000000000000000000000000000000000000000602082015250565b7f4552433732313a206f776e657220717565727920666f72206e6f6e657869737460008201527f656e7420746f6b656e0000000000000000000000000000000000000000000000602082015250565b7f4552433732313a206d696e7420746f20746865207a65726f2061646472657373600082015250565b7f4552433732313a20617070726f76656420717565727920666f72206e6f6e657860008201527f697374656e7420746f6b656e0000000000000000000000000000000000000000602082015250565b7f2e6a736f6e000000000000000000000000000000000000000000000000000000600082015250565b7f4f776e61626c653a2063616c6c6572206973206e6f7420746865206f776e6572600082015250565b7f4552433732313a207472616e73666572206f6620746f6b656e2074686174206960008201527f73206e6f74206f776e0000000000000000000000000000000000000000000000602082015250565b7f4552433732314d657461646174613a2055524920717565727920666f72206e6f60008201527f6e6578697374656e7420746f6b656e0000000000000000000000000000000000602082015250565b7f4552433732313a20617070726f76616c20746f2063757272656e74206f776e6560008201527f7200000000000000000000000000000000000000000000000000000000000000602082015250565b7f5468617420000000000000000000000000000000000000000000000000000000600082015250565b50565b7f4d494e543a2043757272656e7420636f756e742065786365656473206d61786960008201527f6d756d206d696e7420636f756e742e0000000000000000000000000000000000602082015250565b7f4552433732313a207472616e736665722063616c6c6572206973206e6f74206f60008201527f776e6572206e6f7220617070726f766564000000000000000000000000000000602082015250565b7f455243373231456e756d657261626c653a20676c6f62616c20696e646578206f60008201527f7574206f6620626f756e64730000000000000000000000000000000000000000602082015250565b7f4d494e543a2043757272656e742076616c75652069732062656c6f772074686560008201527f2073616c6573207072696365206f662043727970746f204174686c6574657300602082015250565b7f4552433732314275726e61626c653a2063616c6c6572206973206e6f74206f7760008201527f6e6572206e6f7220617070726f76656400000000000000000000000000000000602082015250565b7f53414c45533a2053616c6520656e640000000000000000000000000000000000600082015250565b7f50524553414c453a2050726573616c6520616d6f756e742063616e277420626560008201527f207a65726f000000000000000000000000000000000000000000000000000000602082015250565b614fcf8161449c565b8114614fda57600080fd5b50565b614fe6816144ae565b8114614ff157600080fd5b50565b614ffd816144c0565b811461500857600080fd5b50565b615014816144cc565b811461501f57600080fd5b50565b61502b81614518565b811461503657600080fd5b5056fea26469706673582212200db253f722321312eddc5d978b7149f4809819991d638be7c85333e60484123064736f6c63430008070033",
  "immutableReferences": {},
  "source": "// SPDX-License-Identifier: MIT\r\n\r\npragma solidity ^0.8.7;\r\n\r\nimport \"@openzeppelin/contracts/token/ERC721/ERC721.sol\";\r\nimport \"@openzeppelin/contracts/token/ERC721/extensions/ERC721Enumerable.sol\";\r\nimport \"@openzeppelin/contracts/token/ERC721/extensions/ERC721Burnable.sol\";\r\nimport \"@openzeppelin/contracts/access/Ownable.sol\";\r\nimport \"@openzeppelin/contracts/utils/math/SafeMath.sol\";\r\nimport \"@openzeppelin/contracts/utils/Counters.sol\";\r\nimport \"./ERC721Pausable.sol\";\r\n\r\ncontract CryptoAthletes is ERC721Enumerable, Ownable, ERC721Burnable, ERC721Pausable {\r\n    using SafeMath for uint256;\r\n    using Counters for Counters.Counter;\r\n\r\n    Counters.Counter private _tokenIdTracker;\r\n\r\n    uint256 public constant MAX_ELEMENTS = 1 * 10**4 + 20;\r\n    uint256 public constant PRICE = 5 * 10**16;\r\n    uint256 public constant MAX_BY_MINT = 20;\r\n    address public constant ownerAddress = 0x0081aD52FF7Eb8B5165777aa6adCf7d80cBF647D;\r\n    address public constant developerAddress = 0xA7482C9c5926E88d85804A969c383730Ce100639;\r\n\r\n    uint256[] private ids;\r\n\r\n    mapping(uint256 => bool) private isOccupied;\r\n\r\n    uint256 public maxSalesAmount;\r\n    string public baseTokenURI;\r\n\r\n    event CreateCryptoAthletes(uint256 indexed id);\r\n\r\n    modifier saleIsOpen {\r\n        require(_totalSupply() <= maxSalesAmount, \"SALES: Sale end\");\r\n\r\n        if (_msgSender() != owner()) {\r\n            require(!paused(), \"PAUSABLE: Paused\");\r\n        }\r\n        _;\r\n    }\r\n\r\n    constructor (string memory baseURI) ERC721(\"CryptoAthletes\", \"CATH\") {\r\n        setBaseURI(baseURI);\r\n        pause(true);\r\n\r\n        maxSalesAmount = MAX_ELEMENTS;\r\n    }\r\n\r\n    function _totalSupply() internal view returns (uint) {\r\n        return _tokenIdTracker.current();\r\n    }\r\n\r\n    function totalMint() public view returns (uint256) {\r\n        return _totalSupply();\r\n    }\r\n\r\n    function mint(address payable _to, uint256[] memory _ids) public payable saleIsOpen {\r\n        uint256 total = _totalSupply();\r\n\r\n        require(total + _ids.length <= maxSalesAmount, \"MINT: Current count exceeds maximum element count.\");\r\n        require(total <= maxSalesAmount, \"MINT: Please go to the Opensea to buy Crypto Athletes.\");\r\n        require(_ids.length <= MAX_BY_MINT, \"MINT: Current count exceeds maximum mint count.\");\r\n        require(msg.value >= price(_ids.length), \"MINT: Current value is below the sales price of Crypto Athletes\");\r\n\r\n        for (uint256 i = 0; i < _ids.length; i++) {\r\n            require(isOccupied[_ids[i]] == false, \"That \");\r\n        }\r\n\r\n        for (uint256 i = 0; i < _ids.length; i++) {\r\n            _mintAnElement(_to, _ids[i]);\r\n        }\r\n    }\r\n\r\n    function startPreSale(uint256 presaleAmount) public onlyOwner {\r\n        require(presaleAmount != 0, \"PRESALE: Presale amount can't be zero\");\r\n\r\n        maxSalesAmount = presaleAmount;\r\n    }\r\n\r\n    function stopPreSale() public onlyOwner {\r\n        maxSalesAmount = MAX_ELEMENTS;\r\n    }\r\n\r\n    function _mintAnElement(address payable _to, uint256 _id) private {\r\n        _tokenIdTracker.increment();\r\n        _safeMint(_to, _id);\r\n        isOccupied[_id] = true;\r\n\r\n        emit CreateCryptoAthletes(_id);\r\n    }\r\n\r\n    function price(uint256 _count) public pure returns (uint256) {\r\n        return PRICE.mul(_count);\r\n    }\r\n\r\n    function _baseURI() internal view virtual override returns (string memory) {\r\n        return baseTokenURI;\r\n    }\r\n\r\n    function setBaseURI(string memory baseURI) public onlyOwner {\r\n        baseTokenURI = baseURI;\r\n    }\r\n\r\n    function getTokenIdsOfWallet(address _owner) external view returns (uint256[] memory) {\r\n        uint256 tokenCount = balanceOf(_owner);\r\n\r\n        uint256[] memory tokensId = new uint256[](tokenCount);\r\n\r\n        for (uint256 i = 0; i < tokenCount; i++) {\r\n            tokensId[i] = tokenOfOwnerByIndex(_owner, i);\r\n        }\r\n\r\n        return tokensId;\r\n    }\r\n\r\n    function pause(bool value) public onlyOwner {\r\n        if (value == true) {\r\n            _pause();\r\n\r\n            return;\r\n        }\r\n\r\n        _unpause();\r\n    }\r\n\r\n    function withdrawAll() public payable onlyOwner {\r\n        uint256 balance = address(this).balance;\r\n        require(balance > 0);\r\n\r\n        _widthdraw(developerAddress, balance.mul(3).div(100));\r\n        _widthdraw(ownerAddress, address(this).balance);\r\n    }\r\n\r\n    function _widthdraw(address _address, uint256 _amount) private {\r\n        (bool success, ) = _address.call{value: _amount}(\"\");\r\n        require(success, \"WITHDRAW: Transfer failed.\");\r\n    }\r\n\r\n    function _beforeTokenTransfer(\r\n        address from,\r\n        address to,\r\n        uint256 tokenId\r\n    ) internal virtual override(ERC721, ERC721Enumerable, ERC721Pausable) {\r\n        super._beforeTokenTransfer(from, to, tokenId);\r\n    }\r\n\r\n    function supportsInterface(bytes4 interfaceId) public view virtual override(ERC721, ERC721Enumerable) returns (bool) {\r\n        return super.supportsInterface(interfaceId);\r\n    }\r\n}",
  "sourcePath": "F:\\Cory_Career\\Crypto_Athletes\\crypto-athletes-s1-website\\contracts\\CryptoAthletes.sol",
  "compiler": {
    "name": "solc",
    "version": "0.8.7+commit.e28d00a7.Emscripten.clang"
  },
  "schemaVersion": "3.4.3",
  "updatedAt": "2021-09-23T00:39:39.114Z",
  "devdoc": {
    "kind": "dev",
    "methods": {
      "approve(address,uint256)": {
        "details": "See {IERC721-approve}."
      },
      "balanceOf(address)": {
        "details": "See {IERC721-balanceOf}."
      },
      "burn(uint256)": {
        "details": "Burns `tokenId`. See {ERC721-_burn}. Requirements: - The caller must own `tokenId` or be an approved operator."
      },
      "getApproved(uint256)": {
        "details": "See {IERC721-getApproved}."
      },
      "isApprovedForAll(address,address)": {
        "details": "See {IERC721-isApprovedForAll}."
      },
      "name()": {
        "details": "See {IERC721Metadata-name}."
      },
      "owner()": {
        "details": "Returns the address of the current owner."
      },
      "ownerOf(uint256)": {
        "details": "See {IERC721-ownerOf}."
      },
      "paused()": {
        "details": "Returns true if the contract is paused, and false otherwise."
      },
      "renounceOwnership()": {
        "details": "Leaves the contract without owner. It will not be possible to call `onlyOwner` functions anymore. Can only be called by the current owner. NOTE: Renouncing ownership will leave the contract without an owner, thereby removing any functionality that is only available to the owner."
      },
      "safeTransferFrom(address,address,uint256)": {
        "details": "See {IERC721-safeTransferFrom}."
      },
      "safeTransferFrom(address,address,uint256,bytes)": {
        "details": "See {IERC721-safeTransferFrom}."
      },
      "setApprovalForAll(address,bool)": {
        "details": "See {IERC721-setApprovalForAll}."
      },
      "symbol()": {
        "details": "See {IERC721Metadata-symbol}."
      },
      "tokenByIndex(uint256)": {
        "details": "See {IERC721Enumerable-tokenByIndex}."
      },
      "tokenOfOwnerByIndex(address,uint256)": {
        "details": "See {IERC721Enumerable-tokenOfOwnerByIndex}."
      },
      "tokenURI(uint256)": {
        "details": "See {IERC721Metadata-tokenURI}."
      },
      "totalSupply()": {
        "details": "See {IERC721Enumerable-totalSupply}."
      },
      "transferFrom(address,address,uint256)": {
        "details": "See {IERC721-transferFrom}."
      },
      "transferOwnership(address)": {
        "details": "Transfers ownership of the contract to a new account (`newOwner`). Can only be called by the current owner."
      }
    },
    "version": 1
  },
  "userdoc": {
    "kind": "user",
    "methods": {},
    "version": 1
  }
}