{
  "contractName": "CryptoAthletes",
  "abi": [
    {
      "inputs": [
        {
          "internalType": "string",
          "name": "baseURI",
          "type": "string"
        }
      ],
      "stateMutability": "nonpayable",
      "type": "constructor"
    },
    {
      "anonymous": false,
      "inputs": [
        {
          "indexed": true,
          "internalType": "address",
          "name": "owner",
          "type": "address"
        },
        {
          "indexed": true,
          "internalType": "address",
          "name": "approved",
          "type": "address"
        },
        {
          "indexed": true,
          "internalType": "uint256",
          "name": "tokenId",
          "type": "uint256"
        }
      ],
      "name": "Approval",
      "type": "event"
    },
    {
      "anonymous": false,
      "inputs": [
        {
          "indexed": true,
          "internalType": "address",
          "name": "owner",
          "type": "address"
        },
        {
          "indexed": true,
          "internalType": "address",
          "name": "operator",
          "type": "address"
        },
        {
          "indexed": false,
          "internalType": "bool",
          "name": "approved",
          "type": "bool"
        }
      ],
      "name": "ApprovalForAll",
      "type": "event"
    },
    {
      "anonymous": false,
      "inputs": [
        {
          "indexed": true,
          "internalType": "uint256",
          "name": "id",
          "type": "uint256"
        }
      ],
      "name": "CreateCryptoAthletes",
      "type": "event"
    },
    {
      "anonymous": false,
      "inputs": [
        {
          "indexed": true,
          "internalType": "address",
          "name": "previousOwner",
          "type": "address"
        },
        {
          "indexed": true,
          "internalType": "address",
          "name": "newOwner",
          "type": "address"
        }
      ],
      "name": "OwnershipTransferred",
      "type": "event"
    },
    {
      "anonymous": false,
      "inputs": [
        {
          "indexed": false,
          "internalType": "address",
          "name": "account",
          "type": "address"
        }
      ],
      "name": "Paused",
      "type": "event"
    },
    {
      "anonymous": false,
      "inputs": [
        {
          "indexed": true,
          "internalType": "address",
          "name": "from",
          "type": "address"
        },
        {
          "indexed": true,
          "internalType": "address",
          "name": "to",
          "type": "address"
        },
        {
          "indexed": true,
          "internalType": "uint256",
          "name": "tokenId",
          "type": "uint256"
        }
      ],
      "name": "Transfer",
      "type": "event"
    },
    {
      "anonymous": false,
      "inputs": [
        {
          "indexed": false,
          "internalType": "address",
          "name": "account",
          "type": "address"
        }
      ],
      "name": "Unpaused",
      "type": "event"
    },
    {
      "inputs": [],
      "name": "MAX_BY_MINT",
      "outputs": [
        {
          "internalType": "uint256",
          "name": "",
          "type": "uint256"
        }
      ],
      "stateMutability": "view",
      "type": "function",
      "constant": true
    },
    {
      "inputs": [],
      "name": "MAX_ELEMENTS",
      "outputs": [
        {
          "internalType": "uint256",
          "name": "",
          "type": "uint256"
        }
      ],
      "stateMutability": "view",
      "type": "function",
      "constant": true
    },
    {
      "inputs": [],
      "name": "PRICE",
      "outputs": [
        {
          "internalType": "uint256",
          "name": "",
          "type": "uint256"
        }
      ],
      "stateMutability": "view",
      "type": "function",
      "constant": true
    },
    {
      "inputs": [
        {
          "internalType": "address",
          "name": "to",
          "type": "address"
        },
        {
          "internalType": "uint256",
          "name": "tokenId",
          "type": "uint256"
        }
      ],
      "name": "approve",
      "outputs": [],
      "stateMutability": "nonpayable",
      "type": "function"
    },
    {
      "inputs": [
        {
          "internalType": "address",
          "name": "owner",
          "type": "address"
        }
      ],
      "name": "balanceOf",
      "outputs": [
        {
          "internalType": "uint256",
          "name": "",
          "type": "uint256"
        }
      ],
      "stateMutability": "view",
      "type": "function",
      "constant": true
    },
    {
      "inputs": [],
      "name": "baseTokenURI",
      "outputs": [
        {
          "internalType": "string",
          "name": "",
          "type": "string"
        }
      ],
      "stateMutability": "view",
      "type": "function",
      "constant": true
    },
    {
      "inputs": [
        {
          "internalType": "uint256",
          "name": "tokenId",
          "type": "uint256"
        }
      ],
      "name": "burn",
      "outputs": [],
      "stateMutability": "nonpayable",
      "type": "function"
    },
    {
      "inputs": [],
      "name": "developerAddress",
      "outputs": [
        {
          "internalType": "address",
          "name": "",
          "type": "address"
        }
      ],
      "stateMutability": "view",
      "type": "function",
      "constant": true
    },
    {
      "inputs": [
        {
          "internalType": "uint256",
          "name": "tokenId",
          "type": "uint256"
        }
      ],
      "name": "getApproved",
      "outputs": [
        {
          "internalType": "address",
          "name": "",
          "type": "address"
        }
      ],
      "stateMutability": "view",
      "type": "function",
      "constant": true
    },
    {
      "inputs": [
        {
          "internalType": "address",
          "name": "owner",
          "type": "address"
        },
        {
          "internalType": "address",
          "name": "operator",
          "type": "address"
        }
      ],
      "name": "isApprovedForAll",
      "outputs": [
        {
          "internalType": "bool",
          "name": "",
          "type": "bool"
        }
      ],
      "stateMutability": "view",
      "type": "function",
      "constant": true
    },
    {
      "inputs": [],
      "name": "maxSalesAmount",
      "outputs": [
        {
          "internalType": "uint256",
          "name": "",
          "type": "uint256"
        }
      ],
      "stateMutability": "view",
      "type": "function",
      "constant": true
    },
    {
      "inputs": [],
      "name": "name",
      "outputs": [
        {
          "internalType": "string",
          "name": "",
          "type": "string"
        }
      ],
      "stateMutability": "view",
      "type": "function",
      "constant": true
    },
    {
      "inputs": [],
      "name": "owner",
      "outputs": [
        {
          "internalType": "address",
          "name": "",
          "type": "address"
        }
      ],
      "stateMutability": "view",
      "type": "function",
      "constant": true
    },
    {
      "inputs": [],
      "name": "ownerAddress",
      "outputs": [
        {
          "internalType": "address",
          "name": "",
          "type": "address"
        }
      ],
      "stateMutability": "view",
      "type": "function",
      "constant": true
    },
    {
      "inputs": [
        {
          "internalType": "uint256",
          "name": "tokenId",
          "type": "uint256"
        }
      ],
      "name": "ownerOf",
      "outputs": [
        {
          "internalType": "address",
          "name": "",
          "type": "address"
        }
      ],
      "stateMutability": "view",
      "type": "function",
      "constant": true
    },
    {
      "inputs": [],
      "name": "paused",
      "outputs": [
        {
          "internalType": "bool",
          "name": "",
          "type": "bool"
        }
      ],
      "stateMutability": "view",
      "type": "function",
      "constant": true
    },
    {
      "inputs": [],
      "name": "renounceOwnership",
      "outputs": [],
      "stateMutability": "nonpayable",
      "type": "function"
    },
    {
      "inputs": [
        {
          "internalType": "address",
          "name": "from",
          "type": "address"
        },
        {
          "internalType": "address",
          "name": "to",
          "type": "address"
        },
        {
          "internalType": "uint256",
          "name": "tokenId",
          "type": "uint256"
        }
      ],
      "name": "safeTransferFrom",
      "outputs": [],
      "stateMutability": "nonpayable",
      "type": "function"
    },
    {
      "inputs": [
        {
          "internalType": "address",
          "name": "from",
          "type": "address"
        },
        {
          "internalType": "address",
          "name": "to",
          "type": "address"
        },
        {
          "internalType": "uint256",
          "name": "tokenId",
          "type": "uint256"
        },
        {
          "internalType": "bytes",
          "name": "_data",
          "type": "bytes"
        }
      ],
      "name": "safeTransferFrom",
      "outputs": [],
      "stateMutability": "nonpayable",
      "type": "function"
    },
    {
      "inputs": [
        {
          "internalType": "address",
          "name": "operator",
          "type": "address"
        },
        {
          "internalType": "bool",
          "name": "approved",
          "type": "bool"
        }
      ],
      "name": "setApprovalForAll",
      "outputs": [],
      "stateMutability": "nonpayable",
      "type": "function"
    },
    {
      "inputs": [],
      "name": "symbol",
      "outputs": [
        {
          "internalType": "string",
          "name": "",
          "type": "string"
        }
      ],
      "stateMutability": "view",
      "type": "function",
      "constant": true
    },
    {
      "inputs": [
        {
          "internalType": "uint256",
          "name": "index",
          "type": "uint256"
        }
      ],
      "name": "tokenByIndex",
      "outputs": [
        {
          "internalType": "uint256",
          "name": "",
          "type": "uint256"
        }
      ],
      "stateMutability": "view",
      "type": "function",
      "constant": true
    },
    {
      "inputs": [
        {
          "internalType": "address",
          "name": "owner",
          "type": "address"
        },
        {
          "internalType": "uint256",
          "name": "index",
          "type": "uint256"
        }
      ],
      "name": "tokenOfOwnerByIndex",
      "outputs": [
        {
          "internalType": "uint256",
          "name": "",
          "type": "uint256"
        }
      ],
      "stateMutability": "view",
      "type": "function",
      "constant": true
    },
    {
      "inputs": [
        {
          "internalType": "uint256",
          "name": "tokenId",
          "type": "uint256"
        }
      ],
      "name": "tokenURI",
      "outputs": [
        {
          "internalType": "string",
          "name": "",
          "type": "string"
        }
      ],
      "stateMutability": "view",
      "type": "function",
      "constant": true
    },
    {
      "inputs": [],
      "name": "totalSupply",
      "outputs": [
        {
          "internalType": "uint256",
          "name": "",
          "type": "uint256"
        }
      ],
      "stateMutability": "view",
      "type": "function",
      "constant": true
    },
    {
      "inputs": [
        {
          "internalType": "address",
          "name": "from",
          "type": "address"
        },
        {
          "internalType": "address",
          "name": "to",
          "type": "address"
        },
        {
          "internalType": "uint256",
          "name": "tokenId",
          "type": "uint256"
        }
      ],
      "name": "transferFrom",
      "outputs": [],
      "stateMutability": "nonpayable",
      "type": "function"
    },
    {
      "inputs": [
        {
          "internalType": "address",
          "name": "newOwner",
          "type": "address"
        }
      ],
      "name": "transferOwnership",
      "outputs": [],
      "stateMutability": "nonpayable",
      "type": "function"
    },
    {
      "inputs": [],
      "name": "totalMint",
      "outputs": [
        {
          "internalType": "uint256",
          "name": "",
          "type": "uint256"
        }
      ],
      "stateMutability": "view",
      "type": "function",
      "constant": true
    },
    {
      "inputs": [
        {
          "internalType": "address payable",
          "name": "_to",
          "type": "address"
        },
        {
          "internalType": "uint256[]",
          "name": "_ids",
          "type": "uint256[]"
        }
      ],
      "name": "mint",
      "outputs": [],
      "stateMutability": "payable",
      "type": "function",
      "payable": true
    },
    {
      "inputs": [
        {
          "internalType": "uint256",
          "name": "presaleAmount",
          "type": "uint256"
        }
      ],
      "name": "startPreSale",
      "outputs": [],
      "stateMutability": "nonpayable",
      "type": "function"
    },
    {
      "inputs": [],
      "name": "stopPreSale",
      "outputs": [],
      "stateMutability": "nonpayable",
      "type": "function"
    },
    {
      "inputs": [
        {
          "internalType": "uint256",
          "name": "_count",
          "type": "uint256"
        }
      ],
      "name": "price",
      "outputs": [
        {
          "internalType": "uint256",
          "name": "",
          "type": "uint256"
        }
      ],
      "stateMutability": "pure",
      "type": "function",
      "constant": true
    },
    {
      "inputs": [
        {
          "internalType": "string",
          "name": "baseURI",
          "type": "string"
        }
      ],
      "name": "setBaseURI",
      "outputs": [],
      "stateMutability": "nonpayable",
      "type": "function"
    },
    {
      "inputs": [
        {
          "internalType": "address",
          "name": "_owner",
          "type": "address"
        }
      ],
      "name": "getTokenIdsOfWallet",
      "outputs": [
        {
          "internalType": "uint256[]",
          "name": "",
          "type": "uint256[]"
        }
      ],
      "stateMutability": "view",
      "type": "function",
      "constant": true
    },
    {
      "inputs": [
        {
          "internalType": "bool",
          "name": "value",
          "type": "bool"
        }
      ],
      "name": "pause",
      "outputs": [],
      "stateMutability": "nonpayable",
      "type": "function"
    },
    {
      "inputs": [],
      "name": "withdrawAll",
      "outputs": [],
      "stateMutability": "payable",
      "type": "function",
      "payable": true
    },
    {
      "inputs": [
        {
          "internalType": "bytes4",
          "name": "interfaceId",
          "type": "bytes4"
        }
      ],
      "name": "supportsInterface",
      "outputs": [
        {
          "internalType": "bool",
          "name": "",
          "type": "bool"
        }
      ],
      "stateMutability": "view",
      "type": "function",
      "constant": true
    }
  ],
  "bytecode": "0x60806040523480156200001157600080fd5b506040516200594738038062005947833981810160405281019062000037919062000663565b6040518060400160405280600e81526020017f43727970746f4174686c657465730000000000000000000000000000000000008152506040518060400160405280600481526020017f43415448000000000000000000000000000000000000000000000000000000008152508160009080519060200190620000bb92919062000535565b508060019080519060200190620000d492919062000535565b505050620000f7620000eb6200014560201b60201c565b6200014d60201b60201c565b6000600a60146101000a81548160ff02191690831515021790555062000123816200021360201b60201c565b620001356001620002be60201b60201c565b612724600d819055505062000a01565b600033905090565b6000600a60009054906101000a900473ffffffffffffffffffffffffffffffffffffffff16905081600a60006101000a81548173ffffffffffffffffffffffffffffffffffffffff021916908373ffffffffffffffffffffffffffffffffffffffff1602179055508173ffffffffffffffffffffffffffffffffffffffff168173ffffffffffffffffffffffffffffffffffffffff167f8be0079c531659141344cd1fd0a4f28419497f9722a3daafe3b4186f6b6457e060405160405180910390a35050565b620002236200014560201b60201c565b73ffffffffffffffffffffffffffffffffffffffff16620002496200038560201b60201c565b73ffffffffffffffffffffffffffffffffffffffff1614620002a2576040517f08c379a000000000000000000000000000000000000000000000000000000000815260040162000299906200079b565b60405180910390fd5b80600e9080519060200190620002ba92919062000535565b5050565b620002ce6200014560201b60201c565b73ffffffffffffffffffffffffffffffffffffffff16620002f46200038560201b60201c565b73ffffffffffffffffffffffffffffffffffffffff16146200034d576040517f08c379a000000000000000000000000000000000000000000000000000000000815260040162000344906200079b565b60405180910390fd5b60011515811515141562000371576200036b620003af60201b60201c565b62000382565b620003816200046760201b60201c565b5b50565b6000600a60009054906101000a900473ffffffffffffffffffffffffffffffffffffffff16905090565b620003bf6200051e60201b60201c565b1562000402576040517f08c379a0000000000000000000000000000000000000000000000000000000008152600401620003f99062000779565b60405180910390fd5b6001600a60146101000a81548160ff0219169083151502179055507f62e78cea01bee320cd4e420270b5ea74000d11b0c9f74754ebdbfc544b05a2586200044e6200014560201b60201c565b6040516200045d91906200073a565b60405180910390a1565b620004776200051e60201b60201c565b620004b9576040517f08c379a0000000000000000000000000000000000000000000000000000000008152600401620004b09062000757565b60405180910390fd5b6000600a60146101000a81548160ff0219169083151502179055507f5db9ee0a495bf2e6ff9c91a7834c1ba4fdd244a5e8aa4e537bd38aeae4b073aa620005056200014560201b60201c565b6040516200051491906200073a565b60405180910390a1565b6000600a60149054906101000a900460ff16905090565b828054620005439062000897565b90600052602060002090601f016020900481019282620005675760008555620005b3565b82601f106200058257805160ff1916838001178555620005b3565b82800160010185558215620005b3579182015b82811115620005b257825182559160200191906001019062000595565b5b509050620005c29190620005c6565b5090565b5b80821115620005e1576000816000905550600101620005c7565b5090565b6000620005fc620005f684620007e6565b620007bd565b9050828152602081018484840111156200061b576200061a62000966565b5b6200062884828562000861565b509392505050565b600082601f83011262000648576200064762000961565b5b81516200065a848260208601620005e5565b91505092915050565b6000602082840312156200067c576200067b62000970565b5b600082015167ffffffffffffffff8111156200069d576200069c6200096b565b5b620006ab8482850162000630565b91505092915050565b620006bf816200082d565b82525050565b6000620006d46014836200081c565b9150620006e18262000986565b602082019050919050565b6000620006fb6010836200081c565b91506200070882620009af565b602082019050919050565b6000620007226020836200081c565b91506200072f82620009d8565b602082019050919050565b6000602082019050620007516000830184620006b4565b92915050565b600060208201905081810360008301526200077281620006c5565b9050919050565b600060208201905081810360008301526200079481620006ec565b9050919050565b60006020820190508181036000830152620007b68162000713565b9050919050565b6000620007c9620007dc565b9050620007d78282620008cd565b919050565b6000604051905090565b600067ffffffffffffffff82111562000804576200080362000932565b5b6200080f8262000975565b9050602081019050919050565b600082825260208201905092915050565b60006200083a8262000841565b9050919050565b600073ffffffffffffffffffffffffffffffffffffffff82169050919050565b60005b838110156200088157808201518184015260208101905062000864565b8381111562000891576000848401525b50505050565b60006002820490506001821680620008b057607f821691505b60208210811415620008c757620008c662000903565b5b50919050565b620008d88262000975565b810181811067ffffffffffffffff82111715620008fa57620008f962000932565b5b80604052505050565b7f4e487b7100000000000000000000000000000000000000000000000000000000600052602260045260246000fd5b7f4e487b7100000000000000000000000000000000000000000000000000000000600052604160045260246000fd5b600080fd5b600080fd5b600080fd5b600080fd5b6000601f19601f8301169050919050565b7f5061757361626c653a206e6f7420706175736564000000000000000000000000600082015250565b7f5061757361626c653a2070617573656400000000000000000000000000000000600082015250565b7f4f776e61626c653a2063616c6c6572206973206e6f7420746865206f776e6572600082015250565b614f368062000a116000396000f3fe60806040526004361061021a5760003560e01c80636352211e11610123578063a22cb465116100ab578063de836ebd1161006f578063de836ebd146107c8578063e985e9c5146107e4578063eef6250814610821578063f2fde38b1461085e578063f8fb3366146108875761021a565b8063a22cb465146106e3578063b88d4fde1461070c578063c87b56dd14610735578063caccd7f714610772578063d547cfb71461079d5761021a565b80638ad5de28116100f25780638ad5de281461060c5780638d859f3e146106375780638da5cb5b146106625780638f84aa091461068d57806395d89b41146106b85761021a565b80636352211e1461057157806370a08231146105ae578063715018a6146105eb578063853828b6146106025761021a565b80633502a716116101a65780635276831f116101755780635276831f1461049e57806355f804b3146104c957806359a7715a146104f25780635b91c5101461051d5780635c975abb146105465761021a565b80633502a716146103e457806342842e0e1461040f57806342966c68146104385780634f6ccce7146104615761021a565b8063095ea7b3116101ed578063095ea7b3146102ed57806318160ddd1461031657806323b872dd1461034157806326a49e371461036a5780632f745c59146103a75761021a565b806301ffc9a71461021f57806302329a291461025c57806306fdde0314610285578063081812fc146102b0575b600080fd5b34801561022b57600080fd5b50610246600480360381019061024191906135d3565b61089e565b6040516102539190613d25565b60405180910390f35b34801561026857600080fd5b50610283600480360381019061027e91906135a6565b6108b0565b005b34801561029157600080fd5b5061029a610952565b6040516102a79190613d40565b60405180910390f35b3480156102bc57600080fd5b506102d760048036038101906102d29190613676565b6109e4565b6040516102e49190613c9c565b60405180910390f35b3480156102f957600080fd5b50610314600480360381019061030f9190613566565b610a69565b005b34801561032257600080fd5b5061032b610b81565b6040516103389190614122565b60405180910390f35b34801561034d57600080fd5b5061036860048036038101906103639190613450565b610b8e565b005b34801561037657600080fd5b50610391600480360381019061038c9190613676565b610bee565b60405161039e9190614122565b60405180910390f35b3480156103b357600080fd5b506103ce60048036038101906103c99190613566565b610c11565b6040516103db9190614122565b60405180910390f35b3480156103f057600080fd5b506103f9610cb6565b6040516104069190614122565b60405180910390f35b34801561041b57600080fd5b5061043660048036038101906104319190613450565b610cbc565b005b34801561044457600080fd5b5061045f600480360381019061045a9190613676565b610cdc565b005b34801561046d57600080fd5b5061048860048036038101906104839190613676565b610d38565b6040516104959190614122565b60405180910390f35b3480156104aa57600080fd5b506104b3610da9565b6040516104c09190614122565b60405180910390f35b3480156104d557600080fd5b506104f060048036038101906104eb919061362d565b610daf565b005b3480156104fe57600080fd5b50610507610e45565b6040516105149190614122565b60405180910390f35b34801561052957600080fd5b50610544600480360381019061053f9190613676565b610e54565b005b34801561055257600080fd5b5061055b610f1e565b6040516105689190613d25565b60405180910390f35b34801561057d57600080fd5b5061059860048036038101906105939190613676565b610f35565b6040516105a59190613c9c565b60405180910390f35b3480156105ba57600080fd5b506105d560048036038101906105d09190613387565b610fe7565b6040516105e29190614122565b60405180910390f35b3480156105f757600080fd5b5061060061109f565b005b61060a611127565b005b34801561061857600080fd5b50610621611219565b60405161062e9190614122565b60405180910390f35b34801561064357600080fd5b5061064c61121e565b6040516106599190614122565b60405180910390f35b34801561066e57600080fd5b50610677611229565b6040516106849190613c9c565b60405180910390f35b34801561069957600080fd5b506106a2611253565b6040516106af9190613c9c565b60405180910390f35b3480156106c457600080fd5b506106cd61126a565b6040516106da9190613d40565b60405180910390f35b3480156106ef57600080fd5b5061070a60048036038101906107059190613526565b6112fc565b005b34801561071857600080fd5b50610733600480360381019061072e91906134a3565b61147d565b005b34801561074157600080fd5b5061075c60048036038101906107579190613676565b6114df565b6040516107699190613d40565b60405180910390f35b34801561077e57600080fd5b50610787611586565b6040516107949190613c9c565b60405180910390f35b3480156107a957600080fd5b506107b261159e565b6040516107bf9190613d40565b60405180910390f35b6107e260048036038101906107dd91906133b4565b61162c565b005b3480156107f057600080fd5b5061080b60048036038101906108069190613410565b61187e565b6040516108189190613d25565b60405180910390f35b34801561082d57600080fd5b5061084860048036038101906108439190613387565b611912565b6040516108559190613d03565b60405180910390f35b34801561086a57600080fd5b5061088560048036038101906108809190613387565b6119c0565b005b34801561089357600080fd5b5061089c611ab8565b005b60006108a982611b3f565b9050919050565b6108b8611bb9565b73ffffffffffffffffffffffffffffffffffffffff166108d6611229565b73ffffffffffffffffffffffffffffffffffffffff161461092c576040517f08c379a000000000000000000000000000000000000000000000000000000000815260040161092390613fc2565b60405180910390fd5b60011515811515141561094657610941611bc1565b61094f565b61094e611c64565b5b50565b60606000805461096190614454565b80601f016020809104026020016040519081016040528092919081815260200182805461098d90614454565b80156109da5780601f106109af576101008083540402835291602001916109da565b820191906000526020600020905b8154815290600101906020018083116109bd57829003601f168201915b5050505050905090565b60006109ef82611d06565b610a2e576040517f08c379a0000000000000000000000000000000000000000000000000000000008152600401610a2590613fa2565b60405180910390fd5b6004600083815260200190815260200160002060009054906101000a900473ffffffffffffffffffffffffffffffffffffffff169050919050565b6000610a7482610f35565b90508073ffffffffffffffffffffffffffffffffffffffff168373ffffffffffffffffffffffffffffffffffffffff161415610ae5576040517f08c379a0000000000000000000000000000000000000000000000000000000008152600401610adc90614022565b60405180910390fd5b8073ffffffffffffffffffffffffffffffffffffffff16610b04611bb9565b73ffffffffffffffffffffffffffffffffffffffff161480610b335750610b3281610b2d611bb9565b61187e565b5b610b72576040517f08c379a0000000000000000000000000000000000000000000000000000000008152600401610b6990613f22565b60405180910390fd5b610b7c8383611d72565b505050565b6000600880549050905090565b610b9f610b99611bb9565b82611e2b565b610bde576040517f08c379a0000000000000000000000000000000000000000000000000000000008152600401610bd590614062565b60405180910390fd5b610be9838383611f09565b505050565b6000610c0a8266b1a2bc2ec5000061216590919063ffffffff16565b9050919050565b6000610c1c83610fe7565b8210610c5d576040517f08c379a0000000000000000000000000000000000000000000000000000000008152600401610c5490613da2565b60405180910390fd5b600660008473ffffffffffffffffffffffffffffffffffffffff1673ffffffffffffffffffffffffffffffffffffffff168152602001908152602001600020600083815260200190815260200160002054905092915050565b61272481565b610cd78383836040518060200160405280600081525061147d565b505050565b610ced610ce7611bb9565b82611e2b565b610d2c576040517f08c379a0000000000000000000000000000000000000000000000000000000008152600401610d23906140c2565b60405180910390fd5b610d358161217b565b50565b6000610d42610b81565b8210610d83576040517f08c379a0000000000000000000000000000000000000000000000000000000008152600401610d7a90614082565b60405180910390fd5b60088281548110610d9757610d966145ed565b5b90600052602060002001549050919050565b600d5481565b610db7611bb9565b73ffffffffffffffffffffffffffffffffffffffff16610dd5611229565b73ffffffffffffffffffffffffffffffffffffffff1614610e2b576040517f08c379a0000000000000000000000000000000000000000000000000000000008152600401610e2290613fc2565b60405180910390fd5b80600e9080519060200190610e419291906130e8565b5050565b6000610e4f61228c565b905090565b610e5c611bb9565b73ffffffffffffffffffffffffffffffffffffffff16610e7a611229565b73ffffffffffffffffffffffffffffffffffffffff1614610ed0576040517f08c379a0000000000000000000000000000000000000000000000000000000008152600401610ec790613fc2565b60405180910390fd5b6000811415610f14576040517f08c379a0000000000000000000000000000000000000000000000000000000008152600401610f0b90614102565b60405180910390fd5b80600d8190555050565b6000600a60149054906101000a900460ff16905090565b6000806002600084815260200190815260200160002060009054906101000a900473ffffffffffffffffffffffffffffffffffffffff169050600073ffffffffffffffffffffffffffffffffffffffff168173ffffffffffffffffffffffffffffffffffffffff161415610fde576040517f08c379a0000000000000000000000000000000000000000000000000000000008152600401610fd590613f62565b60405180910390fd5b80915050919050565b60008073ffffffffffffffffffffffffffffffffffffffff168273ffffffffffffffffffffffffffffffffffffffff161415611058576040517f08c379a000000000000000000000000000000000000000000000000000000000815260040161104f90613f42565b60405180910390fd5b600360008373ffffffffffffffffffffffffffffffffffffffff1673ffffffffffffffffffffffffffffffffffffffff168152602001908152602001600020549050919050565b6110a7611bb9565b73ffffffffffffffffffffffffffffffffffffffff166110c5611229565b73ffffffffffffffffffffffffffffffffffffffff161461111b576040517f08c379a000000000000000000000000000000000000000000000000000000000815260040161111290613fc2565b60405180910390fd5b611125600061229d565b565b61112f611bb9565b73ffffffffffffffffffffffffffffffffffffffff1661114d611229565b73ffffffffffffffffffffffffffffffffffffffff16146111a3576040517f08c379a000000000000000000000000000000000000000000000000000000000815260040161119a90613fc2565b60405180910390fd5b6000479050600081116111b557600080fd5b6111f973a7482c9c5926e88d85804a969c383730ce1006396111f460646111e660038661216590919063ffffffff16565b61236390919063ffffffff16565b612379565b6112167281ad52ff7eb8b5165777aa6adcf7d80cbf647d47612379565b50565b601481565b66b1a2bc2ec5000081565b6000600a60009054906101000a900473ffffffffffffffffffffffffffffffffffffffff16905090565b7281ad52ff7eb8b5165777aa6adcf7d80cbf647d81565b60606001805461127990614454565b80601f01602080910402602001604051908101604052809291908181526020018280546112a590614454565b80156112f25780601f106112c7576101008083540402835291602001916112f2565b820191906000526020600020905b8154815290600101906020018083116112d557829003601f168201915b5050505050905090565b611304611bb9565b73ffffffffffffffffffffffffffffffffffffffff168273ffffffffffffffffffffffffffffffffffffffff161415611372576040517f08c379a000000000000000000000000000000000000000000000000000000000815260040161136990613ec2565b60405180910390fd5b806005600061137f611bb9565b73ffffffffffffffffffffffffffffffffffffffff1673ffffffffffffffffffffffffffffffffffffffff16815260200190815260200160002060008473ffffffffffffffffffffffffffffffffffffffff1673ffffffffffffffffffffffffffffffffffffffff16815260200190815260200160002060006101000a81548160ff0219169083151502179055508173ffffffffffffffffffffffffffffffffffffffff1661142c611bb9565b73ffffffffffffffffffffffffffffffffffffffff167f17307eab39ab6107e8899845ad3d59bd9653f200f220920489ca2b5937696c31836040516114719190613d25565b60405180910390a35050565b61148e611488611bb9565b83611e2b565b6114cd576040517f08c379a00000000000000000000000000000000000000000000000000000000081526004016114c490614062565b60405180910390fd5b6114d98484848461242a565b50505050565b60606114ea82611d06565b611529576040517f08c379a000000000000000000000000000000000000000000000000000000000815260040161152090614002565b60405180910390fd5b6000611533612486565b90506000815111611553576040518060200160405280600081525061157e565b8061155d84612518565b60405160200161156e929190613c58565b6040516020818303038152906040525b915050919050565b73a7482c9c5926e88d85804a969c383730ce10063981565b600e80546115ab90614454565b80601f01602080910402602001604051908101604052809291908181526020018280546115d790614454565b80156116245780601f106115f957610100808354040283529160200191611624565b820191906000526020600020905b81548152906001019060200180831161160757829003601f168201915b505050505081565b600d5461163761228c565b1115611678576040517f08c379a000000000000000000000000000000000000000000000000000000000815260040161166f906140e2565b60405180910390fd5b611680611229565b73ffffffffffffffffffffffffffffffffffffffff1661169e611bb9565b73ffffffffffffffffffffffffffffffffffffffff1614611702576116c1610f1e565b15611701576040517f08c379a00000000000000000000000000000000000000000000000000000000081526004016116f890613de2565b60405180910390fd5b5b600061170c61228c565b9050600d5482518261171e9190614277565b111561175f576040517f08c379a000000000000000000000000000000000000000000000000000000000815260040161175690613e02565b60405180910390fd5b600d548111156117a4576040517f08c379a000000000000000000000000000000000000000000000000000000000815260040161179b90613e62565b60405180910390fd5b6014825111156117e9576040517f08c379a00000000000000000000000000000000000000000000000000000000081526004016117e090614042565b60405180910390fd5b6117f38251610bee565b341015611835576040517f08c379a000000000000000000000000000000000000000000000000000000000815260040161182c906140a2565b60405180910390fd5b60005b82518110156118785761186584848381518110611858576118576145ed565b5b6020026020010151612679565b8080611870906144b7565b915050611838565b50505050565b6000600560008473ffffffffffffffffffffffffffffffffffffffff1673ffffffffffffffffffffffffffffffffffffffff16815260200190815260200160002060008373ffffffffffffffffffffffffffffffffffffffff1673ffffffffffffffffffffffffffffffffffffffff16815260200190815260200160002060009054906101000a900460ff16905092915050565b6060600061191f83610fe7565b905060008167ffffffffffffffff81111561193d5761193c61461c565b5b60405190808252806020026020018201604052801561196b5781602001602082028036833780820191505090505b50905060005b828110156119b5576119838582610c11565b828281518110611996576119956145ed565b5b60200260200101818152505080806119ad906144b7565b915050611971565b508092505050919050565b6119c8611bb9565b73ffffffffffffffffffffffffffffffffffffffff166119e6611229565b73ffffffffffffffffffffffffffffffffffffffff1614611a3c576040517f08c379a0000000000000000000000000000000000000000000000000000000008152600401611a3390613fc2565b60405180910390fd5b600073ffffffffffffffffffffffffffffffffffffffff168173ffffffffffffffffffffffffffffffffffffffff161415611aac576040517f08c379a0000000000000000000000000000000000000000000000000000000008152600401611aa390613e22565b60405180910390fd5b611ab58161229d565b50565b611ac0611bb9565b73ffffffffffffffffffffffffffffffffffffffff16611ade611229565b73ffffffffffffffffffffffffffffffffffffffff1614611b34576040517f08c379a0000000000000000000000000000000000000000000000000000000008152600401611b2b90613fc2565b60405180910390fd5b612724600d81905550565b60007f780e9d63000000000000000000000000000000000000000000000000000000007bffffffffffffffffffffffffffffffffffffffffffffffffffffffff1916827bffffffffffffffffffffffffffffffffffffffffffffffffffffffff19161480611bb25750611bb1826126be565b5b9050919050565b600033905090565b611bc9610f1e565b15611c09576040517f08c379a0000000000000000000000000000000000000000000000000000000008152600401611c0090613f02565b60405180910390fd5b6001600a60146101000a81548160ff0219169083151502179055507f62e78cea01bee320cd4e420270b5ea74000d11b0c9f74754ebdbfc544b05a258611c4d611bb9565b604051611c5a9190613c9c565b60405180910390a1565b611c6c610f1e565b611cab576040517f08c379a0000000000000000000000000000000000000000000000000000000008152600401611ca290613d82565b60405180910390fd5b6000600a60146101000a81548160ff0219169083151502179055507f5db9ee0a495bf2e6ff9c91a7834c1ba4fdd244a5e8aa4e537bd38aeae4b073aa611cef611bb9565b604051611cfc9190613c9c565b60405180910390a1565b60008073ffffffffffffffffffffffffffffffffffffffff166002600084815260200190815260200160002060009054906101000a900473ffffffffffffffffffffffffffffffffffffffff1673ffffffffffffffffffffffffffffffffffffffff1614159050919050565b816004600083815260200190815260200160002060006101000a81548173ffffffffffffffffffffffffffffffffffffffff021916908373ffffffffffffffffffffffffffffffffffffffff160217905550808273ffffffffffffffffffffffffffffffffffffffff16611de583610f35565b73ffffffffffffffffffffffffffffffffffffffff167f8c5be1e5ebec7d5bd14f71427d1e84f3dd0314c0f7b2291e5b200ac8c7c3b92560405160405180910390a45050565b6000611e3682611d06565b611e75576040517f08c379a0000000000000000000000000000000000000000000000000000000008152600401611e6c90613ee2565b60405180910390fd5b6000611e8083610f35565b90508073ffffffffffffffffffffffffffffffffffffffff168473ffffffffffffffffffffffffffffffffffffffff161480611eef57508373ffffffffffffffffffffffffffffffffffffffff16611ed7846109e4565b73ffffffffffffffffffffffffffffffffffffffff16145b80611f005750611eff818561187e565b5b91505092915050565b8273ffffffffffffffffffffffffffffffffffffffff16611f2982610f35565b73ffffffffffffffffffffffffffffffffffffffff1614611f7f576040517f08c379a0000000000000000000000000000000000000000000000000000000008152600401611f7690613fe2565b60405180910390fd5b600073ffffffffffffffffffffffffffffffffffffffff168273ffffffffffffffffffffffffffffffffffffffff161415611fef576040517f08c379a0000000000000000000000000000000000000000000000000000000008152600401611fe690613ea2565b60405180910390fd5b611ffa8383836127a0565b612005600082611d72565b6001600360008573ffffffffffffffffffffffffffffffffffffffff1673ffffffffffffffffffffffffffffffffffffffff16815260200190815260200160002060008282546120559190614358565b925050819055506001600360008473ffffffffffffffffffffffffffffffffffffffff1673ffffffffffffffffffffffffffffffffffffffff16815260200190815260200160002060008282546120ac9190614277565b92505081905550816002600083815260200190815260200160002060006101000a81548173ffffffffffffffffffffffffffffffffffffffff021916908373ffffffffffffffffffffffffffffffffffffffff160217905550808273ffffffffffffffffffffffffffffffffffffffff168473ffffffffffffffffffffffffffffffffffffffff167fddf252ad1be2c89b69c2b068fc378daa952ba7f163c4a11628f55a4df523b3ef60405160405180910390a4505050565b6000818361217391906142fe565b905092915050565b600061218682610f35565b9050612194816000846127a0565b61219f600083611d72565b6001600360008373ffffffffffffffffffffffffffffffffffffffff1673ffffffffffffffffffffffffffffffffffffffff16815260200190815260200160002060008282546121ef9190614358565b925050819055506002600083815260200190815260200160002060006101000a81549073ffffffffffffffffffffffffffffffffffffffff021916905581600073ffffffffffffffffffffffffffffffffffffffff168273ffffffffffffffffffffffffffffffffffffffff167fddf252ad1be2c89b69c2b068fc378daa952ba7f163c4a11628f55a4df523b3ef60405160405180910390a45050565b6000612298600b6127b0565b905090565b6000600a60009054906101000a900473ffffffffffffffffffffffffffffffffffffffff16905081600a60006101000a81548173ffffffffffffffffffffffffffffffffffffffff021916908373ffffffffffffffffffffffffffffffffffffffff1602179055508173ffffffffffffffffffffffffffffffffffffffff168173ffffffffffffffffffffffffffffffffffffffff167f8be0079c531659141344cd1fd0a4f28419497f9722a3daafe3b4186f6b6457e060405160405180910390a35050565b6000818361237191906142cd565b905092915050565b60008273ffffffffffffffffffffffffffffffffffffffff168260405161239f90613c87565b60006040518083038185875af1925050503d80600081146123dc576040519150601f19603f3d011682016040523d82523d6000602084013e6123e1565b606091505b5050905080612425576040517f08c379a000000000000000000000000000000000000000000000000000000000815260040161241c90613e82565b60405180910390fd5b505050565b612435848484611f09565b612441848484846127be565b612480576040517f08c379a000000000000000000000000000000000000000000000000000000000815260040161247790613dc2565b60405180910390fd5b50505050565b6060600e805461249590614454565b80601f01602080910402602001604051908101604052809291908181526020018280546124c190614454565b801561250e5780601f106124e35761010080835404028352916020019161250e565b820191906000526020600020905b8154815290600101906020018083116124f157829003601f168201915b5050505050905090565b60606000821415612560576040518060400160405280600181526020017f30000000000000000000000000000000000000000000000000000000000000008152509050612674565b600082905060005b6000821461259257808061257b906144b7565b915050600a8261258b91906142cd565b9150612568565b60008167ffffffffffffffff8111156125ae576125ad61461c565b5b6040519080825280601f01601f1916602001820160405280156125e05781602001600182028036833780820191505090505b5090505b6000851461266d576001826125f99190614358565b9150600a856126089190614500565b60306126149190614277565b60f81b81838151811061262a576126296145ed565b5b60200101907effffffffffffffffffffffffffffffffffffffffffffffffffffffffffffff1916908160001a905350600a8561266691906142cd565b94506125e4565b8093505050505b919050565b612683600b612955565b61268d828261296b565b807fb49e345da8acc73b2902d35c00bfb023f6a3d36e775d578ce73e80c78fc70bb560405160405180910390a25050565b60007f80ac58cd000000000000000000000000000000000000000000000000000000007bffffffffffffffffffffffffffffffffffffffffffffffffffffffff1916827bffffffffffffffffffffffffffffffffffffffffffffffffffffffff1916148061278957507f5b5e139f000000000000000000000000000000000000000000000000000000007bffffffffffffffffffffffffffffffffffffffffffffffffffffffff1916827bffffffffffffffffffffffffffffffffffffffffffffffffffffffff1916145b80612799575061279882612989565b5b9050919050565b6127ab8383836129f3565b505050565b600081600001549050919050565b60006127df8473ffffffffffffffffffffffffffffffffffffffff16612a8d565b15612948578373ffffffffffffffffffffffffffffffffffffffff1663150b7a02612808611bb9565b8786866040518563ffffffff1660e01b815260040161282a9493929190613cb7565b602060405180830381600087803b15801561284457600080fd5b505af192505050801561287557506040513d601f19601f820116820180604052508101906128729190613600565b60015b6128f8573d80600081146128a5576040519150601f19603f3d011682016040523d82523d6000602084013e6128aa565b606091505b506000815114156128f0576040517f08c379a00000000000000000000000000000000000000000000000000000000081526004016128e790613dc2565b60405180910390fd5b805181602001fd5b63150b7a0260e01b7bffffffffffffffffffffffffffffffffffffffffffffffffffffffff1916817bffffffffffffffffffffffffffffffffffffffffffffffffffffffff19161491505061294d565b600190505b949350505050565b6001816000016000828254019250508190555050565b612985828260405180602001604052806000815250612aa0565b5050565b60007f01ffc9a7000000000000000000000000000000000000000000000000000000007bffffffffffffffffffffffffffffffffffffffffffffffffffffffff1916827bffffffffffffffffffffffffffffffffffffffffffffffffffffffff1916149050919050565b6129fe838383612afb565b612a06611229565b73ffffffffffffffffffffffffffffffffffffffff16612a24611bb9565b73ffffffffffffffffffffffffffffffffffffffff1614612a8857612a47610f1e565b15612a87576040517f08c379a0000000000000000000000000000000000000000000000000000000008152600401612a7e90613d62565b60405180910390fd5b5b505050565b600080823b905060008111915050919050565b612aaa8383612c0f565b612ab760008484846127be565b612af6576040517f08c379a0000000000000000000000000000000000000000000000000000000008152600401612aed90613dc2565b60405180910390fd5b505050565b612b06838383612ddd565b600073ffffffffffffffffffffffffffffffffffffffff168373ffffffffffffffffffffffffffffffffffffffff161415612b4957612b4481612de2565b612b88565b8173ffffffffffffffffffffffffffffffffffffffff168373ffffffffffffffffffffffffffffffffffffffff1614612b8757612b868382612e2b565b5b5b600073ffffffffffffffffffffffffffffffffffffffff168273ffffffffffffffffffffffffffffffffffffffff161415612bcb57612bc681612f98565b612c0a565b8273ffffffffffffffffffffffffffffffffffffffff168273ffffffffffffffffffffffffffffffffffffffff1614612c0957612c088282613069565b5b5b505050565b600073ffffffffffffffffffffffffffffffffffffffff168273ffffffffffffffffffffffffffffffffffffffff161415612c7f576040517f08c379a0000000000000000000000000000000000000000000000000000000008152600401612c7690613f82565b60405180910390fd5b612c8881611d06565b15612cc8576040517f08c379a0000000000000000000000000000000000000000000000000000000008152600401612cbf90613e42565b60405180910390fd5b612cd4600083836127a0565b6001600360008473ffffffffffffffffffffffffffffffffffffffff1673ffffffffffffffffffffffffffffffffffffffff1681526020019081526020016000206000828254612d249190614277565b92505081905550816002600083815260200190815260200160002060006101000a81548173ffffffffffffffffffffffffffffffffffffffff021916908373ffffffffffffffffffffffffffffffffffffffff160217905550808273ffffffffffffffffffffffffffffffffffffffff16600073ffffffffffffffffffffffffffffffffffffffff167fddf252ad1be2c89b69c2b068fc378daa952ba7f163c4a11628f55a4df523b3ef60405160405180910390a45050565b505050565b6008805490506009600083815260200190815260200160002081905550600881908060018154018082558091505060019003906000526020600020016000909190919091505550565b60006001612e3884610fe7565b612e429190614358565b9050600060076000848152602001908152602001600020549050818114612f27576000600660008673ffffffffffffffffffffffffffffffffffffffff1673ffffffffffffffffffffffffffffffffffffffff168152602001908152602001600020600084815260200190815260200160002054905080600660008773ffffffffffffffffffffffffffffffffffffffff1673ffffffffffffffffffffffffffffffffffffffff168152602001908152602001600020600084815260200190815260200160002081905550816007600083815260200190815260200160002081905550505b6007600084815260200190815260200160002060009055600660008573ffffffffffffffffffffffffffffffffffffffff1673ffffffffffffffffffffffffffffffffffffffff16815260200190815260200160002060008381526020019081526020016000206000905550505050565b60006001600880549050612fac9190614358565b9050600060096000848152602001908152602001600020549050600060088381548110612fdc57612fdb6145ed565b5b906000526020600020015490508060088381548110612ffe57612ffd6145ed565b5b90600052602060002001819055508160096000838152602001908152602001600020819055506009600085815260200190815260200160002060009055600880548061304d5761304c6145be565b5b6001900381819060005260206000200160009055905550505050565b600061307483610fe7565b905081600660008573ffffffffffffffffffffffffffffffffffffffff1673ffffffffffffffffffffffffffffffffffffffff168152602001908152602001600020600083815260200190815260200160002081905550806007600084815260200190815260200160002081905550505050565b8280546130f490614454565b90600052602060002090601f016020900481019282613116576000855561315d565b82601f1061312f57805160ff191683800117855561315d565b8280016001018555821561315d579182015b8281111561315c578251825591602001919060010190613141565b5b50905061316a919061316e565b5090565b5b8082111561318757600081600090555060010161316f565b5090565b600061319e61319984614162565b61413d565b905080838252602082019050828560208602820111156131c1576131c0614650565b5b60005b858110156131f157816131d78882613372565b8452602084019350602083019250506001810190506131c4565b5050509392505050565b600061320e6132098461418e565b61413d565b90508281526020810184848401111561322a57613229614655565b5b613235848285614412565b509392505050565b600061325061324b846141bf565b61413d565b90508281526020810184848401111561326c5761326b614655565b5b613277848285614412565b509392505050565b60008135905061328e81614e8d565b92915050565b6000813590506132a381614ea4565b92915050565b600082601f8301126132be576132bd61464b565b5b81356132ce84826020860161318b565b91505092915050565b6000813590506132e681614ebb565b92915050565b6000813590506132fb81614ed2565b92915050565b60008151905061331081614ed2565b92915050565b600082601f83011261332b5761332a61464b565b5b813561333b8482602086016131fb565b91505092915050565b600082601f8301126133595761335861464b565b5b813561336984826020860161323d565b91505092915050565b60008135905061338181614ee9565b92915050565b60006020828403121561339d5761339c61465f565b5b60006133ab8482850161327f565b91505092915050565b600080604083850312156133cb576133ca61465f565b5b60006133d985828601613294565b925050602083013567ffffffffffffffff8111156133fa576133f961465a565b5b613406858286016132a9565b9150509250929050565b600080604083850312156134275761342661465f565b5b60006134358582860161327f565b92505060206134468582860161327f565b9150509250929050565b6000806000606084860312156134695761346861465f565b5b60006134778682870161327f565b93505060206134888682870161327f565b925050604061349986828701613372565b9150509250925092565b600080600080608085870312156134bd576134bc61465f565b5b60006134cb8782880161327f565b94505060206134dc8782880161327f565b93505060406134ed87828801613372565b925050606085013567ffffffffffffffff81111561350e5761350d61465a565b5b61351a87828801613316565b91505092959194509250565b6000806040838503121561353d5761353c61465f565b5b600061354b8582860161327f565b925050602061355c858286016132d7565b9150509250929050565b6000806040838503121561357d5761357c61465f565b5b600061358b8582860161327f565b925050602061359c85828601613372565b9150509250929050565b6000602082840312156135bc576135bb61465f565b5b60006135ca848285016132d7565b91505092915050565b6000602082840312156135e9576135e861465f565b5b60006135f7848285016132ec565b91505092915050565b6000602082840312156136165761361561465f565b5b600061362484828501613301565b91505092915050565b6000602082840312156136435761364261465f565b5b600082013567ffffffffffffffff8111156136615761366061465a565b5b61366d84828501613344565b91505092915050565b60006020828403121561368c5761368b61465f565b5b600061369a84828501613372565b91505092915050565b60006136af8383613c3a565b60208301905092915050565b6136c48161438c565b82525050565b60006136d582614200565b6136df818561422e565b93506136ea836141f0565b8060005b8381101561371b57815161370288826136a3565b975061370d83614221565b9250506001810190506136ee565b5085935050505092915050565b613731816143b0565b82525050565b60006137428261420b565b61374c818561423f565b935061375c818560208601614421565b61376581614664565b840191505092915050565b600061377b82614216565b613785818561425b565b9350613795818560208601614421565b61379e81614664565b840191505092915050565b60006137b482614216565b6137be818561426c565b93506137ce818560208601614421565b80840191505092915050565b60006137e7602b8361425b565b91506137f282614675565b604082019050919050565b600061380a60148361425b565b9150613815826146c4565b602082019050919050565b600061382d602b8361425b565b9150613838826146ed565b604082019050919050565b600061385060328361425b565b915061385b8261473c565b604082019050919050565b600061387360108361425b565b915061387e8261478b565b602082019050919050565b600061389660328361425b565b91506138a1826147b4565b604082019050919050565b60006138b960268361425b565b91506138c482614803565b604082019050919050565b60006138dc601c8361425b565b91506138e782614852565b602082019050919050565b60006138ff60368361425b565b915061390a8261487b565b604082019050919050565b6000613922601a8361425b565b915061392d826148ca565b602082019050919050565b600061394560248361425b565b9150613950826148f3565b604082019050919050565b600061396860198361425b565b915061397382614942565b602082019050919050565b600061398b602c8361425b565b91506139968261496b565b604082019050919050565b60006139ae60108361425b565b91506139b9826149ba565b602082019050919050565b60006139d160388361425b565b91506139dc826149e3565b604082019050919050565b60006139f4602a8361425b565b91506139ff82614a32565b604082019050919050565b6000613a1760298361425b565b9150613a2282614a81565b604082019050919050565b6000613a3a60208361425b565b9150613a4582614ad0565b602082019050919050565b6000613a5d602c8361425b565b9150613a6882614af9565b604082019050919050565b6000613a8060058361426c565b9150613a8b82614b48565b600582019050919050565b6000613aa360208361425b565b9150613aae82614b71565b602082019050919050565b6000613ac660298361425b565b9150613ad182614b9a565b604082019050919050565b6000613ae9602f8361425b565b9150613af482614be9565b604082019050919050565b6000613b0c60218361425b565b9150613b1782614c38565b604082019050919050565b6000613b2f600083614250565b9150613b3a82614c87565b600082019050919050565b6000613b52602f8361425b565b9150613b5d82614c8a565b604082019050919050565b6000613b7560318361425b565b9150613b8082614cd9565b604082019050919050565b6000613b98602c8361425b565b9150613ba382614d28565b604082019050919050565b6000613bbb603f8361425b565b9150613bc682614d77565b604082019050919050565b6000613bde60308361425b565b9150613be982614dc6565b604082019050919050565b6000613c01600f8361425b565b9150613c0c82614e15565b602082019050919050565b6000613c2460258361425b565b9150613c2f82614e3e565b604082019050919050565b613c4381614408565b82525050565b613c5281614408565b82525050565b6000613c6482856137a9565b9150613c7082846137a9565b9150613c7b82613a73565b91508190509392505050565b6000613c9282613b22565b9150819050919050565b6000602082019050613cb160008301846136bb565b92915050565b6000608082019050613ccc60008301876136bb565b613cd960208301866136bb565b613ce66040830185613c49565b8181036060830152613cf88184613737565b905095945050505050565b60006020820190508181036000830152613d1d81846136ca565b905092915050565b6000602082019050613d3a6000830184613728565b92915050565b60006020820190508181036000830152613d5a8184613770565b905092915050565b60006020820190508181036000830152613d7b816137da565b9050919050565b60006020820190508181036000830152613d9b816137fd565b9050919050565b60006020820190508181036000830152613dbb81613820565b9050919050565b60006020820190508181036000830152613ddb81613843565b9050919050565b60006020820190508181036000830152613dfb81613866565b9050919050565b60006020820190508181036000830152613e1b81613889565b9050919050565b60006020820190508181036000830152613e3b816138ac565b9050919050565b60006020820190508181036000830152613e5b816138cf565b9050919050565b60006020820190508181036000830152613e7b816138f2565b9050919050565b60006020820190508181036000830152613e9b81613915565b9050919050565b60006020820190508181036000830152613ebb81613938565b9050919050565b60006020820190508181036000830152613edb8161395b565b9050919050565b60006020820190508181036000830152613efb8161397e565b9050919050565b60006020820190508181036000830152613f1b816139a1565b9050919050565b60006020820190508181036000830152613f3b816139c4565b9050919050565b60006020820190508181036000830152613f5b816139e7565b9050919050565b60006020820190508181036000830152613f7b81613a0a565b9050919050565b60006020820190508181036000830152613f9b81613a2d565b9050919050565b60006020820190508181036000830152613fbb81613a50565b9050919050565b60006020820190508181036000830152613fdb81613a96565b9050919050565b60006020820190508181036000830152613ffb81613ab9565b9050919050565b6000602082019050818103600083015261401b81613adc565b9050919050565b6000602082019050818103600083015261403b81613aff565b9050919050565b6000602082019050818103600083015261405b81613b45565b9050919050565b6000602082019050818103600083015261407b81613b68565b9050919050565b6000602082019050818103600083015261409b81613b8b565b9050919050565b600060208201905081810360008301526140bb81613bae565b9050919050565b600060208201905081810360008301526140db81613bd1565b9050919050565b600060208201905081810360008301526140fb81613bf4565b9050919050565b6000602082019050818103600083015261411b81613c17565b9050919050565b60006020820190506141376000830184613c49565b92915050565b6000614147614158565b90506141538282614486565b919050565b6000604051905090565b600067ffffffffffffffff82111561417d5761417c61461c565b5b602082029050602081019050919050565b600067ffffffffffffffff8211156141a9576141a861461c565b5b6141b282614664565b9050602081019050919050565b600067ffffffffffffffff8211156141da576141d961461c565b5b6141e382614664565b9050602081019050919050565b6000819050602082019050919050565b600081519050919050565b600081519050919050565b600081519050919050565b6000602082019050919050565b600082825260208201905092915050565b600082825260208201905092915050565b600081905092915050565b600082825260208201905092915050565b600081905092915050565b600061428282614408565b915061428d83614408565b9250827fffffffffffffffffffffffffffffffffffffffffffffffffffffffffffffffff038211156142c2576142c1614531565b5b828201905092915050565b60006142d882614408565b91506142e383614408565b9250826142f3576142f2614560565b5b828204905092915050565b600061430982614408565b915061431483614408565b9250817fffffffffffffffffffffffffffffffffffffffffffffffffffffffffffffffff048311821515161561434d5761434c614531565b5b828202905092915050565b600061436382614408565b915061436e83614408565b92508282101561438157614380614531565b5b828203905092915050565b6000614397826143e8565b9050919050565b60006143a9826143e8565b9050919050565b60008115159050919050565b60007fffffffff0000000000000000000000000000000000000000000000000000000082169050919050565b600073ffffffffffffffffffffffffffffffffffffffff82169050919050565b6000819050919050565b82818337600083830152505050565b60005b8381101561443f578082015181840152602081019050614424565b8381111561444e576000848401525b50505050565b6000600282049050600182168061446c57607f821691505b602082108114156144805761447f61458f565b5b50919050565b61448f82614664565b810181811067ffffffffffffffff821117156144ae576144ad61461c565b5b80604052505050565b60006144c282614408565b91507fffffffffffffffffffffffffffffffffffffffffffffffffffffffffffffffff8214156144f5576144f4614531565b5b600182019050919050565b600061450b82614408565b915061451683614408565b92508261452657614525614560565b5b828206905092915050565b7f4e487b7100000000000000000000000000000000000000000000000000000000600052601160045260246000fd5b7f4e487b7100000000000000000000000000000000000000000000000000000000600052601260045260246000fd5b7f4e487b7100000000000000000000000000000000000000000000000000000000600052602260045260246000fd5b7f4e487b7100000000000000000000000000000000000000000000000000000000600052603160045260246000fd5b7f4e487b7100000000000000000000000000000000000000000000000000000000600052603260045260246000fd5b7f4e487b7100000000000000000000000000000000000000000000000000000000600052604160045260246000fd5b600080fd5b600080fd5b600080fd5b600080fd5b600080fd5b6000601f19601f8301169050919050565b7f4552433732315061757361626c653a20746f6b656e207472616e73666572207760008201527f68696c6520706175736564000000000000000000000000000000000000000000602082015250565b7f5061757361626c653a206e6f7420706175736564000000000000000000000000600082015250565b7f455243373231456e756d657261626c653a206f776e657220696e646578206f7560008201527f74206f6620626f756e6473000000000000000000000000000000000000000000602082015250565b7f4552433732313a207472616e7366657220746f206e6f6e20455243373231526560008201527f63656976657220696d706c656d656e7465720000000000000000000000000000602082015250565b7f5041555341424c453a2050617573656400000000000000000000000000000000600082015250565b7f4d494e543a2043757272656e7420636f756e742065786365656473206d61786960008201527f6d756d20656c656d656e7420636f756e742e0000000000000000000000000000602082015250565b7f4f776e61626c653a206e6577206f776e657220697320746865207a65726f206160008201527f6464726573730000000000000000000000000000000000000000000000000000602082015250565b7f4552433732313a20746f6b656e20616c7265616479206d696e74656400000000600082015250565b7f4d494e543a20506c6561736520676f20746f20746865204f70656e736561207460008201527f6f206275792043727970746f204174686c657465732e00000000000000000000602082015250565b7f57495448445241573a205472616e73666572206661696c65642e000000000000600082015250565b7f4552433732313a207472616e7366657220746f20746865207a65726f2061646460008201527f7265737300000000000000000000000000000000000000000000000000000000602082015250565b7f4552433732313a20617070726f766520746f2063616c6c657200000000000000600082015250565b7f4552433732313a206f70657261746f7220717565727920666f72206e6f6e657860008201527f697374656e7420746f6b656e0000000000000000000000000000000000000000602082015250565b7f5061757361626c653a2070617573656400000000000000000000000000000000600082015250565b7f4552433732313a20617070726f76652063616c6c6572206973206e6f74206f7760008201527f6e6572206e6f7220617070726f76656420666f7220616c6c0000000000000000602082015250565b7f4552433732313a2062616c616e636520717565727920666f7220746865207a6560008201527f726f206164647265737300000000000000000000000000000000000000000000602082015250565b7f4552433732313a206f776e657220717565727920666f72206e6f6e657869737460008201527f656e7420746f6b656e0000000000000000000000000000000000000000000000602082015250565b7f4552433732313a206d696e7420746f20746865207a65726f2061646472657373600082015250565b7f4552433732313a20617070726f76656420717565727920666f72206e6f6e657860008201527f697374656e7420746f6b656e0000000000000000000000000000000000000000602082015250565b7f2e6a736f6e000000000000000000000000000000000000000000000000000000600082015250565b7f4f776e61626c653a2063616c6c6572206973206e6f7420746865206f776e6572600082015250565b7f4552433732313a207472616e73666572206f6620746f6b656e2074686174206960008201527f73206e6f74206f776e0000000000000000000000000000000000000000000000602082015250565b7f4552433732314d657461646174613a2055524920717565727920666f72206e6f60008201527f6e6578697374656e7420746f6b656e0000000000000000000000000000000000602082015250565b7f4552433732313a20617070726f76616c20746f2063757272656e74206f776e6560008201527f7200000000000000000000000000000000000000000000000000000000000000602082015250565b50565b7f4d494e543a2043757272656e7420636f756e742065786365656473206d61786960008201527f6d756d206d696e7420636f756e742e0000000000000000000000000000000000602082015250565b7f4552433732313a207472616e736665722063616c6c6572206973206e6f74206f60008201527f776e6572206e6f7220617070726f766564000000000000000000000000000000602082015250565b7f455243373231456e756d657261626c653a20676c6f62616c20696e646578206f60008201527f7574206f6620626f756e64730000000000000000000000000000000000000000602082015250565b7f4d494e543a2043757272656e742076616c75652069732062656c6f772074686560008201527f2073616c6573207072696365206f662043727970746f204174686c6574657300602082015250565b7f4552433732314275726e61626c653a2063616c6c6572206973206e6f74206f7760008201527f6e6572206e6f7220617070726f76656400000000000000000000000000000000602082015250565b7f53414c45533a2053616c6520656e640000000000000000000000000000000000600082015250565b7f50524553414c453a2050726573616c6520616d6f756e742063616e277420626560008201527f207a65726f000000000000000000000000000000000000000000000000000000602082015250565b614e968161438c565b8114614ea157600080fd5b50565b614ead8161439e565b8114614eb857600080fd5b50565b614ec4816143b0565b8114614ecf57600080fd5b50565b614edb816143bc565b8114614ee657600080fd5b50565b614ef281614408565b8114614efd57600080fd5b5056fea2646970667358221220737bd9482fb12360d821e70c9dd8ba029a00777efddf4e6c8886c4d9883ffbef64736f6c63430008070033",
  "immutableReferences": {},
  "source": "// SPDX-License-Identifier: MIT\r\n\r\npragma solidity ^0.8.7;\r\n\r\nimport \"@openzeppelin/contracts/token/ERC721/ERC721.sol\";\r\nimport \"@openzeppelin/contracts/token/ERC721/extensions/ERC721Enumerable.sol\";\r\nimport \"@openzeppelin/contracts/token/ERC721/extensions/ERC721Burnable.sol\";\r\nimport \"@openzeppelin/contracts/access/Ownable.sol\";\r\nimport \"@openzeppelin/contracts/utils/math/SafeMath.sol\";\r\nimport \"@openzeppelin/contracts/utils/Counters.sol\";\r\nimport \"./ERC721Pausable.sol\";\r\n\r\ncontract CryptoAthletes is ERC721Enumerable, Ownable, ERC721Burnable, ERC721Pausable {\r\n    using SafeMath for uint256;\r\n    using Counters for Counters.Counter;\r\n\r\n    Counters.Counter private _tokenIdTracker;\r\n\r\n    uint256 public constant MAX_ELEMENTS = 1 * 10**4 + 20;\r\n    uint256 public constant PRICE = 5 * 10**16;\r\n    uint256 public constant MAX_BY_MINT = 20;\r\n    address public constant ownerAddress = 0x0081aD52FF7Eb8B5165777aa6adCf7d80cBF647D;\r\n    address public constant developerAddress = 0xA7482C9c5926E88d85804A969c383730Ce100639;\r\n\r\n    uint256[] private ids;\r\n\r\n    uint256 public maxSalesAmount;\r\n    string public baseTokenURI;\r\n\r\n    event CreateCryptoAthletes(uint256 indexed id);\r\n\r\n    modifier saleIsOpen {\r\n        require(_totalSupply() <= maxSalesAmount, \"SALES: Sale end\");\r\n\r\n        if (_msgSender() != owner()) {\r\n            require(!paused(), \"PAUSABLE: Paused\");\r\n        }\r\n        _;\r\n    }\r\n\r\n    constructor (string memory baseURI) ERC721(\"CryptoAthletes\", \"CATH\") {\r\n        setBaseURI(baseURI);\r\n        pause(true);\r\n\r\n        maxSalesAmount = MAX_ELEMENTS;\r\n    }\r\n\r\n    function _totalSupply() internal view returns (uint) {\r\n        return _tokenIdTracker.current();\r\n    }\r\n\r\n    function totalMint() public view returns (uint256) {\r\n        return _totalSupply();\r\n    }\r\n\r\n    function mint(address payable _to, uint256[] memory _ids) public payable saleIsOpen {\r\n        uint256 total = _totalSupply();\r\n\r\n        require(total + _ids.length <= maxSalesAmount, \"MINT: Current count exceeds maximum element count.\");\r\n        require(total <= maxSalesAmount, \"MINT: Please go to the Opensea to buy Crypto Athletes.\");\r\n        require(_ids.length <= MAX_BY_MINT, \"MINT: Current count exceeds maximum mint count.\");\r\n        require(msg.value >= price(_ids.length), \"MINT: Current value is below the sales price of Crypto Athletes\");\r\n\r\n        for (uint256 i = 0; i < _ids.length; i++) {\r\n            _mintAnElement(_to, _ids[i]);\r\n        }\r\n    }\r\n\r\n    function startPreSale(uint256 presaleAmount) public onlyOwner {\r\n        require(presaleAmount != 0, \"PRESALE: Presale amount can't be zero\");\r\n\r\n        maxSalesAmount = presaleAmount;\r\n    }\r\n\r\n    function stopPreSale() public onlyOwner {\r\n        maxSalesAmount = MAX_ELEMENTS;\r\n    }\r\n\r\n    function _mintAnElement(address payable _to, uint256 _id) private {\r\n        _tokenIdTracker.increment();\r\n        _safeMint(_to, _id);\r\n\r\n        emit CreateCryptoAthletes(_id);\r\n    }\r\n\r\n    function price(uint256 _count) public pure returns (uint256) {\r\n        return PRICE.mul(_count);\r\n    }\r\n\r\n    function _baseURI() internal view virtual override returns (string memory) {\r\n        return baseTokenURI;\r\n    }\r\n\r\n    function setBaseURI(string memory baseURI) public onlyOwner {\r\n        baseTokenURI = baseURI;\r\n    }\r\n\r\n    function getTokenIdsOfWallet(address _owner) external view returns (uint256[] memory) {\r\n        uint256 tokenCount = balanceOf(_owner);\r\n\r\n        uint256[] memory tokensId = new uint256[](tokenCount);\r\n\r\n        for (uint256 i = 0; i < tokenCount; i++) {\r\n            tokensId[i] = tokenOfOwnerByIndex(_owner, i);\r\n        }\r\n\r\n        return tokensId;\r\n    }\r\n\r\n    function pause(bool value) public onlyOwner {\r\n        if (value == true) {\r\n            _pause();\r\n\r\n            return;\r\n        }\r\n\r\n        _unpause();\r\n    }\r\n\r\n    function withdrawAll() public payable onlyOwner {\r\n        uint256 balance = address(this).balance;\r\n        require(balance > 0);\r\n\r\n        _widthdraw(developerAddress, balance.mul(3).div(100));\r\n        _widthdraw(ownerAddress, address(this).balance);\r\n    }\r\n\r\n    function _widthdraw(address _address, uint256 _amount) private {\r\n        (bool success, ) = _address.call{value: _amount}(\"\");\r\n        require(success, \"WITHDRAW: Transfer failed.\");\r\n    }\r\n\r\n    function _beforeTokenTransfer(\r\n        address from,\r\n        address to,\r\n        uint256 tokenId\r\n    ) internal virtual override(ERC721, ERC721Enumerable, ERC721Pausable) {\r\n        super._beforeTokenTransfer(from, to, tokenId);\r\n    }\r\n\r\n    function supportsInterface(bytes4 interfaceId) public view virtual override(ERC721, ERC721Enumerable) returns (bool) {\r\n        return super.supportsInterface(interfaceId);\r\n    }\r\n}",
  "sourcePath": "F:\\Cory_Career\\Crypto_Athletes\\crypto-athletes-s1-website\\contracts\\CryptoAthletes.sol",
  "compiler": {
    "name": "solc",
    "version": "0.8.7+commit.e28d00a7.Emscripten.clang"
  },
  "schemaVersion": "3.4.3",
  "updatedAt": "2021-09-21T17:29:49.723Z",
  "networkType": "ethereum",
  "devdoc": {
    "kind": "dev",
    "methods": {
      "approve(address,uint256)": {
        "details": "See {IERC721-approve}."
      },
      "balanceOf(address)": {
        "details": "See {IERC721-balanceOf}."
      },
      "burn(uint256)": {
        "details": "Burns `tokenId`. See {ERC721-_burn}. Requirements: - The caller must own `tokenId` or be an approved operator."
      },
      "getApproved(uint256)": {
        "details": "See {IERC721-getApproved}."
      },
      "isApprovedForAll(address,address)": {
        "details": "See {IERC721-isApprovedForAll}."
      },
      "name()": {
        "details": "See {IERC721Metadata-name}."
      },
      "owner()": {
        "details": "Returns the address of the current owner."
      },
      "ownerOf(uint256)": {
        "details": "See {IERC721-ownerOf}."
      },
      "paused()": {
        "details": "Returns true if the contract is paused, and false otherwise."
      },
      "renounceOwnership()": {
        "details": "Leaves the contract without owner. It will not be possible to call `onlyOwner` functions anymore. Can only be called by the current owner. NOTE: Renouncing ownership will leave the contract without an owner, thereby removing any functionality that is only available to the owner."
      },
      "safeTransferFrom(address,address,uint256)": {
        "details": "See {IERC721-safeTransferFrom}."
      },
      "safeTransferFrom(address,address,uint256,bytes)": {
        "details": "See {IERC721-safeTransferFrom}."
      },
      "setApprovalForAll(address,bool)": {
        "details": "See {IERC721-setApprovalForAll}."
      },
      "symbol()": {
        "details": "See {IERC721Metadata-symbol}."
      },
      "tokenByIndex(uint256)": {
        "details": "See {IERC721Enumerable-tokenByIndex}."
      },
      "tokenOfOwnerByIndex(address,uint256)": {
        "details": "See {IERC721Enumerable-tokenOfOwnerByIndex}."
      },
      "tokenURI(uint256)": {
        "details": "See {IERC721Metadata-tokenURI}."
      },
      "totalSupply()": {
        "details": "See {IERC721Enumerable-totalSupply}."
      },
      "transferFrom(address,address,uint256)": {
        "details": "See {IERC721-transferFrom}."
      },
      "transferOwnership(address)": {
        "details": "Transfers ownership of the contract to a new account (`newOwner`). Can only be called by the current owner."
      }
    },
    "version": 1
  },
  "userdoc": {
    "kind": "user",
    "methods": {},
    "version": 1
  }
}